:100000000C94400B0C946B0B0C946B0B0C946B0BC3
:100010000C946B0B0C946B0B0C946B0B0C946B0B88
:100020000C946B0B0C946B0B0C9476850C94F083F6
:100030000C946B0B0C946B0B0C946B0B0C946B0B68
:100040000C946B0B0C947D6C0C946B0B0C946B0BE5
:100050000C946B0B0C946B0B0C942E750C94B98256
:100060000C946B0B0C946B0B0C946B0B0C946B0B38
:100070000C946B0B0C946B0B0C946B0B0C946B0B28
:100080000C946B0B0C946B0B0C946B0B0C946B0B18
:100090000C94FD7E0C946B0B084AD73B3BCE016E53
:1000A00084BCBFFDC12F3D6C74319ABD56833DDACF
:1000B0003D00C77F11BED9E4BB4C3E916BAAAABEDE
:1000C000000000803F05A84CCDB2D44EB93836A907
:1000D000020C50B9918688083CA6AAAA2ABE000044
:1000E00000803F4D383420582059205A2045006563
:1000F00063686F3A0043616E6E6F7420656E74655D
:1001000072207375626469723A20004D3234004D7A
:100110003233202573006175746F25692E670045A1
:1001200072726F723A006572726F722077726974C0
:10013000696E6720746F2066696C65004E6F74206D
:100140005344207072696E74696E67002F005344C7
:10015000207072696E74696E672062797465200020
:100160002E0044656C6574696F6E206661696C650C
:10017000642C2046696C653A200046696C652064F1
:10018000656C657465643A002E006F70656E20665C
:1001900061696C65642C2046696C653A2000577271
:1001A0006974696E6720746F2066696C653A200017
:1001B0002E006F70656E206661696C65642C204648
:1001C000696C653A20002E006F70656E206661696B
:1001D0006C65642C2046696C653A200046696C6544
:1001E0002073656C6563746564002053697A653AB1
:1001F000200046696C65206F70656E65643A20006A
:100200002E006F70656E206661696C65642C2046F7
:10021000696C653A20004E6F7720667265736820BE
:1002200066696C653A20004E6F7720646F696E676F
:100230002066696C653A20002220706F73002220CE
:10024000706172656E743A2200535542524F555494
:10025000494E452043414C4C207461726765743AA5
:100260002200747279696E6720746F2063616C6C10
:10027000207375622D67636F64652066696C6573B2
:10028000207769746820746F6F206D616E79206CBF
:100290006576656C732E204D4158206C6576656CD3
:1002A0002069733A0053442063617264206F6B00CD
:1002B0006F70656E526F6F74206661696C65640063
:1002C000766F6C756D652E696E6974206661696CF8
:1002D000656400534420696E6974206661696C002E
:1002E0006563686F3A0048617264636F6465642097
:1002F00044656661756C742053657474696E6773C8
:10030000204C6F616465640053746F726564207380
:10031000657474696E677320726574726965766559
:1003200064002044002049002020204D333031203B
:1003300050005049442073657474696E67733A00C5
:10034000205A0020590020204D32303620580048D5
:100350006F6D65206F666673657420286D6D293A30
:1003600000204500205A0020580020420020540060
:1003700020204D323035205300416476616E636534
:1003800064207661726961626C65733A20533D4DF9
:10039000696E20666565647261746520286D6D2FD5
:1003A00073292C20543D4D696E2074726176656C02
:1003B00020666565647261746520286D6D2F7329F0
:1003C0002C20423D6D696E696D756D207365676D9A
:1003D000656E742074696D6520286D73292C205812
:1003E0003D6D6178696D756D205859206A65726B35
:1003F00020286D6D2F73292C20205A3D6D6178695E
:100400006D756D205A206A65726B20286D6D2F7393
:10041000292C2020453D6D6178696D756D20452042
:100420006A65726B20286D6D2F732900205400209F
:10043000204D323034205300416363656C65726136
:1004400074696F6E3A20533D616363656C657261D8
:1004500074696F6E2C20543D7265747261637420F0
:10046000616363656C65726174696F6E002045003D
:10047000205A0020590020204D3230312058004DA4
:100480006178696D756D20416363656C6572617437
:10049000696F6E20286D6D2F7332293A0020450058
:1004A000205A0020590020204D3230332058004D72
:1004B0006178696D756D20666565647261746573D8
:1004C00020286D6D2F73293A00204500205A002006
:1004D000590020204D393220580053746570732024
:1004E00070657220756E69743A0053657474696E34
:1004F00067732053746F726564006563686F3A00B8
:100500004572726F723A005072696E746572207330
:10051000746F707065642064756520746F206572F7
:10052000726F72732E204669782074686520657238
:10053000726F7220616E6420757365204D39393990
:1005400020746F20726573746172742E2028546554
:100550006D70657261747572652069732072657360
:1005600065742E2053657420697420616674657209
:100570002072657374617274696E672900507269C4
:100580006E7465722068616C7465642E206B696C92
:100590006C28292063616C6C656421006F6B0052CC
:1005A0006573656E643A20002200556E6B6E6F773E
:1005B0006E20636F6D6D616E643A2022007A5F6D0C
:1005C000696E3A2000795F6D696E3A2000785F6D40
:1005D000696E3A2000205A3A0020593A0020436FB1
:1005E000756E7420583A200020453A00205A3A008F
:1005F00020593A00583A004649524D574152455FFA
:100600004E414D453A4D61726C696E2056313B202A
:10061000537072696E7465722F6772626C206D61BF
:100620007368757020666F722067656E3620464964
:10063000524D574152455F55524C3A68747470732D
:100640003A2F2F6769746875622E636F6D2F45723C
:10065000696B5A616C6D2F4D61726C696E2F205001
:10066000524F544F434F4C5F56455253494F4E3AA9
:10067000312E30204D414348494E455F5459504535
:100680003A436F70706572686561642045585452D2
:10069000554445525F434F554E543A3120555549C4
:1006A000443A30303030303030302D303030302D32
:1006B000303030302D303030302D30303030303040
:1006C0003030303030300A0020423A0020453A00C5
:1006D000543A0020573A0020453A00543A0020424C
:1006E000403A0020403A00202F003A0020540020D9
:1006F0002F0020423A00202F006F6B20543A002533
:1007000069206D696E2C2025692073656300456E34
:10071000642066696C65206C697374004265676962
:100720006E2066696C65206C69737400FFFFFF00C2
:10073000007E4300007E430000B2430000A0400062
:1007400000A0400000803F0000000000000000000A
:100750000000000000000000000000000000000099
:10076000007E4300007E430000B243256920686F8D
:10077000757273202569206D696E75746573004408
:100780006F6E65207072696E74696E672066696C41
:1007900065005072696E7465722073746F70706555
:1007A000642064756520746F206572726F72732E99
:1007B0002046697820746865206572726F722061C6
:1007C0006E6420757365204D39393920746F20723D
:1007D0006573746172742E202854656D7065726142
:1007E000747572652069732072657365742E205369
:1007F0006574206974206166746572207265737413
:10080000617274696E6729006F6B004E6F204C69CE
:100810006E65204E756D626572207769746820631D
:100820006865636B73756D2C204C617374204C6923
:100830006E653A20004E6F20436865636B73756D7B
:100840002077697468206C696E65206E756D6265CD
:10085000722C204C617374204C696E653A200063E1
:100860006865636B73756D206D69736D6174636822
:100870002C204C617374204C696E653A20004C69E1
:100880006E65204E756D626572206973206E6F749F
:10089000204C617374204C696E65204E756D6265E5
:1008A000722B312C204C617374204C696E653A2098
:1008B000004D31313000446F6E6520736176696E92
:1008C000672066696C652E006F6B004D3239002021
:1008D00020506C616E6E6572427566666572427913
:1008E0007465733A20002046726565204D656D6F12
:1008F00072793A20004D6172202039203230313433
:1009000000436F6D70696C65643A2000286E6F6EED
:10091000652C2064656661756C7420636F6E666912
:10092000672900207C20417574686F723A20004D61
:10093000617220203920323031342032303A323363
:100940003A303000204C61737420557064617465D6
:10095000643A2000312E302E30004D61726C696E89
:100960000020536F667477617265205265736574F9
:1009700000205761746368646F6720526573657403
:10098000002042726F776E206F7574205265736518
:1009900074002045787465726E616C2052657365D1
:1009A0007400506F776572557000737461727400D3
:1009B0002200656E717565696E67202200220065F0
:1009C0006E717565696E672022006563686F3A0015
:1009D00020746F6F206C6F6E67206578747275730A
:1009E000696F6E2070726576656E74656400206351
:1009F0006F6C6420657874727573696F6E207072A5
:100A00006576656E746564007C3C3E5E2B3D3F2FD1
:100A10005B5D3B2C2A225C0045313A200045303A90
:100A200020005A3A2000593A2000583A20004D53ED
:100A3000312C4D53322050696E730A0024F404D9CE
:100A4000201BC40C5C0E9804C4095F026507710189
:100A5000F405F900FB04B30048048700C1036900F2
:100A60005803550003034500BE023A0084023100DA
:100A700053022A002902250004022000E4011C0080
:100A8000C8011900AF011700980114008401130078
:100A9000710110006101100051010E0043010D00B1
:100AA00036010B002B010B0020010B001501090082
:100AB0000C01090003010800FB000800F300080016
:100AC000EB000700E4000600DE000600D800060088
:100AD000D2000600CC000500C7000500C2000500DA
:100AE000BD000400B9000400B5000400B10004001A
:100AF000AD000400A9000400A5000300A20003004B
:100B00009F0004009B000300980003009500020072
:100B100093000300900003008D0002008B0003008F
:100B200088000200860002008400030081000200A9
:100B30007F0002007D0002007B00020079000200BD
:100B400077000100760002007400020072000100CC
:100B5000710002006F0002006D0001006C000200D5
:100B60006A000100690002006700010066000100E0
:100B700065000100640002006200010061000100E4
:100B8000600001005F0002005D0001005C000100E8
:100B90005B0001005A0001005900010058000100EB
:100BA00057000100560001005500010054000100EB
:100BB00053000000530001005200010051000100E9
:100BC000500001004F0001004E0000004E000100E7
:100BD0004D0001004C0001004B0000004B000100E3
:100BE0004A000100490001004800000048000100DF
:100BF00047000100460000004600010045000000DB
:100C000045000100440001004300000043000100D2
:100C100042000000420001004100000041000100CC
:100C2000400001003F0000003F0001003E000000C6
:100C30003E0001003D0000003D0001003C000000BE
:100C40003C0000003C0001003B0000003B000100B4
:100C50003A0000003A0001003900000039000100AC
:100C600038000000380000003800010037000000A4
:100C70003700010036000000360000003600010099
:100C80003500000035000000350001003400000090
:100C90003400000034000100330000003300000085
:100CA0003300010032000000320000003200010079
:100CB0003100000031000000310001003000000070
:100CC00030000000300001002F0000002F00000065
:100CD0002F0000002F0001002E0000002E00000059
:100CE0002E0001002D0000002D0000002D0000004E
:100CF0002D0001002C0000002C0000002C00000042
:100D00002C0001002B0000002B0000002B00000035
:100D10002B0001002A0000002A0000002A00000029
:100D20002A0001002900000029000000290000001D
:100D30002900000029000100280000002800000010
:100D40002800000028000000280001002700000003
:100D500027000000270000002700000027000100F6
:100D600026000000260000002600000026000000EB
:100D700026000100250000002500000025000000DD
:100D800025000000250000002500010024000000CF
:100D900024000000240000002400000024000100C2
:100DA00023000000230000002300000023000000B7
:100DB00023000000230000002300010022000000A7
:100DC000220000002200000022000000220000009B
:100DD000220001002100000021000000210000008D
:100DE000210000002100000021000000210001007E
:100DF0002000000020000000200000002000000073
:100E00002000000020000000200000002000010061
:100E10001F0000001F0000001F0000001F00000056
:100E20001F0000001F0000001F0001001E00000046
:100E30001E0000001E0000001E00000024F4D4303C
:100E400050C38E20C2A24017828B7011127A910D6E
:100E5000816CD90AA861E108C75866076151430649
:100E60001E4B5D05C145A7041A411104093D9803B5
:100E7000713931034036DB0265339102D4305402BC
:100E8000802E1D02632CEE01752AC501B028A00139
:100E9000102781018F2564012B244B01E0223401AE
:100EA000AC211F018D200D01801FFC00841EED0070
:100EB000971DDF00B81CD200E61BC600201BBC003B
:100EC000641AB200B219A8000A19A0006A189900A1
:100ED000D117910040178B00B516840031167E00A3
:100EE000B31579003A157300C7146F0058146A00DF
:100EF000EE1366008813630025135E00C7125B00C3
:100F00006C12570015125400C111510070114F009E
:100F100021114B00D61049008D10470046104400A7
:100F200002104200C00F4000800F3E00420F3C0004
:100F3000060F3B00CB0E3800930E37005C0E3500D9
:100F4000270E3400F30D3200C10D3100900D30003A
:100F5000600D2E00320D2D00050D2C00D90C2B003C
:100F6000AE0C2900850C29005C0C2700350C2700ED
:100F70000E0C2600E80B2400C40B2400A00B230059
:100F80007D0B23005A0B2100390B2100180B200088
:100F9000F80A1F00D90A1E00BB0A1E009D0A1D0088
:100FA000800A1D00630A1C00470A1B002C0A1B0054
:100FB000110A1A00F7091A00DD091900C4091900FD
:100FC000AB091900920917007B0918006309170083
:100FD0004C09160036091600200916000A091500EA
:100FE000F5081500E0081400CC081400B808140037
:100FF000A4081400900813007D0812006B08130069
:101000005808120046081200340811002308110085
:101010001208110001081100F0071000E00710008D
:10102000D0071000C0071000B0070F00A107100084
:1010300091070E0083070F0074070F0065070E006D
:1010400057070E0049070E003B070D002E070E0044
:1010500020070D0013070D0006070D00F9060C0010
:10106000ED060D00E0060C00D4060C00C8060C00CE
:10107000BC060C00B0060C00A4060B0099060C0080
:101080008D060B0082060B0077060B006C060B002A
:1010900061060A0057060B004C060A0042060A00C9
:1010A00038060A002E060A0024060A001A060A005C
:1010B0001006090007060A00FD050900F4050900ED
:1010C000EB050900E2050900D9050900D005090072
:1010D000C7050900BE050900B5050800AD050800F3
:1010E000A50509009C050800940508008C0508006A
:1010F000840508007C050800740508006C050700DD
:10110000650508005D050700560508004E05070047
:1011100047050700400508003805070031050700AE
:101120002A050700230507001C0506001605070011
:101130000F0507000805060002050700FB0406006E
:10114000F5040700EE040600E8040600E2040700C8
:10115000DB040600D5040600CF040600C90406001F
:10116000C3040600BD040600B7040600B104050070
:10117000AC040600A6040600A00405009B040600BB
:1011800095040500900406008A0405008504050006
:10119000800406007A04050075040500700405004B
:1011A0006B04050066040500610405005C0405008D
:1011B00057040500520405004D04050048040500CD
:1011C000430405003E0404003A040500350405000C
:1011D000300404002C040500270404002304050047
:1011E0001E0404001A04040016040500110404007F
:1011F0000D040400090405000404040000040400B4
:10120000FC030400F8030400F4030400F0030400EA
:10121000EC030400E8030400E4030400E00304001A
:10122000DC030400D8030400D4030400D00304004A
:10123000CC030400C8030300C50303006563686FA3
:101240003A00205A3A0020593A0020583A00656E78
:101250006473746F7073206869743A200045727209
:101260006F723A0054656D706572617475726520B5
:10127000686561746564206265642073776974636E
:10128000686564206F66662E204D415854454D5068
:1012900020747269676765726564202121003A20B5
:1012A00045787472756465722073776974636865D4
:1012B00064206F66662E204D494E54454D50207473
:1012C00072696767657265642021003A2045787409
:1012D0007275646572207377697463686564206FE2
:1012E00066662E204D415854454D502074726967F2
:1012F0006765726564202100202D20496E76616C3F
:101300006964206578747275646572206E756D62AB
:10131000657220210070012C0190012701B001228B
:1013200001C0011D01F00118011002130130020E6D
:10133000016002090190020401C002FF000003FAEB
:10134000004003F5008003F000D003EB002004E62A
:10135000007004E100E004DC004005D700C005D2C5
:10136000004006CD00D006C8008007C3003008BE8C
:1013700000F008B900C009B400B00AAF00B00BAA71
:1013800000D00CA500000EA000500F9B00C01096CE
:10139000005012910000148C00C0158700B0178215
:1013A00000B0197D00D01B7800001E730040206E35
:1013B0000090226900F024640040275F0090295AC1
:1013C00000E02B5500102E500020304B001032460C
:1013D00000E033410090353C001037370070383260
:1013E00000A0392D00B03A2800A03B2300603C1E2D
:1013F00000103D1900903D1400103E0F00703E0A91
:1014000000C03E0500003F00005049442041757473
:101410006F74756E652066696E69736865642120F6
:1014200050757420746865206C617374204B702C47
:10143000204B6920616E64204B6420636F6E73746F
:10144000616E74732066726F6D2061626F766520C5
:10145000696E746F20436F6E666967757261746937
:101460006F6E2E6800504944204175746F74756E1C
:1014700065206661696C6564212074696D656F75AE
:10148000740020403A006F6B20543A006F6B20428A
:101490003A00504944204175746F74756E6520663A
:1014A00061696C6564212054656D70657261747545
:1014B000726520746F6F206869676800204B643A1A
:1014C0002000204B693A2000204B703A2000204336
:1014D0006C61737369632050494420002054753A4D
:1014E0002000204B753A2000206D61783A200020C2
:1014F0006D696E3A200020643A20002062696173B1
:101500003A2000012902290429082910292029400C
:10151000298029012C022C012602260426082610E7
:1015200026202640268026402C802C0123022304DE
:10153000230823102320234023802301200220049A
:101540002008201020202040208020102C202C015A
:101550002F022F042F082F102F202F402F802F7E97
:10156000FE7EFD7EFB7EF77EEF7EDF7EBF7E7F0010
:10157000010000A3151200020000B515430003008E
:1015800000F8150401030904FC15180203090416E8
:101590001616030309042E160C0001C10201803641
:1015A0000181361201000202000020C016830400EF
:1015B000010102030109024300020100C0320904D3
:1015C00000000102020100052400100105240100B1
:1015D0000104240206052406000107058203080011
:1015E0004009040100020A00000007050302400050
:1015F0000007058402400000040309041803540096
:10160000650065006E007300790064007500690074
:101610006E006F00000016035500530042002000CA
:10162000530065007200690061006C0000000C034B
:10163000310032003300340035000000494E464985
:101640004E4954594E414ECDCCCC3D0AD7233C1780
:10165000B7D13877CC2B329595E6241FB14F0A00CD
:101660000020410000C84200401C4620BCBE4CCABD
:101670001B0E5AAEC59D7400C725FC7EE388C225AB
:1016800011241FBECFEFD0E2DEBFCDBF13E0A0E03C
:10169000B1E0E0EAFDE101E00BBF02C007900D926E
:1016A000A433B107D9F71BBE10E1A4E3B3E001C036
:1016B0001D92AA33B107E1F716E1CEE7D6E104C0E7
:1016C0002297FE010E94768EC837D107C9F70E9483
:1016D000F4850C94C48E0C940000A0E0B0E0E3E725
:1016E000FBE00C94938EEC015B016115710519F020
:1016F000FB0191838083F9908F2D90E00E947A8E78
:10170000892BC9F7FDE2FF1621F4F990EE24E3944A
:1017100005C02BE2F21609F4F990EE248E01015077
:101720001040C8016CE376E143E050E069D2892BB8
:10173000F9F48E010E5F1F4FC8016FE376E145E0BB
:1017400050E05ED2892B19F48E01095F1F4FA1145E
:10175000B10419F0F50111830083E0FC04C070E0CE
:1017600090E080E813C070E090E080E86FEF07C180
:10177000C80164E476E143E050E042D2892B69F489
:10178000A114B10429F470E090E080EC6FE7F7C099
:101790002296F501D183C083F6CF8824992440E0B6
:1017A00050E060E070E0EF2DE053EA30A0F5F2E0A9
:1017B000EF2A8E2D90E09C0128703070E2FE06C06A
:1017C000232B79F50894811C911C2BC0232B19F035
:1017D000089481089108DB01CA0112E0880F991F63
:1017E000AA1FBB1F1A95D1F7480F591F6A1F7B1FED
:1017F000440F551F661F771F4E0F511D611D711D30
:10180000483929E9520729E9620729E1720748F0B6
:1018100084E0E82A06C0EE3F31F4E3FC39C098E0EA
:10182000E92AF990C0CFE53311F0E53189F5299126
:101830002D3219F4E0E1EE2A05C02B3219F081E0D7
:1018400090E003C0299182E090E0E22FE053EA307B
:1018500018F0C81BD90B1CC020E030E0FCE0203899
:101860003F075CF4C901880F991F880F991F280F43
:10187000391F220F331F2E0F311DE991E053EA303B
:1018800068F3E4FE03C0309521953F4F820E931E0E
:10189000CE2CDD24E1FE07C0A114B10421F0219774
:1018A000F501D183C083CB01BA010E94DF8A7B019D
:1018B0008C01F3E0CF22DD2423E0C216D10421F411
:1018C00017FB109517F9109557016801C801B7016A
:1018D00020E030E040E050E00E943F8A882309F495
:1018E0004AC097FE0DC02BE5E22E26E1F22E909421
:1018F000819491089394C0E2D0E000E010E012C01F
:1019000093E7E92E96E1F92EF6CFF701259135916F
:1019100045915491C601B5010E941F8D5B016C0178
:101920008C1A9D0A8C169D0684F7D595C7950F5F76
:101930001F4F0630110529F08CEF9FEFE80EF91EBE
:10194000F1CFC501D6017C018D018C2D880F8D2D25
:10195000881F8F3F51F0C601B50120E030E040E024
:1019600050E00E943F8A882331F482E290E0909315
:101970003910809338107E2D9F2D802F612F272FB7
:10198000392F482F562FB901CA01CDB7DEB7ECE089
:101990000C94AF8E2F923F925F926F927F928F92B4
:1019A0009F92AF92BF92CF92DF92EF92FF920F93EE
:1019B0001F93CF93DF938C011B01EA016115710521
:1019C00019F0FB0191838083209749F0CE010297A3
:1019D000839728F020E030E040E050E0F6C0F801C6
:1019E000A1908F018A2D90E00E947A8E892BB9F701
:1019F000FDE2AF1631F4F801A1908F015524539404
:101A000007C0FBE2AF1619F4F801A1908F0155242D
:101A1000209719F0C031D105C1F4F0E3AF1679F485
:101A2000F8018081883711F0883549F4F801A180E8
:101A30000E5F1F4FF2E05F2AC0E1D0E006C02097A2
:101A400021F480E3A816E9F427C0C830D10531F1AC
:101A5000C930D10524F4C230D10531F50CC0CA30EB
:101A6000D10589F0C031D105F9F4C12CD12CE12C7C
:101A7000B8E0FB2E28C0C12CD12CE12CA0E4FA2E1A
:101A800022C0CAE0D0E0FCECCF2EFCECDF2EFCEC58
:101A9000EF2EFCE0FF2E17C0C8E0D0E0C12CD12C07
:101AA000E12CE0E1FE2E0FC09E01442737FD40955A
:101AB000542F60E070E080E090E80E94238EC9011E
:101AC000DA016C017D0120E030E040E050E060E0B0
:101AD0003E01882477FC8094982C70EDB72EBA0CC8
:101AE000E9E0EB1570F48A2D81548A3118F499ECF1
:101AF000B92E06C08A2D81568A3150F589EAB82E52
:101B0000BA0C8B2D90E08C179D0714F56F3FE1F018
:101B1000C216D306E406F506B0F0CA01B901A40165
:101B200093010E94F18D9B01AC012B0D311D411DD4
:101B3000511D2130F0E03F07F0E04F07F0E85F076C
:101B400010F461E001C06FEFF801A1908F01C5CFE3
:101B50002114310481F0662331F001501040F1016D
:101B60001183008308C051FE1AC002501040F101D9
:101B70001183008314C067FF12C050FC05C02FEF13
:101B80003FEF4FEF5FE704C020E030E040E050E877
:101B900082E290E0909339108093381016C050FE86
:101BA00008C050954095309521953F4F4F4F5F4F5E
:101BB0000CC057FF0AC082E290E0909339108093E6
:101BC00038102FEF3FEF4FEF5FE7B901CA01DF9108
:101BD000CF911F910F91FF90EF90DF90CF90BF902A
:101BE000AF909F908F907F906F905F903F902F90DD
:101BF0000895FB01DC0105900D920020E1F70895A6
:101C0000FB01DC014150504088F08D9181341CF083
:101C10008B350CF4805E659161341CF06B350CF4EF
:101C2000605E861B611171F3990B0895881BFCCFD0
:101C3000FB0155915523A9F0BF01DC014D914517DA
:101C40004111E1F759F4CD010590002049F04D9183
:101C500040154111C9F3FB014111EFCF81E090E044
:101C600001970895FB01DC0104C08D91019080195A
:101C700021F441505040C8F7881B990B0895FB018F
:101C8000DC0102C001900D9241505040D8F70895F8
:101C9000FB01DC010D900020E9F7119701900D92F6
:101CA0000020E1F70895FC018191861721F0882337
:101CB000D9F7992708953197CF010895FB01DC01E9
:101CC00001900D920020E1F70895FB01DC014150E5
:101CD000504030F08D910190801919F40020B9F72F
:101CE000881B990B0895FB01DC014150504048F0DE
:101CF00001900D920020C9F701C01D924150504043
:101D0000E0F70895AEE0B0E0E8E8FEE00C949B8ECA
:101D10000D891E898EE08C831A8309838FEF9FE7DC
:101D20009E838D839E01275E3F4FCE0101966F8972
:101D3000788DA9010AD02F813885020F131FF80171
:101D400010822E96E4E00C94B78EABE0B0E0EBEAA4
:101D5000FEE00C948D8E3C012B015A01FC01178290
:101D60001682838181FD03C06FEF7FEFB9C19AE0D6
:101D7000892E1E010894211C311CF3012381F201DC
:101D800023FD859123FF81912F01882309F4A5C1AB
:101D9000853239F423FD859123FF81912F0185320E
:101DA00021F490E0B301B7D1E8CF982FFF24EE24BF
:101DB0009924FFE1FF15D0F09B3269F09C3228F4A2
:101DC000903259F0933291F40EC09D3249F0903325
:101DD00069F441E024C052E0F52A84E0F82A28C0E2
:101DE00098E0F92A25C0E0E1FE2A22C0F7FC29C0CC
:101DF000892F80538A3070F4F6FE05C0989C902C91
:101E00001124980E15C0E89CE02C1124E80EF0E295
:101E1000FF2A0EC09E3229F4F6FC5FC140E4F42A8A
:101E200007C09C3619F450E8F52A02C0983649F4E8
:101E3000F20123FD959123FF91912F01992309F040
:101E4000B8CF892F8554833018F08052833038F40E
:101E500044E050E0A40EB51E5FE359830FC09336F3
:101E600031F0933779F0933509F052C01FC0F50176
:101E70008081898342E050E0A40EB51E610101E03B
:101E800010E011C0F501C080D180F6FC03C06FEFF7
:101E90007FEF02C0692D70E042E050E0A40EB51E55
:101EA000C6012ED18C015FE7F52213C0F501C08079
:101EB000D180F6FC03C06FEF7FEF02C0692D70E0A8
:101EC00042E050E0A40EB51EC6010FD18C0150E8CF
:101ED000F52AF3FE06C018C080E290E0B3011BD1E2
:101EE000EA948E2D90E008171907B0F30DC0F601A3
:101EF000F7FC8591F7FE81916F0190E0B3010BD162
:101F0000E110EA94015010400115110581F7E2C07B
:101F1000943611F0993661F5F7FE08C0F50120817D
:101F200031814281538184E090E00AC0F5018081D3
:101F300091819C01442737FD4095542F82E090E029
:101F4000A80EB91E9FE6F92257FF09C0509540958B
:101F5000309521953F4F4F4F5F4FE0E8FE2ACA0171
:101F6000B901A1012AE030E002D1D82ED2183FC039
:101F7000953729F41F2D1F7E2AE030E01DC01F2D4C
:101F8000197F9F3661F0903720F4983509F0A5C08D
:101F90000FC0903739F0983709F09FC004C028E08F
:101FA00030E00AC0106114FD146020E130E004C08C
:101FB00014FD166020E132E017FF08C0F5016081D2
:101FC00071818281938144E050E008C0F5018081F5
:101FD0009181BC0180E090E042E050E0A40EB51E8B
:101FE000A101C5D0D82ED2188FE7F82EF122F6FE27
:101FF0000BC05EEFF522D91438F4F4FE07C0F2FCF2
:1020000005C08FEEF82202C01D2D01C0192DF4FE6F
:102010000DC0FE01ED0DF11D8081803319F499EEA4
:10202000F92208C01F5FF2FE05C003C08F2D86781D
:1020300009F01F5F0F2DF3FC13C0F0FE0EC01E153C
:1020400010F09D2C0AC09D2C9E0C911A1E2D05C0CF
:1020500080E290E0B3015FD01F5F1E15C8F304C09B
:102060001E1510F4E11A01C0EE2404FF0EC080E337
:1020700090E0B30150D002FF1BC001FD03C088E710
:1020800090E00EC088E590E00BC0802F867881F04C
:1020900001FF02C08BE201C080E2F7FC8DE290E01C
:1020A000B30139D005C080E390E0B30134D09A94F5
:1020B000D914C8F3DA94F101ED0DF11D808190E09F
:1020C000B30129D0DD20B1F705C080E290E0B30173
:1020D00022D0EA94EE20C9F750CEF30166817781D1
:1020E000CB012B96E2E10C94A98EFC010590615086
:1020F00070400110D8F7809590958E0F9F1F08951E
:10210000FC016150704001900110D8F780959095C6
:102110008E0F9F1F08950F931F93CF93DF938C0112
:10212000EB018B8181FF1BC082FF0DC02E813F819F
:102130008C819D812817390764F4E881F981019326
:10214000F983E88306C0E885F985802F0995892BF6
:1021500031F48E819F8101969F838E8302C00FEFA1
:102160001FEFC801DF91CF911F910F910895FA01E0
:10217000AA27283051F1203181F1E8946F936E7FC6
:102180006E5F7F4F8F4F9F4FAF4FB1E03ED0B4E0B7
:102190003CD0670F781F891F9A1FA11D680F791FF8
:1021A0008A1F911DA11D6A0F711D811D911DA11D09
:1021B00020D009F468943F912AE0269F1124301919
:1021C000305D3193DEF6CF010895462F4770405DB4
:1021D0004193B3E00FD0C9F7F6CF462F4F70405D63
:1021E0004A3318F0495D31FD4052419302D0A9F7BE
:1021F000EACFB4E0A6959795879577956795BA95B8
:10220000C9F700976105710508959B01AC010A2E7D
:1022100006945795479537952795BA95C9F7620F54
:10222000731F841F951FA01D0895DC01ED91FC9183
:102230000280F381E02D09950895DF93CF930F92EB
:10224000CDB7DEB7FC016983A081B18114962D91D1
:102250003C911597BE016F5F7F4F41E050E0F9015F
:1022600009950F90CF91DF910895FC01128213829E
:102270000895FC018381882311F081E08283089511
:10228000FC018281811112820895FC0189E193E0B1
:10229000918380838581882321F0CF0102960C945D
:1022A000DA5E0895EF92FF920F931F938C0124EB57
:1022B000E22E21E0F22EE80EF91EC7010E948B5E8D
:1022C000C7010E94DA5EF801108211821F910F91FE
:1022D000FF90EF900895CF92DF92EF92FF920F93CD
:1022E0001F93CF93DF937C016B01DB010D900020E6
:1022F000E9F78D0101501040061B170BE4EBF1E0EC
:10230000EE0EFF1ED7011C92ECE4FEEFEE0EFF1E58
:10231000CB016EE470E0C7DCEC01009731F4F8010A
:102320003197EC0DFD1D86010CC060E270E0BBDC56
:102330008C010F5F1F4FCE016AE270E0B4DCFC013C
:1023400031978DE081838AE082831382C7018E54A6
:102350009E4FB8010E94C06684EB91E0E80EF91E22
:10236000D7018C918823F1F0EFE1F1E06491EF0166
:1023700006C08FE290E161DF2196FE016491662341
:10238000C1F7E6E2F1E06491EF0106C08FE290E16F
:1023900054DF2196FE0164916623C1F78FE290E13C
:1023A0006AE04BDFDF91CF911F910F91FF90EF908B
:1023B000DF90CF900895EF92FF920F93CF93DF932A
:1023C0007C01FC018381882309F43DC0EEE4F1E047
:1023D0006491EF0106C08FE290E12FDF2196FE01AC
:1023E00064916623C1F789E692E0E80EF91EF701D1
:1023F000408151816281738187E99DEFE80EF91E6A
:102400008FE290E12AE000E00E943586ECE4F1E002
:102410006491EF0106C08FE290E10FDF2196FE018B
:1024200064916623C1F781E692E0E80EF91EF70198
:1024300040815181628173818FE290E12AE000E066
:102440000E9435860DC0ECE3F1E06491EF0106C017
:102450008FE290E1F2DE2196FE0164916623C1F7DE
:102460008FE290E16AE0E9DEDF91CF910F91FF907A
:10247000EF9008952F923F924F925F926F927F92CA
:102480008F929F92AF92BF92CF92DF92EF92FF9284
:102490000F931F93DF93CF93CDB7DEB7AA970FB6F5
:1024A000F894DEBF0FBECDBF5C014B01FC01838100
:1024B000882309F40AC1C5018C549E4F0E94DA5E3C
:1024C000F5011282188A1B8A89E193E09F878E8723
:1024D0004CE4C42ED12CCA0CDB1C2FE230E0A20E3F
:1024E000B31EF601B182A08221ED3FEFA20EB31E12
:1024F000F40180818F3209F079C0C4016FE270E08D
:10250000D2DB7C010894E11CF11C3E010894611CA3
:10251000711C260130E1232E312C2C0E3D1E61C092
:10252000C7016FE270E0BFDB6C01009709F46CC07B
:10253000E816F90608F068C08C010E191F09C301DE
:10254000B701A801D0DB060D171DF80110828FE23C
:1025500090E1B3016ADE8FE290E16AE06EDEF201A3
:10256000608171816115710519F460E070E002C04D
:102570006E5F7F4FC101A30121E00E94C7658823E0
:1025800029F5EAE8F1E064917F0108C08FE290E16B
:1025900054DE0894E11CF11CF70164916623B1F745
:1025A0008FE290E1BE016F5F7F4F3FDEE8E8F1E030
:1025B00064917F0108C08FE290E13FDE0894E11C46
:1025C000F11CF70164916623B1F778C02EE030E08A
:1025D0002C0F3D1FF2013183208376010894E11C0A
:1025E000F11CE114F10409F09BCF0BC08EE490E0E4
:1025F000A80EB91EF601B182A08222EB3FEFA20E17
:10260000B31ED82C092D02C0DE2C0F2D8CE490E0D7
:10261000A80EB91EF5018081918124EB3FEFA20E37
:10262000B31E009719F480E090E001C002966D2D72
:10263000702F0E9493668823F1F0EAE7F1E064913D
:102640007F0108C08FE290E1F8DD0894E11CF11CE5
:10265000F70164916623B1F78FE290E16D2D702F41
:10266000E4DD29E632E0A20EB31EF50110821182EC
:102670001282138227C0E2E6F1E064917F0108C074
:102680008FE290E1DADD0894E11CF11CF70164911E
:102690006623B1F78FE290E16D2D702FC6DDE0E685
:1026A000F1E064917F0108C08FE290E1C6DD0894FB
:1026B000E11CF11CF70164916623B1F78FE290E110
:1026C0006AE0BBDDCE010E96E0DDAA960FB6F89467
:1026D000DEBF0FBECDBFCF91DF911F910F91FF9055
:1026E000EF90DF90CF90BF90AF909F908F907F90B2
:1026F0006F905F904F903F902F900895BF92CF9230
:10270000DF92EF92FF920F931F93CF93DF938C0191
:10271000EB018FE28993EE24E394FF246DE8C62E4B
:1027200061E0D62EC00ED11E5DE1B52E14C0FB9C1B
:10273000C001112483599F4F800F911FBE010E9439
:10274000EA5E02C02196E3948881882319F08CE820
:102750008E15C0F7F3942F2D30E0F6018081918122
:102760002817390720F3E7FC07C0C8018C549E4F97
:10277000BE010E94EA5E01C01882DF91CF911F91D5
:102780000F91FF90EF90DF90CF90BF9008952F9220
:102790003F924F925F926F927F928F929F92AF92F1
:1027A000BF92CF92DF92EF92FF920F931F93DF932E
:1027B000CF93CDB7DEB7AB970FB6F894DEBF0FBEA1
:1027C000CDBF5C014B014BA7DC0113968C91882394
:1027D00009F4D3C2E7EBF1E0AE0EBF1ED5018C9138
:1027E000E9E4FEEFAE0EBF1E882309F4F5C02223F4
:1027F00009F0C6C02FEC31E0A20EB31ED5018C91BA
:10280000E1E3FEEFAE0EBF1E882369F1EFE1F1E0D8
:1028100064917F0108C08FE290E10FDD0894E11C14
:10282000F11CF70164916623B1F7E2E6F2E06491EE
:102830007F0108C08FE290E100DD0894E11CF11CEB
:10284000F70164916623B1F78FE290E141E050E037
:1028500060E070E00E94C0868FE290E16AE0EDDC0B
:102860000E940C268AC2EFEEF0E064917F0108C05E
:102870008FE290E1E2DC0894E11CF11CF701649125
:102880006623B1F7E9E4F2E064917F0108C08FE2CA
:1028900090E1D3DC0894E11CF11CF70164916623FC
:1028A000B1F78FE290E1B401C0DCEEE3F2E06491B5
:1028B0007F0108C08FE290E1C0DC0894E11CF11CAC
:1028C000F70164916623B1F7850101531E4FD801CA
:1028D0006C918DE8F82E6F9DB00111246C527E4FE3
:1028E0006A0D7B1DC5010ADFF80160816F9DB00193
:1028F00011246C527E4F6A0D7B1D8FE290E195DCB6
:10290000E8E3F2E064917F0108C08FE290E195DC9A
:102910000894E11CF11CF70164916623B1F7B9E654
:10292000EB2EB2E0FB2EEA0CFB1CD7014D915D9122
:102930006D917C918FE290E12AE000E00E94358663
:102940008FE290E16AE079DCA50141535E4FFA0124
:102950002081E22FF0E0EC58FF4FEE0FFF1FEE0F4B
:10296000FF1FEA0DFB1DD701CD90DD90ED90FC908F
:10297000C082D182E282F3822F5FFA01208326C0D7
:10298000EFEEF0E064917F0108C08FE290E155DC4A
:102990000894E11CF11CF70164916623B1F7E7E2AA
:1029A000F2E064917F0108C08FE290E146DC089478
:1029B000E11CF11CF70164916623B1F78FE290E10D
:1029C000B40133DC8FE290E16AE037DCC5018C545E
:1029D0009E4F0E94DA5E30C02FEC31E0A20EB31E93
:1029E000D5011C92E1E3FEEFAE0EBF1EEFEEF0E06C
:1029F00064917F0108C08FE290E11FDC0894E11C24
:102A0000F11CF70164916623B1F7E6E1F2E064910D
:102A10007F0108C08FE290E110DC0894E11CF11CFA
:102A2000F70164916623B1F78FE290E1B401FDDB19
:102A30008FE290E16AE001DCD50112961C92188ABF
:102A40001B8A89E193E09F878E87ECE4CE2ED12C00
:102A5000CA0CDB1CEFE2F0E0AE0EBF1ED601AD9259
:102A6000BC92E1EDFFEFAE0EBF1ED4018C918F3210
:102A700009F079C0C4016FE270E015D97C010894B7
:102A8000E11CF11C3E010894611C711C260170E1DF
:102A9000272E312C2C0E3D1E61C0C7016FE270E065
:102AA00002D96C01009709F46CC0E816F90608F029
:102AB00068C08C010E191F09C301B701A80113D901
:102AC000060D171DF80110828FE290E1B301ADDB16
:102AD0008FE290E16AE0B1DBD2016D917C916115EA
:102AE000710519F460E070E002C06E5F7F4FC101B4
:102AF000A30121E00E94C765882329F5E2E0F2E006
:102B000064917F0108C08FE290E197DB0894E11C9B
:102B1000F11CF70164916623B1F78FE290E1BE01E9
:102B20006F5F7F4F82DBE0E0F2E064917F0108C0DD
:102B30008FE290E182DB0894E11CF11CF7016491C3
:102B40006623B1F713C1EEE0F0E0EC0FFD1FD201F8
:102B5000ED93FC9376010894E11CF11CE114F1045F
:102B600009F09BCF0BC02EE430E0A20EB31ED601BD
:102B7000AD92BC92E2EBFFEFAE0EBF1E082DD92C3A
:102B800002C00E2DDF2CF501E45BFF4F2BA52223A5
:102B900009F49EC0608171816115710519F460E0CE
:102BA00070E002C06E5F7F4FC5018C549E4F402F76
:102BB0005D2D21E00E94C765882309F465C0A50149
:102BC0004F595D4F85EC91E0A80EB91EF50180814B
:102BD0009181A281B3812BE33EEFA20EB31EFA01D5
:102BE00080839183A283B383E2EFF1E064917F015C
:102BF00008C08FE290E121DB0894E11CF11CF70191
:102C000064916623B1F78FE290E1602F7D2D0DDB9B
:102C1000EAEEF1E064917F0108C08FE290E10DDB04
:102C20000894E11CF11CF70164916623B1F721E6D9
:102C300032E0A20EB31ED5014D915D916D917C9154
:102C40008FE290E12AE000E00E9435868FE290E179
:102C50006AE0F3DAE8E0F0E0AE0EBF1ED5011D92A7
:102C60001D921D921C921397ECEDF1E064917F018F
:102C700008C08FE290E1E1DA0894E11CF11CF70151
:102C800064916623B1F772C0E8ECF1E064917F01D2
:102C900008C08FE290E1D1DA0894E11CF11CF70141
:102CA00064916623B1F78FE290E1602F7D2DBDDA4C
:102CB000E6ECF1E064917F0108C08FE290E1BDDABB
:102CC0000894E11CF11CF70164916623B1F74EC032
:102CD000608171816115710519F460E070E002C0D6
:102CE0006E5F7F4FC5018C549E4F402F5D2D26E5B2
:102CF0000E94C765882321F5E2EBF1E064917F0132
:102D000008C08FE290E199DA0894E11CF11CF70108
:102D100064916623B1F78FE290E1602F7D2D85DA13
:102D2000E0EBF1E064917F0108C08FE290E185DA89
:102D30000894E11CF11CF70164916623B1F716C0F9
:102D400081E0D5018C93EEE9F1E064917F0108C048
:102D50008FE290E172DA0894E11CF11CF7016491B2
:102D60006623B1F78FE290E1B4015FDA8FE290E180
:102D70006AE063DACE010E9688DAAB960FB6F89465
:102D8000DEBF0FBECDBFCF91DF911F910F91FF909E
:102D9000EF90DF90CF90BF90AF909F908F907F90FB
:102DA0006F905F904F903F902F900895EF92FF9219
:102DB0000F931F93CF93DF93EC010E94656C8E01FC
:102DC00001531E4FD8018C9134EBE32E31E0F32EEA
:102DD000EC0EFD1E882399F1C7010E94DA5EF8010E
:102DE0006081615060838DE8689FB00111246C524E
:102DF0007E4F6C0F7D1FCE0141E021E0C8DCD80181
:102E0000EC91F0E0EC58FF4FEE0FFF1FEE0FFF1FAD
:102E1000EC0FFD1F4081518162817381C759DD4FE5
:102E2000488359836A837B83C956D240C7010E9475
:102E3000C15D8B81882389F181E08A832EC00E9445
:102E4000426CC7010E94DA5E1A8283EE90E00E9413
:102E50004D4380912508882301F110922508809127
:102E6000DD05C82FD0E0CC0FDD1FCB59D04F6881D6
:102E70007981882777FD8095982F0E94E18A20919B
:102E8000790230917A0240917B0250917C020E943B
:102E90004D8C181614F419821882DF91CF911F916E
:102EA0000F91FF90EF900895FC0181E08183CF01A5
:102EB00040E021E06CCCEF92FF920F931F93CF93F1
:102EC000DF937C01FC01138284A9882321F0C701D0
:102ED000C1960E94DA5E870101571E4FC80160E06B
:102EE0004AE10E94825C8823D9F4EFEEF0E064911D
:102EF000EF0106C08FE290E1A0D92196FE01649116
:102F00006623C1F7E3EDF2E06491EF0106C08FE2C2
:102F100090E193D92196FE0164916623C1F76BC0BD
:102F2000E701CC56DE4FCE01B80141E00E94516767
:102F3000882311F5CE01B80140E00E945167882333
:102F4000D9F4EFE1F1E06491EF0106C08FE290E186
:102F500074D92196FE0164916623C1F7E0ECF2E09A
:102F60006491EF0106C08FE290E167D92196FE01DE
:102F700064916623C1F73FC0C701C196BE010E949C
:102F8000CC618823D9F4EFE1F1E06491EF0106C050
:102F90008FE290E152D92196FE0164916623C1F738
:102FA000E0EBF2E06491EF0106C08FE290E145D9D9
:102FB0002196FE0164916623C1F71DC081E0F701EF
:102FC0008383EFEEF0E06491EF0106C08FE290E1C1
:102FD00034D92196FE0164916623C1F7E5EAF2E057
:102FE0006491EF0106C08FE290E127D92196FE019E
:102FF00064916623C1F78FE290E16AE01ED9D701A0
:10300000A05BBF4FF701F1968BE101900D928150CB
:10301000E1F7C7018F962CE430E0E20EF31EF701D2
:1030200091838083DF91CF911F910F91FF90EF905B
:1030300008952F923F924F925F926F927F929F924C
:10304000AF92BF92CF92DF92EF92FF920F931F93B6
:10305000DF93CF93CDB7DEB7CC55D0400FB6F89401
:10306000DEBF0FBECDBF8C01662319F503591D4F7E
:10307000D8018C910D561240882309F4E6C00FB692
:10308000F8942091261030912710409128105091EB
:1030900029100FBE0B591D4FF80180819181A2812B
:1030A000B3810556124082179307A407B50708F4A9
:1030B000CCC003591D4FD8011C920D561240F80187
:1030C0008381882341F4C801F6DED80113968C91E0
:1030D000882309F4BAC000D000D000D0EDB7FEB705
:1030E00031966E010894C11CD11CADB7BEB71296C3
:1030F000DC92CE92119786E191E093838283D8018E
:103100009D968D919C919E97958384830E94820EBB
:103110007601EDB7FEB736960FB6F894FEBF0FBE38
:10312000EDBF56010AC0D7018C91992787FD909574
:103130000E94828EF70181937F01F50101900020AA
:10314000E9F73197EA19FB098E2D8C198E175CF37C
:1031500071E3A72EB12CA00EB11EC50140E050E0D6
:1031600060E070E00E94C15D99246DE3C62ED12C11
:10317000CC0EDD1E2E010894411C511C5FE1652E12
:10318000712C6C0E7D1E4FE0242E41E0342E43C086
:10319000D7018C9190E00E94828EF70181937F018C
:1031A000D6010D900020E9F71197AC19BD098E2DBD
:1031B0008C198A176CF327968FAD27978E3759F1A4
:1031C000C601B20145E050E00E94650E009719F576
:1031D00000D000D000D0EDB7FEB73196ADB7BEB786
:1031E00012967C926E92119733822282558244828B
:1031F0000E94820EEDB7FEB736960FB6F894FEBF6A
:103200000FBEEDBFC3010E94C4438BE091E00E945A
:103210004D4399249394C501B60140E050E00E94CB
:10322000EB60181614F47601BBCF992041F48FEFB0
:103230009FEFD8019E969C938E939D9706C0F801B0
:1032400085A596A5019696A785A7C45ADF4F0FB608
:10325000F894DEBF0FBECDBFCF91DF911F910F91CC
:10326000FF90EF90DF90CF90BF90AF909F907F90B6
:103270006F905F904F903F902F9008952F923F92C4
:103280004F925F926F927F928F929F92AF92BF9276
:10329000CF92DF92EF92FF920F931F93DF93CF9322
:1032A000CDB7DEB7CB58D0400FB6F894DEBF0FBE17
:1032B000CDBF7C012B015A0182E090E0A80EB91E1F
:1032C000F7017196CB57DF4FF983E883C558D0409B
:1032D000C7010496CE57DF4F99838883C258D040E8
:1032E000CC57DF4F1882C458D040B2E6CB2ED12C39
:1032F000CC0EDD1EF6013B96C957DF4FF983E883FC
:10330000C758D040AEE66A2EA2E07A2E6E0C7F1C23
:10331000F0E78F2EF2E09F2E8E0C9F1CEEE02E2EFB
:10332000312C2C0E3D1E85E490E08C0F9D1F0296E3
:10333000C757DF4F99838883C958D040EFEEF0E03C
:103340009491C557DF4F9883CB58D0402BC1F601DD
:103350008385482F50E0BA01687170706031710543
:1033600009F02EC1F301208131812130310509F4AA
:1033700027C12230310509F423C1F601DE0111967F
:103380009081903239F08E2F8C19883011F48EE2B2
:103390008D939D933196C957DF4F88819981C75886
:1033A000D040E817F90761F71C921E86F201808170
:1033B000882329F4C10160E071E00E94480EC10138
:1033C000B2010E94480EC101BE016F5F7F4F0E9493
:1033D000480EC10160E071E00E94480E1AA61DA6C9
:1033E00089E193E099A788A7CE018A96B501AE013D
:1033F0004F5F5F4F21E00E94C765882371F5F3019D
:1034000080819181892B49F5C557DF4F6881CB5861
:10341000D0400FEE10E008C08FE290E10E941D1135
:103420000F5F1F4FF80164916623B1F78FE290E1BF
:1034300062E071E00E9415118FE290E16AE00E9463
:103440001D118FE290E1BE016F5F7F4F0E94151149
:103450008FE290E16AE00E941D11C757DF4FA881FB
:10346000B981C958D040FE01BA968BE101900D9206
:103470008150E1F789E193E027969FAF8EAF2797C0
:10348000C701B101AE014B5B5F4FF8DECE018B5B34
:103490009F4F0E944511CE0188960E94451182C01F
:1034A000953E09F47FC09E3209F47CC09F3509F433
:1034B00079C0F7019189992331F09E3209F472C0E5
:1034C0009F3509F46FC043FD6DC080E06031710528
:1034D00009F481E0F70184A7882349F4F601808587
:1034E000873409F05FC081858E3709F45BC0CE5701
:1034F000DF4FA881B981C258D040F6018081803267
:1035000041F08E2F8C19883011F48EE28D938081DA
:103510008D933196C957DF4F88819981C758D04024
:10352000E817F90759F71C92F30180819181009700
:10353000A9F48FE290E1B2010E9415118FE290E1AF
:10354000CE57DF4F68817981C258D0400E94151153
:103550008FE290E16AE00E941D1124C08130910544
:1035600039F4F401808191810196918380831AC09E
:103570000297C1F4CC57DF4FF881C458D0402F2FA9
:1035800030E0F4018081918128173907F1F0CC57A0
:10359000DF4FF881C458D040FF5FCC57DF4FF8832E
:1035A000C458D040C501B601CB57DF4F488159817F
:1035B000C558D0400E94EB6018160CF4C8CE05C068
:1035C000F6019081992309F06BCFC557DF4F0FB6F5
:1035D000F894DEBF0FBECDBFCF91DF911F910F9149
:1035E000FF90EF90DF90CF90BF90AF909F908F9023
:1035F0007F906F905F904F903F902F900895EF9243
:10360000FF920F931F93DF93CF93CDB7DEB76D97E4
:103610000FB6F894DEBF0FBECDBF7C018EE692E000
:10362000E80EF91EF7011182108282E99DEFE80E83
:10363000F91E87010F5C1F4FC80140E050E060E0B9
:1036400070E00E94C15DDE011396F8018BE10190EC
:103650000D928150E1F789E193E09A838983C70154
:1036600065E171E08E010F5F1F4FA80107DEC80101
:103670000E9445116D960FB6F894DEBF0FBECDBF08
:10368000CF91DF911F910F91FF90EF900895CF930D
:10369000DF93FC0111AA14AA89E193E090AB87A7FC
:1036A000E05BFF4F108233961082359791838083C1
:1036B000EE54F040EF01C559DF4FDE0120E030E06D
:1036C000482F12961C92129715961C9215974C93A0
:1036D00011969C931197235E3F4F5D9681E02232B5
:1036E000380779F7E057FE4F89E1808333961082DF
:1036F00078961082399610823396108235974083DF
:103700009183E155FF4F1082118212821382389605
:103710001082118212821382E956F24012821382C1
:1037200010821182E357FE4F11821082EE5BFF4F31
:103730001082DE01C9011D920197E9F7E256FF4FA1
:1037400081E08083ED56F24016A615A60FB6F894D8
:103750008091261090912710A0912810B0912910E7
:103760000FBE88579C4EAF4FBF4FEB59FD4F808324
:103770009183A283B383DF91CF9108950F931F9319
:10378000DF93CF93CDB7DEB766970FB6F894DEBF61
:103790000FBECDBF8091160190911701A091180125
:1037A000B09119018F87988BA98BBA8BFE013F9638
:1037B00044E650E08081F999FECF1FBA52BD41BD69
:1037C00080BD0FB6F894FA9AF99A0FBE4F5F5F4F1B
:1037D0004836510511F03196EDCFE9ECF7E08081E4
:1037E000F999FECF1FBA52BD41BD80BD0FB6F89406
:1037F000FA9AF99A0FBE4F5F5F4F4837510511F0A3
:103800003196EDCFE9EBF7E08081F999FECF1FBA51
:1038100052BD41BD80BD0FB6F894FA9AF99A0FBE19
:103820004F5F5F4F4838510511F03196EDCFE9ED0C
:10383000F7E08081F999FECF1FBA52BD41BD80BD2E
:103840000FB6F894FA9AF99A0FBE4F5F5F4F483956
:10385000510511F03196EDCFEDEEF7E08081F99949
:10386000FECF1FBA52BD41BD80BD0FB6F894FA9A83
:10387000F99A0FBE4F5F5F4F4C39510511F03196E9
:10388000EDCFE1EFF7E08081F999FECF1FBA52BD8D
:1038900041BD80BD0FB6F894FA9AF99A0FBE4F5FFA
:1038A0005F4F403A510511F03196EDCFE9EEF7E068
:1038B0008081F999FECF1FBA52BD41BD80BD0FB6C0
:1038C000F894FA9AF99A0FBE4F5F5F4F443A510548
:1038D00011F03196EDCFE1E0F8E08081F999FECF6B
:1038E0001FBA52BD41BD80BD0FB6F894FA9AF99A3D
:1038F0000FBE4F5F5F4F483A510511F03196EDCF43
:10390000E5EBF7E08081F999FECF1FBA52BD41BDCA
:1039100080BD0FB6F894FA9AF99A0FBE4F5F5F4FC9
:103920004C3A510511F03196EDCFE5EFF7E080818B
:10393000F999FECF1FBA52BD41BD80BD0FB6F894B4
:10394000FA9AF99A0FBE4F5F5F4F403B510511F055
:103950003196EDCFE9EFF7E08081F999FECF1FBAFC
:1039600052BD41BD80BD0FB6F894FA9AF99A0FBEC8
:103970004F5F5F4F443B510511F03196EDCFEDEFB6
:10398000F7E08081F999FECF1FBA52BD41BD80BDDD
:103990000FB6F894FA9AF99A0FBE4F5F5F4F483B03
:1039A000510511F03196EDCFEEEBF5E08081F999FC
:1039B000FECF1FBA52BD41BD80BD0FB6F894FA9A32
:1039C000F99A0FBE4F5F5F4F443C510511F031969D
:1039D000EDCF84EB90E09A83898386E490E09C832A
:1039E0008B832FEF30E03E832D8380EF90E098872C
:1039F0008F8384E690E09A8789873C872B87FE0136
:103A000031968081F999FECF1FBA52BD41BD80BD6C
:103A10000FB6F894FA9AF99A0FBE4F5F5F4F463C83
:103A2000510571F7FE0133968081F999FECF1FBAD7
:103A300052BD41BD80BD0FB6F894FA9AF99A0FBEF7
:103A40004F5F5F4F483C510511F03196EDCFFE01BD
:103A500035968081F999FECF1FBA52BD41BD80BD18
:103A60000FB6F894FA9AF99A0FBE4F5F5F4F4A3C2F
:103A7000510511F03196EDCFFE0137968081F9990D
:103A8000FECF1FBA52BD41BD80BD0FB6F894FA9A61
:103A9000F99A0FBE4F5F5F4F4C3C510511F03196C4
:103AA000EDCFFE0139968081F999FECF1FBA52BD44
:103AB00041BD80BD0FB6F894FA9AF99A0FBE4F5FD8
:103AC0005F4F4E3C510511F03196EDCFFE013B9614
:103AD0008081F999FECF1FBA52BD41BD80BD0FB69E
:103AE000F894FA9AF99A0FBE4F5F5F4F403D510527
:103AF00011F03196EDCFE9EDF5E08081F999FECF37
:103B00001FBA52BD41BD80BD0FB6F894FA9AF99A1A
:103B10000FBE4F5F5F4F443D510511F03196EDCF21
:103B2000EAE8F2E08081F999FECF1FBA52BD41BDAB
:103B300080BD0FB6F894FA9AF99A0FBE4F5F5F4FA7
:103B4000483D510511F03196EDCFEEE8F2E080816D
:103B5000F999FECF1FBA52BD41BD80BD0FB6F89492
:103B6000FA9AF99A0FBE4F5F5F4F4C3D510511F025
:103B70003196EDCFE2E9F2E08081F999FECF1FBAEC
:103B800052BD41BD80BD0FB6F894FA9AF99A0FBEA6
:103B90004F5F5F4F403E510511F03196EDCF80E20F
:103BA00090E09E878D87FE013D968081F999FECF3A
:103BB0001FBA52BD41BD80BD0FB6F894FA9AF99A6A
:103BC0000FBE413E510521F0319641EE50E0EDCF60
:103BD00080911A0190911B01A0911C01B0911D01CF
:103BE0008B8B9C8BAD8BBE8BFE01739684E690E035
:103BF0002081F999FECF1FBA92BD81BD20BD0FB6BD
:103C0000F894FA9AF99A0FBE8736910519F0019641
:103C10003196EECFE0EEF2E064918F0108C08FE2C2
:103C200090E10E941D110F5F1F4FF8016491662300
:103C3000B1F7EAEEF4E064918F0108C08FE290E101
:103C40000E941D110F5F1F4FF80164916623B1F7A9
:103C50008FE290E16AE00E941D1166960FB6F8941B
:103C6000DEBF0FBECDBFCF91DF911F910F910895A1
:103C70000F931F93DF93CF93CDB7DEB7E0970FB6C7
:103C8000F894DEBF0FBECDBFDE011196E9ECF2E085
:103C900080E101900D928150E1F7DE015196E9EB50
:103CA000F2E080E101900D928150E1F7DE01919602
:103CB000E9EAF2E080E101900D928150E1F789811B
:103CC0009A81AB81BC818093C9079093CA07A09366
:103CD000CB07B093CC0789899A89AB89BC8980933B
:103CE000B9079093BA07A093BB07B093BC0789A10B
:103CF0009AA1ABA1BCA18093D9079093DA07A093B6
:103D0000DB07B093DC078D819E81AF81B8858093FE
:103D1000CD079093CE07A093CF07B093D0078D899E
:103D20009E89AF89B88D8093BD079093BE07A093FD
:103D3000BF07B093C0078DA19EA1AFA1B8A5809386
:103D4000DD079093DE07A093DF07B093E007898536
:103D50009A85AB85BC858093D1079093D207A093B9
:103D6000D307B093D407898D9A8DAB8DBC8D80938A
:103D7000C1079093C207A093C307B093C40789A556
:103D80009AA5ABA5BCA58093E1079093E207A09309
:103D9000E307B093E4078D859E85AF85B88980934E
:103DA000D5079093D607A093D707B093D8078D8DEA
:103DB0009E8DAF8DB8A18093C5079093C607A09341
:103DC000C707B093C8078DA59EA5AFA5B8A98093D6
:103DD000E5079093E607A093E707B093E8070E94F2
:103DE000294980E090E8ABE3B5E48093ED07909338
:103DF000EE07A093EF07B093F0078093F10790933D
:103E0000F207A093F307B093F40720E030E040E01E
:103E100050E02093E9073093EA074093EB07509373
:103E2000EC0780E29EE4A0E0B0E08093B5079093B9
:103E3000B607A093B707B093B80720930108309353
:103E40000208409303085093040880E090E0A0EA41
:103E5000B1E48093F5079093F607A093F707B0932A
:103E6000F8078DEC9CECACECBEE38093F9079093E3
:103E7000FA07A093FB07B093FC0780E090E0A0EA6C
:103E8000B0E48093FD079093FE07A093FF07B093E3
:103E900000082093C6053093C7054093C80550938A
:103EA000C9052093C2053093C3054093C4055093C0
:103EB000C5052093BE053093BF054093C0055093C0
:103EC000C1058AE999E9A1EBB1E480938A02909354
:103ED0008B02A0938C02B0938D0261E77DE38AE8A8
:103EE0009FE30E946B7460938E0270938F028093A5
:103EF00090029093910260E070E084EE92E40E9460
:103F000077746093920270939302809394029093DB
:103F100095020E94897380E090E0A0E8BFE380935F
:103F2000960290939702A0939802B0939902E0EEC4
:103F3000F2E064918F0108C08FE290E10E941D11B0
:103F40000F5F1F4FF80164916623B1F7E6EEF2E0D0
:103F500064918F0108C08FE290E10E941D110F5FF4
:103F60001F4FF80164916623B1F78FE290E16AE098
:103F70000E941D11E0960FB6F894DEBF0FBECDBFB4
:103F8000CF91DF911F910F9108950F931F93CF93BE
:103F9000DF9300EE12E0F8016491E80107C08FE2C0
:103FA00090E10E941D112196FE0164916623B9F7EC
:103FB000EAEDF4E06491EF0107C08FE290E10E9426
:103FC0001D112196FE0164916623B9F78FE290E1FD
:103FD0006AE00E941D11F8016491C0EED2E007C0B2
:103FE0008FE290E10E941D112196FE0164916623EB
:103FF000B9F74091C9075091CA076091CB077091FA
:10400000CC0782ED94E00E943D2A4091CD0750916B
:10401000CE076091CF077091D0078FEC94E00E949B
:104020003D2A4091D1075091D2076091D3077091FA
:10403000D4078CEC94E00E943D2A4091D507509122
:10404000D6076091D7077091D80789EC94E00E9459
:104050003D2AE0912F10F09130100280F381E02D85
:104060008FE290E16EE171E009958FE290E16AE004
:104070000E941D11F8016491C0EED2E007C08FE2EA
:1040800090E10E941D112196FE0164916623B9F70B
:10409000EFEAF4E06491EF0107C08FE290E10E9443
:1040A0001D112196FE0164916623B9F78FE290E11C
:1040B0006AE00E941D11F8016491C0EED2E007C0D1
:1040C0008FE290E10E941D112196FE01649166230A
:1040D000B9F74091B9075091BA076091BB07709149
:1040E000BC0786EA94E00E943D2A4091BD075091AA
:1040F000BE076091BF077091C00783EA94E00E94F9
:104100003D2A4091C1075091C2076091C307709149
:10411000C40780EA94E00E943D2A4091C50750916F
:10412000C6076091C7077091C8078DE994E00E94A7
:104130003D2AE0912F10F09130100280F381E02DA4
:104140008FE290E16EE171E009958FE290E16AE023
:104150000E941D11F8016491C0EED2E007C08FE209
:1041600090E10E941D112196FE0164916623B9F72A
:10417000EFE7F4E06491EF0107C08FE290E10E9465
:104180001D112196FE0164916623B9F78FE290E13B
:104190006AE00E941D11F8016491C0EED2E007C0F0
:1041A0008FE290E10E941D112196FE016491662329
:1041B000B9F74091D9075091DA076091DB07709108
:1041C000DC0786E794E00E94192A4091DD075091B0
:1041D000DE076091DF077091E00783E794E00E94BB
:1041E000192A4091E1075091E2076091E30770912D
:1041F000E40780E794E00E94192A4091E507509176
:10420000E6076091E7077091E8078DE694E00E9469
:10421000192AE0912F10F09130100280F381E02DE7
:104220008FE290E16EE171E009958FE290E16AE042
:104230000E941D11F8016491C0EED2E007C08FE228
:1042400090E10E941D112196FE0164916623B9F749
:10425000E8E3F4E06491EF0107C08FE290E10E948F
:104260001D112196FE0164916623B9F78FE290E15A
:104270006AE00E941D11F8016491C0EED2E007C00F
:104280008FE290E10E941D112196FE016491662348
:10429000B9F74091ED075091EE076091EF077091EB
:1042A000F0078FE294E00E943D2A4091F10750917F
:1042B000F2076091F3077091F4078CE294E00E949A
:1042C0003D2AE0912F10F09130100280F381E02D13
:1042D0008FE290E16EE171E009958FE290E16AE092
:1042E0000E941D11F8016491C0EED2E007C08FE278
:1042F00090E10E941D112196FE0164916623B9F799
:10430000E9E7F3E06491EF0107C08FE290E10E94DA
:104310001D112196FE0164916623B9F78FE290E1A9
:104320006AE00E941D11F8016491C0EED2E007C05E
:104330008FE290E10E941D112196FE016491662397
:10434000B9F74091E9075091EA076091EB07709146
:10435000EC0780E793E00E943D2A409101085091CC
:10436000020860910308709104088DE693E00E94B2
:104370003D2A4091B5075091B6076091B7077091FB
:10438000B8078AE693E00E94192A4091F5075091F8
:10439000F6076091F7077091F80787E693E00E94AF
:1043A0003D2A4091F9075091FA076091FB077091FF
:1043B000FC0784E693E00E943D2A4091FD0750915E
:1043C000FE076091FF077091000881E693E00E946C
:1043D0003D2AE0912F10F09130100280F381E02D02
:1043E0008FE290E16EE171E009958FE290E16AE081
:1043F0000E941D11F8016491C0EED2E007C08FE267
:1044000090E10E941D112196FE0164916623B9F787
:10441000EFE4F3E06491EF0107C08FE290E10E94C6
:104420001D112196FE0164916623B9F78FE290E198
:104430006AE00E941D11F8016491C0EED2E007C04D
:104440008FE290E10E941D112196FE016491662386
:10445000B9F74091BE055091BF056091C0057091BC
:10446000C10586E493E00E943D2A4091C205509127
:10447000C3056091C4057091C50583E493E0FDD741
:104480004091C6055091C7056091C8057091C90556
:1044900080E493E0F2D7E0912F10F0913010028089
:1044A000F381E02D8FE290E16EE171E009958FE2FA
:1044B00090E16AE00E941D11F8016491C0EED2E023
:1044C00007C08FE290E10E941D112196FE016491C8
:1044D0006623B9F7E2E3F3E06491EF0107C08FE2EE
:1044E00090E10E941D112196FE0164916623B9F7A7
:1044F0008FE290E16AE00E941D11F8016491C0EE24
:10450000D2E007C08FE290E10E941D112196FE01CA
:1045100064916623B9F740918A0250918B026091B1
:104520008C0270918D0288E293E0A7D760918E0291
:1045300070918F0280919002909191020E9471740B
:10454000AB01BC0185E293E098D760919202709133
:10455000930280919402909195020E947D74AB0128
:10456000BC0182E293E089D7E0912F10F0913010E6
:104570000280F381E02D8FE290E16EE171E0099518
:104580008FE290E16AE00E941D11DF91CF911F91AF
:104590000F9108950F931F93DF93CF93CDB7DEB79D
:1045A00066970FB6F894DEBF0FBECDBF80911A019B
:1045B00090911B01A0911C01B0911D018B8B9C8BD4
:1045C000AD8BBE8BFE013F9604E610E0F999FECF5D
:1045D00012BD01BDF89A80B580830F5F1F4F08366A
:1045E000110511F03196F2CFCE014396BE01615F05
:1045F0007F4F43E050E00E94650E009709F096C19E
:10460000E9ECF7E0F999FECF12BD01BDF89A80B54B
:1046100080830F5F1F4F0837110511F03196F2CFDD
:10462000E9EBF7E0F999FECF12BD01BDF89A80B52C
:1046300080830F5F1F4F0838110511F03196F2CFBC
:10464000E9EDF7E0F999FECF12BD01BDF89A80B50A
:1046500080830F5F1F4F0839110511F03196F2CF9B
:104660000E942949EDEEF7E0F999FECF12BD01BD98
:10467000F89A80B580830F5F1F4F0C39110511F038
:104680003196F2CFE1EFF7E0F999FECF12BD01BD0F
:10469000F89A80B580830F5F1F4F003A110511F023
:1046A0003196F2CFE9EEF7E0F999FECF12BD01BDE8
:1046B000F89A80B580830F5F1F4F043A110511F0FF
:1046C0003196F2CFE1E0F8E0F999FECF12BD01BDDD
:1046D000F89A80B580830F5F1F4F083A110511F0DB
:1046E0003196F2CFE5EBF7E0F999FECF12BD01BDAF
:1046F000F89A80B580830F5F1F4F0C3A110511F0B7
:104700003196F2CFE5EFF7E0F999FECF12BD01BD8A
:10471000F89A80B580830F5F1F4F003B110511F0A1
:104720003196F2CFE9EFF7E0F999FECF12BD01BD66
:10473000F89A80B580830F5F1F4F043B110511F07D
:104740003196F2CFEDEFF7E0F999FECF12BD01BD42
:10475000F89A80B580830F5F1F4F083B110511F059
:104760003196F2CFEEEBF5E0F999FECF12BD01BD27
:10477000F89A80B580830F5F1F4F043C110511F03C
:104780003196F2CFFE013196F999FECF12BD01BDEF
:10479000F89A80B580830F5F1F4F063C110599F78B
:1047A000FE013396F999FECF12BD01BDF89A80B58E
:1047B00080830F5F1F4F083C110511F03196F2CF37
:1047C000FE013596F999FECF12BD01BDF89A80B56C
:1047D00080830F5F1F4F0A3C110511F03196F2CF15
:1047E000FE013796F999FECF12BD01BDF89A80B54A
:1047F00080830F5F1F4F0C3C110511F03196F2CFF3
:10480000FE013996F999FECF12BD01BDF89A80B527
:1048100080830F5F1F4F0E3C110511F03196F2CFD0
:10482000FE013B96F999FECF12BD01BDF89A80B505
:1048300080830F5F1F4F003D110511F03196F2CFBD
:10484000E9EDF5E0F999FECF12BD01BDF89A80B50A
:1048500080830F5F1F4F043D110511F03196F2CF99
:10486000EAE8F2E0F999FECF12BD01BDF89A80B5F1
:1048700080830F5F1F4F083D110511F03196F2CF75
:10488000EEE8F2E0F999FECF12BD01BDF89A80B5CD
:1048900080830F5F1F4F0C3D110511F03196F2CF51
:1048A000E2E9F2E0F999FECF12BD01BDF89A80B5B8
:1048B00080830F5F1F4F003E110511F03196F2CF3C
:1048C000FE013D96F999FECF12BD01BDF89A80B563
:1048D0008083013E110521F0319601EE10E0F2CF08
:1048E0000E948973E0EEF2E064918F0108C08FE2CC
:1048F00090E10E941D110F5F1F4FF8016491662324
:10490000B1F7E8E0F3E064918F0108C08FE290E135
:104910000E941D110F5F1F4FF80164916623B1F7CC
:104920008FE290E16AE00E941D1101C0A1D92DDB48
:1049300066960FB6F894DEBF0FBECDBFCF91DF9164
:104940001F910F910895CF93DF930FB6F894809144
:10495000261090912710A0912810B09129100FBE19
:104960008093F3059093F405A093F505B093F605B5
:10497000E0911C06F0911D06E25EF94F80818823CC
:1049800099F4ECE9F5E06491EF0107C08FE290E162
:104990000E941D112196FE0164916623B9F78FE2F2
:1049A00090E16AE00E941D11DF91CF910895EF928E
:1049B000FF920F931F93CF93DF93EC01E090CA0512
:1049C000F090CB050091CC051091CD0568817981DF
:1049D0008A819B81A80197010E943F8A882324F441
:1049E000E882F9820A831B83E090CE05F090CF0520
:1049F0000091D0051091D1056C817D818E819F81C0
:104A0000A80197010E943F8A882324F4EC82FD824A
:104A10000E831F83E090D205F090D3050091D4055A
:104A20001091D505688579858A859B85A8019701B0
:104A30000E943F8A882324F4E886F9860A871B8728
:104A4000E0905F02F09060020091610210916202BA
:104A5000688179818A819B81A80197010E944D8C90
:104A6000181624F4E882F9820A831B83E09063021B
:104A7000F090640200916502109166026C817D8164
:104A80008E819F81A80197010E944D8C181624F4F5
:104A9000EC82FD820E831F83E0906702F090680233
:104AA0000091690210916A02688579858A859B85E3
:104AB000A80197010E944D8C181624F4E886F98607
:104AC0000A871B87DF91CF911F910F91FF90EF9085
:104AD00008958091E80508950F931F93CF93DF9376
:104AE0008130910549F46F5F7F4F09F046C084E340
:104AF00093E00E94471B41C0892B09F03EC06F5FC5
:104B00007F4FD9F589E193E09093E7048093E60421
:104B10008091EB04882321F088EE94E00E94DA5E15
:104B2000C4EAD4E009E113E005C06D9783E0C23820
:104B3000D80751F0198308838D818823B1F3CE0102
:104B400002960E94DA5EF1CF89E193E0998388832F
:104B50008D81882321F0CE0102960E94DA5E89E1E0
:104B600093E09093640380936303809168038823A8
:104B700021F085E693E00E94DA5EDF91CF911F91EC
:104B80000F91089580E090E06FEF7FEFA5CF81E077
:104B900090E06FEF7FEFA0CFCF93DF930E945C7424
:104BA0008091E805882309F034C081E08093E8050E
:104BB0008091EB059091EC05A091ED05B091EE058B
:104BC0008093EF059093F005A093F105B093F20563
:104BD000E0E0F5E06491EF0107C08FE290E10E9410
:104BE0001D112196FE0164916623B9F7E7E0F5E017
:104BF0006491EF0107C08FE290E10E941D112196A0
:104C0000FE0164916623B9F78FE290E16AE00E94A9
:104C10001D11DF91CF910895CF93DF93F8940E94F7
:104C20005C74779A1092D605769A1092D705479AB7
:104C30001092D805439AE0E0F5E06491EF0107C0D7
:104C40008FE290E10E941D112196FE01649166237E
:104C5000B9F7EDE7F5E06491EF0107C08FE290E16D
:104C60000E941D112196FE0164916623B9F78FE21F
:104C700090E16AE00E941D11FFCFEF92FF920F9327
:104C80001F930FB6F8948091261090912710A09151
:104C90002810B09129100FBEE090F705F090F805AC
:104CA0000091F9051091FA052091F3053091F40572
:104CB0004091F5055091F605821B930BA40BB50BA3
:104CC000E816F9060A071B0730F4E114F1040105A0
:104CD000110509F0A1DFE0906C02F0906D020091E7
:104CE0006E0210916F02E114F1040105110561F1EA
:104CF0000FB6F8948091261090912710A09128105B
:104D0000B09129100FBE2091F3053091F405409128
:104D1000F5055091F605821B930BA40BB50BE81615
:104D2000F9060A071B0780F49091F60C8091F70CA6
:104D3000981751F4779A1092D605769A1092D70563
:104D4000479A1092D805439A0E94D6481F910F9116
:104D5000FF90EF9008956F927F928F929F92AF9203
:104D6000BF92CF92DF92EF92FF920F931F93F82E94
:104D70006091FB057091FC058091FD059091FE0509
:104D80002091FF05309100064091010650910206E6
:104D90000E945A8C3B014C0100D000D000D00DB7CE
:104DA0001EB70F5F1F4F60915702709158028827FE
:104DB00077FD8095982F0E94E18A209170023091B2
:104DC000710240917202509173020E941F8D20E087
:104DD00030E040E752E40E94468A20E030E048ECB0
:104DE00052E40E94468A5B016C01F8016082718284
:104DF00082829382F4828091DD0585838EEA95E03C
:104E000067E076E04BEF55E020E001E032E0E32E92
:104E10000E943B448091070690910806A0910906E4
:104E2000B0910A068093AE059093AF05A093B005AC
:104E3000B093B10580910B0690910C06A0910D06E0
:104E4000B0910E068093B2059093B305A093B4057C
:104E5000B093B50580910F0690911006A0911106B0
:104E6000B09112068093B6059093B705A093B8054C
:104E7000B093B9058091130690911406A091150680
:104E8000B09116068093BA059093BB05A093BC051C
:104E9000B093BD050FB6F89480912610909127101D
:104EA000A0912810B09129100FBE8093F305909324
:104EB000F405A093F505B093F6058DB79EB7069659
:104EC0000FB6F8949EBF0FBE8DBF1F910F91FF903C
:104ED000EF90DF90CF90BF90AF909F908F907F909A
:104EE0006F900895CF92DF92EF92FF920F931F93EE
:104EF00087E096E05CDD0FB6F894809126109091E3
:104F00002710A0912810B09129100FBE8093F305AF
:104F10009093F405A093F505B093F6056091AE0566
:104F20007091AF058091B0059091B1052091070671
:104F3000309108064091090650910A060E943F8A66
:104F4000882309F07AC06091B2057091B305809111
:104F5000B4059091B50520910B0630910C06409157
:104F60000D0650910E060E943F8A882309F065C005
:104F7000609170027091710280917202909173023F
:104F800020E030E040E752E40E94468A7B018C0139
:104F900087E096E06BE076E04FE056E023E136E014
:104FA000EDEDCE2EE5E0DE2E0E94524E80910706FA
:104FB00090910806A0910906B0910A068093AE056B
:104FC0009093AF05A093B005B093B10580910B0607
:104FD00090910C06A0910D06B0910E068093B2053B
:104FE0009093B305A093B405B093B50580910F06D7
:104FF00090911006A0911106B09112068093B6050B
:105000009093B705A093B805B093B90580911306A6
:1050100090911406A0911506B09116068093BA05DA
:105020009093BB05A093BC05B093BD051F910F9154
:10503000FF90EF90DF90CF900895609157027091AC
:105040005802882777FD8095982F0E94E18A209149
:1050500070023091710240917202509173020E946D
:105060001F8D20E030E040E752E40E94468A20E0B5
:1050700030E048EC52E488CFCF93DF938FE290E1A9
:105080000E94E787EFE9F5E06491EF0107C08FE246
:1050900090E10E941D112196FE0164916623B9F7EB
:1050A0004091EB055091EC056091ED057091EE0596
:1050B0004F5F5F4F6F4F7F4F8FE290E10E94C0863E
:1050C0008FE290E16AE00E941D113DDCDF91CF91FB
:1050D00008952F923F924F925F926F927F928F929C
:1050E0009F92AF92BF92CF92DF92EF92FF920F9377
:1050F0001F93DF93CF93CDB7DEB728970FB6F89401
:10510000DEBF0FBECDBF98878F838330910508F037
:1051100056C1FC01E45DF84FD4903C01660C771C4D
:10512000660C771C930122553A4F3A83298380E01D
:1051300090E0A0E0B0E0F90180839183A283B38383
:105140008EEA95E062EB75E046EB55E02AEB35E040
:105150000E947149F301E15DF84FE590F5900591EA
:1051600014916D2D772767FD7095882777FD8095C1
:10517000982F0E94E18A1B012C019301295F394F6E
:105180003C832B83C801B70120E030E040EC5FE3B3
:105190000E941F8DA20191010E941F8DAB81BC81D5
:1051A0006D937D938D939C931397F301E95BFD4F72
:1051B000FE83ED83608171818281938160937002AF
:1051C00070937102809372029093730220E030E03A
:1051D00040E752E40E94468A7B018C0187E096E01A
:1051E0006BE076E04FE056E023E136E0ADEDCA2E0D
:1051F000A5E0DA2E0E94524E0E94656C80E090E09D
:10520000A0E0B0E0E981FA8180839183A283B38337
:105210008EEA95E062EB75E046EB55E02AEB35E06F
:105220000E947149F301E55CF84F85909590A59037
:10523000B490C501B4019058A20191010E941F8D44
:10524000AB81BC816D937D938D939C9313976091FB
:10525000700270917102809172029091730220E04D
:1052600030E040E752E40E94468A7B018C0187E0EF
:1052700096E06BE076E04FE056E023E136E00E94F6
:10528000524E0E94656CC501B401A50194010E94B3
:105290006689A20191010E941F8DEB81FC816083D0
:1052A000718382839383AD81BE816D917D918D9158
:1052B0009C9120E030E040E05FE30E941F8D60930E
:1052C000700270937102809372029093730220E0D7
:1052D00030E040E752E40E94468A7B018C0187E07F
:1052E00096E06BE076E04FE056E023E136E00E9486
:1052F000524E0E94656CF301E95BF84F6591759120
:1053000085919491F301E254FA4FA080B180C2805C
:10531000D380A60195010E9466897B018C01CB0197
:10532000D801E981FA8180839183A283B383F30159
:10533000ED5AF84F6591759185919491FAEC8F2E05
:10534000F5E09F2E860C971CA60195010E946689A8
:10535000D4016D937D938D939C931397F301E15A40
:10536000F84F6591759185919491EFE5F2E06E0E9D
:105370007F1EA60195010E946689D3016D937D93DE
:105380008D939C931397C701D801EB81FC81808397
:105390009183A283B38380E090E0A0E0B0E08093AB
:1053A000700290937102A0937202B09373020E94F4
:1053B000836BAF81B885AA52BA4F81E08C9328964F
:1053C0000FB6F894DEBF0FBECDBFCF91DF911F9116
:1053D0000F91FF90EF90DF90CF90BF90AF909F9094
:1053E0008F907F906F905F904F903F902F90089597
:1053F00040911C0650911D0620E630E0B901469F01
:105400009001479F300D569F300D1124682F77274C
:1054100067FD7095C901885D994F0E94530E9C01EC
:10542000909327068093260680E0232B09F081E0E5
:105430000895EF92FF920F931F93CF93DF93EC01A8
:105440007A018B01FC01649107C08FE290E10E9418
:105450001D112196FE0164916623B9F78FE290E158
:10546000B801A7012AE000E00E943586DF91CF91C4
:105470001F910F91FF90EF900895EF92FF920F937D
:105480001F93CF93DF93EC017A018B01FC016491B0
:1054900007C08FE290E10E941D112196FE016491E8
:1054A0006623B9F78FE290E1B801A70122E00E94DC
:1054B000D186DF91CF911F910F91FF90EF900895CA
:1054C0008091260690912706019660E070E04AE000
:1054D00050E00C94CA0C8091260690912706019604
:1054E00060E070E00C946D0B0F931F93CF93DF93EC
:1054F0008C018091DD058093EA0584E579DF8823BE
:1055000009F44FC0E8DF0E94B38A6093EA0566237E
:1055100009F447C0EAEFF4E06491EF0107C08FE2BD
:1055200090E10E941D112196FE0164916623B9F756
:105530000936110599F00A36110524F408361105CB
:10554000E9F407C00D36110571F00A3D1105B1F4FB
:105550000FC08FE290E16FE171E00EC08FE290E149
:1055600066E371E009C08FE290E16DE471E004C090
:105570008FE290E164E671E00E941511E0912F1036
:10558000F09130100190F081E02D8FE290E1609178
:10559000EA0509958FE290E16AE00E941D1181E021
:1055A00001C080E0DF91CF911F910F910895AF92DC
:1055B000BF92CF92DF92EF92FF920F931F93CF9300
:1055C000DF931EEAE12E15E0F12EC7E0D6E000E001
:1055D00010E0F801E752FD4F80810ADF882331F1A6
:1055E0007ADF5B016C01F801E855FA4F808188236E
:1055F00011F061E002C06091170670E0882777FD26
:105600008095982F0E94E18AF701208131814281A3
:1056100053810E941F8D9B01AC01C601B5010E9400
:105620006689688379838A839B8309C0F7018081B7
:105630009181A281B38188839983AA83BB830F5F01
:105640001F4F84E090E0E80EF91E24960430110507
:1056500009F0BFCF86E4CCDE8823D9F03CDF7B01A4
:105660008C01609318067093190680931A06909324
:105670001B0620E030E040E050E00E944D8C181600
:1056800044F4E0927002F09271020093720210935F
:105690007302DF91CF911F910F91FF90EF90DF90F8
:1056A000CF90BF90AF90089582DF89E4A1DE882378
:1056B00051F011DF6093FB057093FC058093FD05AD
:1056C0009093FE050CC080E090E0A0E0B0E08093F5
:1056D000FB059093FC05A093FD05B093FE058AE4BD
:1056E00087DE882351F0F7DE6093FF057093000694
:1056F0008093010690930206089580E090E0A0E078
:10570000B0E08093FF0590930006A0930106B0934C
:10571000020608952F923F924F925F926F927F926E
:105720008F929F92AF92BF92CF92DF92EF92FF92B1
:105730000F931F93DF93CF93CDB7DEB76E970FB65E
:10574000F894DEBF0FBECDBF87E452DE882309F494
:105750002DC2C1DE0E94AE8A6430710509F43CC0DE
:105760006530710554F46230710531F163307105B3
:1057700054F57723CCF40C94C43C6A35710509F4D4
:10578000C4C16B35710534F46C31710511F00C94A2
:10579000C43C78C06B35710509F4BBC16C3571052B
:1057A00011F00C94C43CBAC18091E805882321F41F
:1057B000FEDE98DB0C94F73C8091E805882319F411
:1057C00073DF81E006C08091E805882329F46CDF4F
:1057D00080E0C1DA0C94F73C80E50ADE882321F4EE
:1057E000AA24BB24650105C076DE0E94B38A5B0152
:1057F0006C0183E5FDDD882359F06DDE20E030E0AB
:105800004AE754E40E941F8D0E94B38A5B016C0139
:105810000E94656C0FB6F894E0902610F090271067
:1058200000912810109129100FBEEA0CFB1C0C1DD2
:105830001D1D0FB6F8948091261090912710A0910D
:105840002810B09129100FBE8093F3059093F405B2
:10585000A093F505B093F60503C00E944C780DDACD
:105860000FB6F8948091261090912710A0912810DF
:10587000B09129100FBE8E159F05A007B10768F3E0
:105880000C94C43C8091700290917102A0917202BC
:10589000B09173028093220690932306A09324066E
:1058A000B093250680915702909158029093AD05D0
:1058B0008093AC0584E690E0909358028093570261
:1058C0000FB6F8948091261090912710A09128107F
:1058D000B09129100FBE8093F3059093F405A09327
:1058E000F505B093F60581E00E948A6B8091AE05C4
:1058F0009091AF05A091B005B091B10580930706D6
:1059000090930806A0930906B0930A068091B20509
:105910009091B305A091B405B091B50580930B06A5
:1059200090930C06A0930D06B0930E068091B605D9
:105930009091B705A091B805B091B90580930F0675
:1059400090931006A0931106B09312068091BA05A9
:105950009091BB05A091BC05B091BD058093130645
:1059600090931406A0931506B093160680E090E07D
:10597000A0E0B0E08093700290937102A093720255
:10598000B093730288E534DD882351F489E530DD76
:10599000882331F48AE52CDD882311F481E001C0ED
:1059A00080E080937402882321F488E521DD882338
:1059B00019F080E090E08DDB80917402882321F45F
:1059C00089E516DD882319F081E090E082DB88E527
:1059D0000FDD8823C9F074DD61157105810591051E
:1059E00099F079DD2091BE053091BF054091C00549
:1059F0005091C1050E9466896093AE057093AF0512
:105A00008093B0059093B10589E5F2DC8823C9F055
:105A100057DD611571058105910599F05CDD2091D7
:105A2000C2053091C3054091C4055091C5050E943F
:105A300066896093B2057093B3058093B405909323
:105A4000B50580917402882321F48AE5D1DC88238E
:105A500019F082E090E03DDB8AE5CADC8823C9F0DA
:105A60002FDD611571058105910599F034DD2091D7
:105A7000C6053091C7054091C8055091C9050E94DF
:105A800066896093B6057093B7058093B8059093C7
:105A9000B9058EEA95E062EB75E046EB55E02AEB3E
:105AA00035E00E94714980E00E948A6B8091220655
:105AB00090912306A0912406B09125068093700250
:105AC00090937102A0937202B09373028091AC051F
:105AD0009091AD0590935802809357020FB6F894B9
