:100000000C94440A0C94710A0C94710A0C94710AB1
:100010000C94710A0C94710A0C94710A0C94710A74
:100020000C94710A0C94710A0C94710A0C94710A64
:100030000C94710A0C94710A0C94710A0C94710A54
:100040000C94710A0C94AE4E0C94710A0C94710AC3
:100050000C94710A0C94710A0C940A580C94FE6367
:100060000C94710A0C94EB180C94710A0C94710A9C
:100070000C94710A0C94710A0C94710A0C94710A14
:100080000C94710A0C94710A0C94710A0C94710A04
:100090000C94710A0C94710A0C94710A0C946962A4
:1000A0000C94710A0C94710A0C94710A0C94710AE4
:1000B0000C94710A0C94710A0C94710A0C94710AD4
:1000C0000C94710A0C94710A0C94710A0C94710AC4
:1000D0000C94710A0C94710A0C94710A0C94710AB4
:1000E0000C94710A084AD73B3BCE016E84BCBFFD1D
:1000F000C12F3D6C74319ABD56833DDA3D00C77FF8
:1001000011BED9E4BB4C3E916BAAAABE0000008090
:100110003F05A84CCDB2D44EB93836A9020C50B91F
:10012000918688083CA6AAAA2ABE000000803F65E6
:1001300063686F3A0048617264636F646564204469
:10014000656661756C742053657474696E6773209D
:100150004C6F616465640053746F726564207365ED
:100160007474696E6773207265747269657665640C
:10017000002044002049002020204D333031205001
:10018000005049442073657474696E67733A0020A7
:100190005A0020590020204D323036205800486F38
:1001A0006D65206F666673657420286D6D293A0051
:1001B000204500205A0020580020420020540020F2
:1001C000204D323035205300416476616E636564A2
:1001D000207661726961626C65733A20533D4D69A6
:1001E0006E20666565647261746520286D6D2F737D
:1001F000292C20543D4D696E2074726176656C2007
:10020000666565647261746520286D6D2F73292C95
:1002100020423D6D696E696D756D207365676D6512
:100220006E742074696D6520286D73292C20583DEB
:100230006D6178696D756D205859206A65726B2003
:10024000286D6D2F73292C20205A3D6D6178696DC2
:10025000756D205A206A65726B20286D6D2F732989
:100260002C2020453D6D6178696D756D2045206AB3
:1002700065726B20286D6D2F73290020540020209B
:100280004D323034205300416363656C6572617494
:10029000696F6E3A20533D616363656C657261748A
:1002A000696F6E2C20543D726574726163742061B5
:1002B0006363656C65726174696F6E002045002030
:1002C0005A0020590020204D3230312058004D6115
:1002D00078696D756D20416363656C6572617469E1
:1002E0006F6E20286D6D2F7332293A002045002053
:1002F0005A0020590020204D3230332058004D61E3
:1003000078696D756D2066656564726174657320CA
:10031000286D6D2F73293A00204500205A0020597E
:100320000020204D393220580053746570732070BE
:10033000657220756E69743A0053657474696E67EE
:10034000732053746F726564006563686F3A00458B
:1003500072726F723A005072696E746572207374B3
:100360006F707065642064756520746F20657272AB
:100370006F72732E204669782074686520657272EA
:100380006F7220616E6420757365204D3939392094
:10039000746F20726573746172742E202854656DB9
:1003A000706572617475726520697320726573651A
:1003B000742E205365742069742061667465722000
:1003C00072657374617274696E6729005072696E28
:1003D0007465722068616C7465642E206B696C6C46
:1003E00028292063616C6C656421006F6B00526585
:1003F00073656E643A20002200556E6B6E6F776EE7
:1004000020636F6D6D616E643A2022005A204F6642
:1004100066736574203A20007A5F6D61783A200037
:100420007A5F6D696E3A20005A204F666673657474
:10043000005A204F6666736574206F6B007A5F6D9B
:1004400061783A20007A5F6D696E3A2000795F6DBD
:1004500061783A2000795F6D696E3A2000785F6DAF
:1004600061783A2000785F6D696E3A2000205A3A30
:100470000020593A0020436F756E7420583A2000CE
:1004800020453A00205A3A0020593A00583A00468E
:1004900049524D574152455F4E414D453A4D61726B
:1004A0006C696E2056313B20537072696E746572B0
:1004B0002F6772626C206D617368757020666F7251
:1004C0002067656E36204649524D574152455F556B
:1004D000524C3A68747470733A2F2F676974687558
:1004E000622E636F6D2F4572696B5A616C6D2F4D73
:1004F00061726C696E2F2050524F544F434F4C5FC6
:1005000056455253494F4E3A312E30204D414348C3
:10051000494E455F545950453A436F707065726853
:100520006561642045585452554445525F434F55C8
:100530004E543A3120555549443A303030303030FD
:1005400030302D303030302D303030302D303030B4
:10055000302D3030303030303030303030300A00F4
:1005600020423A0020453A00543A0020573A0020F1
:10057000453A00543A002042403A0020403A0020D8
:100580002F003A00205400202F0020423A00202F54
:10059000006F6B20543A002569206D696E2C202570
:1005A000692073656300FFFFFF00007E4300007E4B
:1005B000430000B2430000A0400000A04000000043
:1005C00040000000000000000000000000000000EB
:1005D00000000000000000000000007E4300007EDC
:1005E000430000B2435072696E7465722073746F79
:1005F000707065642064756520746F206572726F19
:1006000072732E2046697820746865206572726F57
:100610007220616E6420757365204D3939392074FC
:100620006F20726573746172742E202854656D702A
:100630006572617475726520697320726573657483
:100640002E2053657420697420616674657220726F
:10065000657374617274696E6729006F6B004E6F09
:10066000204C696E65204E756D62657220776974E5
:100670006820636865636B73756D2C204C617374BF
:10068000204C696E653A20004E6F20436865636BAD
:1006900073756D2077697468206C696E65206E755E
:1006A0006D6265722C204C617374204C696E653AE2
:1006B0002000636865636B73756D206D69736D6190
:1006C0007463682C204C617374204C696E653A2009
:1006D000004C696E65204E756D62657220697320ED
:1006E0006E6F74204C617374204C696E65204E757A
:1006F0006D6265722B312C204C617374204C696ED5
:10070000653A20004D313130002020506C616E6E12
:10071000657242756666657242797465733A200047
:100720002046726565204D656D6F72793A20004DE7
:100730006179203133203230313400436F6D70697C
:100740006C65643A2000286E6F6E652C20646566C7
:1007500061756C7420636F6E6669672900207C2068
:10076000417574686F723A20004D617920313320F1
:10077000323031342032333A30373A323600204C7E
:1007800061737420557064617465643A2000312E81
:10079000302E30004D61726C696E0020536F6674AC
:1007A00077617265205265736574002057617463C8
:1007B00068646F67205265736574002042726F77BA
:1007C0006E206F75742052657365740020457874CF
:1007D00065726E616C20526573657400506F776549
:1007E000725570007374617274002200656E7175C9
:1007F00065696E672022002200656E717565696EFD
:10080000672022006563686F3A0020746F6F206C68
:100810006F6E6720657874727573696F6E20707281
:100820006576656E7465640020636F6C642065781E
:1008300074727573696F6E2070726576656E74651B
:10084000640045303A20005A3A2000593A200058B6
:100850003A20004D53312C4D53322050696E730AAB
:100860000024F404D9201BC40C5C0E9804C4095F56
:100870000265077101F405F900FB04B30048048721
:1008800000C10369005803550003034500BE023A46
:10089000008402310053022A0029022500040220AC
:1008A00000E4011C00C8011900AF011700980114F1
:1008B0000084011300710110006101100051010E4C
:1008C0000043010D0036010B002B010B0020010B32
:1008D00000150109000C01090003010800FB0008D4
:1008E00000F3000800EB000700E4000600DE00064D
:1008F00000D8000600D2000600CC000500C70005A5
:1009000000C2000500BD000400B9000400B50004E9
:1009100000B1000400AD000400A9000400A500031C
:1009200000A20003009F0004009B00030098000346
:10093000009500020093000300900003008D000268
:10094000008B000300880002008600020084000380
:1009500000810002007F0002007D0002007B000297
:1009600000790002007700010076000200740002A6
:100970000072000100710002006F0002006D0001B2
:10098000006C0002006A00010069000200670001BB
:1009900000660001006500010064000200620001C1
:1009A0000061000100600001005F0002005D0001C5
:1009B000005C0001005B0001005A000100590001C9
:1009C00000580001005700010056000100550001C9
:1009D00000540001005300000053000100520001C8
:1009E0000051000100500001004F0001004E0000C6
:1009F000004E0001004D0001004C0001004B0000C2
:100A0000004B0001004A00010049000100480000BD
:100A100000480001004700010046000000460001B8
:100A200000450000004500010044000100430000B3
:100A300000430001004200000042000100410000AC
:100A40000041000100400001003F0000003F0001A4
:100A5000003E0000003E0001003D0000003D00019E
:100A6000003C0000003C0000003C0001003B000096
:100A7000003B0001003A0000003A0001003900008C
:100A80000039000100380000003800000038000183
:100A9000003700000037000100360000003600007B
:100AA000003600010035000000350000003500016F
:100AB0000034000000340000003400010033000066
:100AC000003300000033000100320000003200005B
:100AD000003200010031000000310000003100014F
:100AE000003000000030000000300001002F000046
:100AF000002F0000002F0000002F0001002E00003A
:100B0000002E0000002E0001002D0000002D00002E
:100B1000002D0000002D0001002C0000002C000022
:100B2000002C0000002C0001002B0000002B000016
:100B3000002B0000002B0001002A0000002A00000A
:100B4000002A0000002A00010029000000290000FE
:100B500000290000002900000029000100280000F1
:100B600000280000002800000028000000280001E4
:100B700000270000002700000027000000270000D9
:100B800000270001002600000026000000260000CB
:100B900000260000002600010025000000250000BE
:100BA00000250000002500000025000000250001B0
:100BB00000240000002400000024000000240000A5
:100BC0000024000100230000002300000023000097
:100BD0000023000000230000002300000023000188
:100BE000002200000022000000220000002200007D
:100BF000002200000022000100210000002100006E
:100C00000021000000210000002100000021000060
:100C10000021000100200000002000000020000052
:100C20000020000000200000002000000020000044
:100C300000200001001F0000001F0000001F000036
:100C4000001F0000001F0000001F0000001F000127
:100C5000001E0000001E0000001E0000001E00001C
:100C60000024F4D43050C38E20C2A24017828B706F
:100C700011127A910D816CD90AA861E108C75866F2
:100C800007615143061E4B5D05C145A7041A41117A
:100C900004093D9803713931034036DB0265339115
:100CA00002D4305402802E1D02632CEE01752AC539
:100CB00001B028A001102781018F2564012B244B4E
:100CC00001E0223401AC211F018D200D01801FFCA9
:100CD00000841EED00971DDF00B81CD200E61BC685
:100CE00000201BBC00641AB200B219A8000A19A0A7
:100CF000006A189900D117910040178B00B516842F
:100D00000031167E00B31579003A157300C7146FD1
:100D10000058146A00EE1366008813630025135E02
:100D200000C7125B006C12570015125400C111511C
:100D30000070114F0021114B00D61049008D104753
:100D4000004610440002104200C00F4000800F3ED9
:100D500000420F3C00060F3B00CB0E3800930E37CD
:100D6000005C0E3500270E3400F30D3200C10D314A
:100D700000900D3000600D2E00320D2D00050D2C61
:100D800000D90C2B00AE0C2900850C29005C0C2727
:100D900000350C27000E0C2600E80B2400C40B24A1
:100DA00000A00B23007D0B23005A0B2100390B21DF
:100DB00000180B2000F80A1F00D90A1E00BB0A1EEB
:100DC000009D0A1D00800A1D00630A1C00470A1BC3
:100DD000002C0A1B00110A1A00F7091A00DD091974
:100DE00000C4091900AB091900920917007B091802
:100DF00000630917004C0916003609160020091671
:100E0000000A091500F5081500E0081400CC0814C4
:100E100000B8081400A4081400900813007D0812FC
:100E2000006B08130058081200460812003408111D
:100E300000230811001208110001081100F007102A
:100E400000E0071000D0071000C0071000B0070F27
:100E500000A107100091070E0083070F0074070F11
:100E60000065070E0057070E0049070E003B070DEF
:100E7000002E070E0020070D0013070D0006070DBA
:100E800000F9060C00ED060D00E0060C00D4060C7F
:100E900000C8060C00BC060C00B0060C00A4060B33
:100EA0000099060C008D060B0082060B0077060BDE
:100EB000006C060B0061060A0057060B004C060A80
:100EC0000042060A0038060A002E060A0024060A16
:100ED000001A060A001006090007060A00FD0509A7
:100EE00000F4050900EB050900E2050900D9050930
:100EF00000D0050900C7050900BE050900B50508B1
:100F000000AD050800A50509009C0508009405082A
:100F1000008C050800840508007C0508007405089D
:100F2000006C050700650508005D0507005605080B
:100F3000004E050700470507004005080038050773
:100F400000310507002A050700230507001C0506D8
:100F500000160507000F0507000805060002050733
:100F600000FB040600F5040700EE040600E8040692
:100F700000E2040700DB040600D5040600CF0406E7
:100F800000C9040600C3040600BD040600B7040639
:100F900000B1040500AC040600A6040600A0040588
:100FA000009B04060095040500900406008A0405D1
:100FB0000085040500800406007A04050075040518
:100FC00000700405006B040500660405006104055B
:100FD000005C04050057040500520405004D04059B
:100FE0000048040500430405003E0404003A0405DB
:100FF0000035040500300404002C04050027040417
:1010000000230405001E0404001A0404001604054D
:1010100000110404000D0404000904050004040484
:101020000000040400FC030400F8030400F40304BB
:1010300000F0030400EC030400E8030400E40304EC
:1010400000E0030400DC030400D8030400D403041C
:1010500000D0030400CC030400C8030300C503034D
:10106000006563686F3A00205A3A0020593A002020
:10107000583A00656E6473746F7073206869743ACF
:1010800020004572726F723A0054656D706572612E
:10109000747572652068656174656420626564209A
:1010A0007377697463686564206F66662E204D41AE
:1010B0005854454D502074726967676572656420A5
:1010C0002121003A20457874727564657220737727
:1010D000697463686564206F66662E204D494E54BE
:1010E000454D502074726967676572656420210000
:1010F0003A204578747275646572207377697463F9
:10110000686564206F66662E204D415854454D50E9
:1011100020747269676765726564202100202D2044
:10112000496E76616C696420657874727564657265
:10113000206E756D62657220210068012C018201AC
:1011400027019E012201BD011D01DF0118010402DA
:1011500013012D020E015A0209018B020401C10282
:10116000FF00FC02FA003D03F5008503F000D40304
:10117000EB002C04E6008D04E100F804DC007005AF
:10118000D700F505D2008306CD000C07C800B207D2
:10119000C3007C08BE004509B9003D0AB400300B0D
:1011A000AF00520CAA00820DA500C90EA0002810A5
:1011B0009B007E11960016139100D4148C00A91682
:1011C00087009B188200901A7D00CA1C7800F31ECD
:1011D00073002E216E00742369009A256400DE27B7
:1011E0005F00292A5A00602C5500822E50007F3063
:1011F0004B006E32460033344100D2353C00463756
:10120000370089383200BD392D00C63A2800AA3B84
:1012100023006E3C1E00113D1900A03D1400163E37
:101220000F00783E0A00C83E0500083F0000504904
:1012300044204175746F74756E652066696E6973BC
:10124000686564212050757420746865206C617332
:1012500074204B702C204B6920616E64204B6420FD
:10126000636F6E7374616E74732066726F6D20614C
:10127000626F766520696E746F20436F6E66696772
:1012800075726174696F6E2E680050494420417513
:10129000746F74756E65206661696C656421207475
:1012A000696D656F75740020403A006F6B20543A89
:1012B000006F6B20423A00504944204175746F74AE
:1012C000756E65206661696C6564212054656D707A
:1012D0006572617475726520746F6F2068696768E4
:1012E00000204B643A2000204B693A2000204B70CC
:1012F0003A200020436C6173736963205049442095
:10130000002054753A2000204B753A2000206D6172
:10131000783A2000206D696E3A200020643A20005F
:1013200020626961733A2000000021002400270038
:101330002A002D00300033000101000004010701E4
:101340000A0100002200250028002B002E00310099
:10135000340002010000050108010B01000020001B
:101360002300260029002C002F003200000100007D
:101370000301060109010505050507050808080818
:10138000020202020A0A080804040404010101011D
:101390000101010103030303030303030407070718
:1013A0000C0C0C0C0C0C0C0C0202020206060606BD
:1013B000060606060B0B0B0B0B0B0B0B010210208A
:1013C000200808102040102040800201020108047B
:1013D000020101020408102040808040201008040F
:1013E0000201800402018040201008040201080468
:1013F00002010102040810204080010204081020AC
:1014000040800000090A02080B0C0D0706030401C6
:1014100000000000000000000000000000000000CC
:10142000000000000000000000000000000011109B
:101430000F0000000000000000000000000000009D
:101440000000000000000000494E46494E49545932
:101450004E414ECDCCCC3D0AD7233C17B7D138777F
:10146000CC2B329595E6241FB14F0A000020410095
:1014700000C84200401C4620BCBE4CCA1B0E5AAEDF
:10148000C59D74007F19D86111241FBECFEFD1E232
:10149000DEBFCDBF00E00CBF14E0A0E0B2E0E0EDA5
:1014A000F8ED00E00BBF02C007900D92A432B10727
:1014B000D9F71BBE1DE0A4E2B4E001C01D92AA371B
:1014C000B107E1F714E1C8E8D4E104C02297FE01B6
:1014D0000E94206CC438D107C9F70E9401670C94A0
:1014E000666C0C940000A0E0B0E0E9E7FAE00C9430
:1014F000356CEC015B016115710519F0FB019183FD
:101500008083F9908F2D90E00E94246C892BC9F77D
:10151000FDE2FF1621F4F990EE24E39405C02BE2DE
:10152000F21609F4F990EE248E0101501040C80122
:1015300068E474E143E050E062D2892BF9F48E0153
:101540000E5F1F4FC8016BE474E145E050E057D2D5
:10155000892B19F48E01095F1F4FA114B10419F0F2
:10156000F50111830083E0FC04C070E090E080E8A6
:1015700013C070E090E080E86FEF07C1C80160E53C
:1015800074E143E050E03BD2892B69F4A114B1042B
:1015900029F470E090E080EC6FE7F7C02296F50147
:1015A000D183C083F6CF8824992440E050E060E0E6
:1015B00070E0EF2DE053EA30A0F5F2E0EF2A8E2D37
:1015C00090E09C0128703070E2FE06C0232B79F574
:1015D0000894811C911C2BC0232B19F008948108BE
:1015E0009108DB01CA0112E0880F991FAA1FBB1FD7
:1015F0001A95D1F7480F591F6A1F7B1F440F551FBB
:10160000661F771F4E0F511D611D711D483929E955
:10161000520729E9620729E1720748F084E0E82AC5
:1016200006C0EE3F31F4E3FC39C098E0E92AF990B6
:10163000C0CFE53311F0E53189F529912D3219F448
:10164000E0E1EE2A05C02B3219F081E090E003C002
:10165000299182E090E0E22FE053EA3018F0C81BB5
:10166000D90B1CC020E030E0FCE020383F075CF4E0
:10167000C901880F991F880F991F280F391F220F42
:10168000331F2E0F311DE991E053EA3068F3E4FE79
:1016900003C0309521953F4F820E931ECE2CDD2442
:1016A000E1FE07C0A114B10421F02197F501D18317
:1016B000C083CB01BA010E9489687B018C01F3E0F1
:1016C000CF22DD2423E0C216D10421F417FB1095AC
:1016D00017F9109557016801C801B70120E030E003
:1016E00040E050E00E94E967882309F44AC097FE71
:1016F0000DC027E6E22E24E1F22E90948194910809
:101700009394C0E2D0E000E010E012C09FE7E92E21
:1017100094E1F92EF6CFF701259135914591549139
:10172000C601B5010E94C96A5B016C018C1A9D0A51
:101730008C169D0684F7D595C7950F5F1F4F063011
:10174000110529F08CEF9FEFE80EF91EF1CFC501CE
:10175000D6017C018D018C2D880F8D2D881F8F3F28
:1017600051F0C601B50120E030E040E050E00E94B9
:10177000E967882331F482E290E09093790D8093B9
:10178000780D7E2D9F2D802F612F272F392F482FE9
:10179000562FB901CA01CDB7DEB7ECE00C94516CFD
:1017A0002F923F925F926F927F928F929F92AF9211
:1017B000BF92CF92DF92EF92FF920F931F93CF933E
:1017C000DF938C011B01EA016115710519F0FB0122
:1017D00091838083209749F0CE010297839728F068
:1017E00020E030E040E050E0F6C0F801A1908F0129
:1017F0008A2D90E00E94246C892BB9F7FDE2AF1688
:1018000031F4F801A1908F015524539407C0FBE2F5
:10181000AF1619F4F801A1908F015524209719F003
:10182000C031D105C1F4F0E3AF1679F4F80180813D
:10183000883711F0883549F4F801A1800E5F1F4FF9
:10184000F2E05F2AC0E1D0E006C0209721F480E3F7
:10185000A816E9F427C0C830D10531F1C930D10547
:1018600024F4C230D10531F50CC0CA30D10589F05D
:10187000C031D105F9F4C12CD12CE12CB8E0FB2EFC
:1018800028C0C12CD12CE12CA0E4FA2E22C0CAE041
:10189000D0E0FCECCF2EFCECDF2EFCECEF2EFCE0DD
:1018A000FF2E17C0C8E0D0E0C12CD12CE12CE0E124
:1018B000FE2E0FC09E01442737FD4095542F60E057
:1018C00070E080E090E80E94CD6BC901DA016C0104
:1018D0007D0120E030E040E050E060E03E018824FF
:1018E00077FC8094982C70EDB72EBA0CE9E0EB15DC
:1018F00070F48A2D81548A3118F499ECB92E06C0FF
:101900008A2D81568A3150F589EAB82EBA0C8B2D72
:1019100090E08C179D0714F56F3FE1F0C216D306D7
:10192000E406F506B0F0CA01B901A40193010E94D2
:101930009B6B9B01AC012B0D311D411D511D2130B5
:10194000F0E03F07F0E04F07F0E85F0710F461E0D8
:1019500001C06FEFF801A1908F01C5CF21143104B0
:1019600081F0662331F001501040F10111830083B2
:1019700008C051FE1AC002501040F10111830083CB
:1019800014C067FF12C050FC05C02FEF3FEF4FEFB0
:101990005FE704C020E030E040E050E882E290E001
:1019A0009093790D8093780D16C050FE08C0509525
:1019B0004095309521953F4F4F4F5F4F0CC057FFDB
:1019C0000AC082E290E09093790D8093780D2FEF1A
:1019D0003FEF4FEF5FE7B901CA01DF91CF911F9150
:1019E0000F91FF90EF90DF90CF90BF90AF909F90BE
:1019F0008F907F906F905F903F902F900895FB01A4
:101A0000DC014150504088F08D9181341CF08B35C1
:101A10000CF4805E659161341CF06B350CF4605EF3
:101A2000861B611171F3990B0895881BFCCFFB0194
:101A300055915523A9F0BF01DC014D914517411186
:101A4000E1F759F4CD010590002049F04D91401582
:101A50004111C9F3FB014111EFCF81E090E0019703
:101A60000895FC018191861721F08823D9F79927E1
:101A700008953197CF010895FB01DC01415050409A
:101A800030F08D910190801919F40020B9F7881B6E
:101A9000990B0895AEE0B0E0E0E5FDE00C943D6CFC
:101AA0000E891F898EE08C831A8309838FEF9FE74D
:101AB0009E838D839E01265E3F4FCE010196688DE9
:101AC000798DA9010AD02F813885020F131FF801E3
:101AD00010822E96E4E00C94596CABE0B0E0E3E7A2
:101AE000FDE00C942F6C3C012B015A01FC01178284
:101AF0001682838181FD03C06FEF7FEFB9C19AE049
:101B0000892E1E010894211C311CF3012381F2014E
:101B100023FD859123FF81912F01882309F4A5C11D
:101B2000853239F423FD859123FF81912F01853280
:101B300021F490E0B301B7D1E8CF982FFF24EE2431
:101B40009924FFE1FF15D0F09B3269F09C3228F414
:101B5000903259F0933291F40EC09D3249F0903397
:101B600069F441E024C052E0F52A84E0F82A28C054
:101B700098E0F92A25C0E0E1FE2A22C0F7FC29C03E
:101B8000892F80538A3070F4F6FE05C0989C902C03
:101B90001124980E15C0E89CE02C1124E80EF0E208
:101BA000FF2A0EC09E3229F4F6FC5FC140E4F42AFD
:101BB00007C09C3619F450E8F52A02C0983649F45B
:101BC000F20123FD959123FF91912F01992309F0B3
:101BD000B8CF892F8554833018F08052833038F481
:101BE00044E050E0A40EB51E5FE359830FC0933666
:101BF00031F0933779F0933509F052C01FC0F501E9
:101C00008081898342E050E0A40EB51E610101E0AD
:101C100010E011C0F501C080D180F6FC03C06FEF69
:101C20007FEF02C0692D70E042E050E0A40EB51EC7
:101C3000C6012ED18C015FE7F52213C0F501C080EB
:101C4000D180F6FC03C06FEF7FEF02C0692D70E01A
:101C500042E050E0A40EB51EC6010FD18C0150E841
:101C6000F52AF3FE06C018C080E290E0B3011BD154
:101C7000EA948E2D90E008171907B0F30DC0F60115
:101C8000F7FC8591F7FE81916F0190E0B3010BD1D4
:101C9000E110EA94015010400115110581F7E2C0EE
:101CA000943611F0993661F5F7FE08C0F5012081F0
:101CB00031814281538184E090E00AC0F501808146
:101CC00091819C01442737FD4095542F82E090E09C
:101CD000A80EB91E9FE6F92257FF09C050954095FE
:101CE000309521953F4F4F4F5F4FE0E8FE2ACA01E4
:101CF000B901A1012AE030E002D1D82ED2183FC0AC
:101D0000953729F41F2D1F7E2AE030E01DC01F2DBE
:101D1000197F9F3661F0903720F4983509F0A5C0FF
:101D20000FC0903739F0983709F09FC004C028E001
:101D300030E00AC0106114FD146020E130E004C0FE
:101D400014FD166020E132E017FF08C0F501608144
:101D500071818281938144E050E008C0F501808167
:101D60009181BC0180E090E042E050E0A40EB51EFD
:101D7000A101C5D0D82ED2188FE7F82EF122F6FE99
:101D80000BC05EEFF522D91438F4F4FE07C0F2FC64
:101D900005C08FEEF82202C01D2D01C0192DF4FEE2
:101DA0000DC0FE01ED0DF11D8081803319F499EE17
:101DB000F92208C01F5FF2FE05C003C08F2D867890
:101DC00009F01F5F0F2DF3FC13C0F0FE0EC01E15AF
:101DD00010F09D2C0AC09D2C9E0C911A1E2D05C042
:101DE00080E290E0B3015FD01F5F1E15C8F304C00E
:101DF0001E1510F4E11A01C0EE2404FF0EC080E3AA
:101E000090E0B30150D002FF1BC001FD03C088E782
:101E100090E00EC088E590E00BC0802F867881F0BE
:101E200001FF02C08BE201C080E2F7FC8DE290E08E
:101E3000B30139D005C080E390E0B30134D09A9467
:101E4000D914C8F3DA94F101ED0DF11D808190E011
:101E5000B30129D0DD20B1F705C080E290E0B301E5
:101E600022D0EA94EE20C9F750CEF3016681778143
:101E7000CB012B96E2E10C944B6CFC010590615078
:101E800070400110D8F7809590958E0F9F1F089590
:101E9000FC016150704001900110D8F78095909539
:101EA0008E0F9F1F08950F931F93CF93DF938C0185
:101EB000EB018B8181FF1BC082FF0DC02E813F8112
:101EC0008C819D812817390764F4E881F981019399
:101ED000F983E88306C0E885F985802F1995892B59
:101EE00031F48E819F8101969F838E8302C00FEF14
:101EF0001FEFC801DF91CF911F910F910895FA0153
:101F0000AA27283051F1203181F1E8946F936E7F38
:101F10006E5F7F4F8F4F9F4FAF4FB1E03ED0B4E029
:101F20003CD0670F781F891F9A1FA11D680F791F6A
:101F30008A1F911DA11D6A0F711D811D911DA11D7B
:101F400020D009F468943F912AE0269F112430198B
:101F5000305D3193DEF6CF010895462F4770405D26
:101F60004193B3E00FD0C9F7F6CF462F4F70405DD5
:101F70004A3318F0495D31FD4052419302D0A9F730
:101F8000EACFB4E0A6959795879577956795BA952A
:101F9000C9F700976105710508959B01AC010A2EF0
:101FA00006945795479537952795BA95C9F7620FC7
:101FB000731F841F951FA01D0895DF93CF93CDB786
:101FC000DEB766970FB6F894DEBF0FBECDBF809127
:101FD000000290910102A0910202B09103028F874A
:101FE000988BA98BBA8BFE013F9644E650E0808126
:101FF000F999FECF1FBA52BD41BD80BD0FB6F8940E
:10200000FA9AF99A0FBE4F5F5F4F4836510511F0AB
:102010003196EDCFE9ECF6E08081F999FECF1FBA59
:1020200052BD41BD80BD0FB6F894FA9AF99A0FBE21
:102030004F5F5F4F4837510511F03196EDCFE9EB17
:10204000F6E08081F999FECF1FBA52BD41BD80BD37
:102050000FB6F894FA9AF99A0FBE4F5F5F4F48385F
:10206000510511F03196EDCFE9EDF6E08081F99957
:10207000FECF1FBA52BD41BD80BD0FB6F894FA9A8B
:10208000F99A0FBE4F5F5F4F4839510511F03196F5
:10209000EDCFEDEEF6E08081F999FECF1FBA52BD8B
:1020A00041BD80BD0FB6F894FA9AF99A0FBE4F5F02
:1020B0005F4F4C39510511F03196EDCFE1EFF6E06D
:1020C0008081F999FECF1FBA52BD41BD80BD0FB6C8
:1020D000F894FA9AF99A0FBE4F5F5F4F403A510554
:1020E00011F03196EDCFE9EEF6E08081F999FECF5F
:1020F0001FBA52BD41BD80BD0FB6F894FA9AF99A45
:102100000FBE4F5F5F4F443A510511F03196EDCF4E
:10211000E1E0F7E08081F999FECF1FBA52BD41BDE1
:1021200080BD0FB6F894FA9AF99A0FBE4F5F5F4FD1
:10213000483A510511F03196EDCFE5EBF6E080819C
:10214000F999FECF1FBA52BD41BD80BD0FB6F894BC
:10215000FA9AF99A0FBE4F5F5F4F4C3A510511F052
:102160003196EDCFE5EFF6E08081F999FECF1FBA09
:1021700052BD41BD80BD0FB6F894FA9AF99A0FBED0
:102180004F5F5F4F403B510511F03196EDCFE9EFC6
:10219000F6E08081F999FECF1FBA52BD41BD80BDE6
:1021A0000FB6F894FA9AF99A0FBE4F5F5F4F443B0F
:1021B000510511F03196EDCFEDEFF6E08081F99900
:1021C000FECF1FBA52BD41BD80BD0FB6F894FA9A3A
:1021D000F99A0FBE4F5F5F4F483B510511F03196A2
:1021E000EDCFEFEBF4E08081F999FECF1FBA52BD3D
:1021F00041BD80BD0FB6F894FA9AF99A0FBE4F5FB1
:102200005F4F443C510511F03196EDCF84EB90E0E7
:102210009A83898386E490E09C838B832FEF30E060
:102220003E832D8380EF90E098878F8384E690E053
:102230009A8789873C872B87FE0131968081F9999F
:10224000FECF1FBA52BD41BD80BD0FB6F894FA9AB9
:10225000F99A0FBE4F5F5F4F463C510571F7FE0183
:1022600033968081F999FECF1FBA52BD41BD80BD22
:102270000FB6F894FA9AF99A0FBE4F5F5F4F483C39
:10228000510511F03196EDCFFE0135968081F99917
:10229000FECF1FBA52BD41BD80BD0FB6F894FA9A69
:1022A000F99A0FBE4F5F5F4F4A3C510511F03196CE
:1022B000EDCFFE0137968081F999FECF1FBA52BD4E
:1022C00041BD80BD0FB6F894FA9AF99A0FBE4F5FE0
:1022D0005F4F4C3C510511F03196EDCFFE01399620
:1022E0008081F999FECF1FBA52BD41BD80BD0FB6A6
:1022F000F894FA9AF99A0FBE4F5F5F4F4E3C510522
:1023000011F03196EDCFFE013B968081F999FECF19
:102310001FBA52BD41BD80BD0FB6F894FA9AF99A22
:102320000FBE4F5F5F4F403D510511F03196EDCF2D
:10233000EAEDF4E08081F999FECF1FBA52BD41BDAC
:1023400080BD0FB6F894FA9AF99A0FBE4F5F5F4FAF
:10235000443D510511F03196EDCFEFE8F3E0808177
:10236000F999FECF1FBA52BD41BD80BD0FB6F8949A
:10237000FA9AF99A0FBE4F5F5F4F483D510511F031
:102380003196EDCFE3E9F3E08081F999FECF1FBAF2
:1023900052BD41BD80BD0FB6F894FA9AF99A0FBEAE
:1023A0004F5F5F4F4C3D510511F03196EDCFE7E99E
:1023B000F3E08081F999FECF1FBA52BD41BD80BDC7
:1023C0000FB6F894FA9AF99A0FBE4F5F5F4F403EEE
:1023D000510511F03196EDCF80E290E09E878D8718
:1023E000FE013D968081F999FECF1FBA52BD41BDD5
:1023F00080BD0FB6F894FA9AF99A0FBE413E510586
:1024000021F0319641EE50E0EDCF809104029091A1
:102410000502A0910602B09107028B8B9C8BAD8BBD
:10242000BE8BFE01739684E690E02081F999FECF81
:102430001FBA92BD81BD20BD0FB6F894FA9AF99AE1
:102440000FBE8736910519F001963196EECFEFE277
:10245000F1E0949108C08091C00085FFFCCF90937B
:10246000C600319694919923B1F7E9E3F3E0949192
:1024700008C08091C00085FFFCCF9093C6003196C4
:1024800094919923B1F78091C00085FFFCCF8AE039
:102490008093C60066960FB6F894DEBF0FBECDBF20
:1024A000CF91DF910895DF93CF93CDB7DEB7E0975B
:1024B0000FB6F894DEBF0FBECDBFDE011196E5EC7E
:1024C000F3E080E101900D928150E1F7DE01519639
:1024D000E5EBF3E080E101900D928150E1F7DE0140
:1024E0009196E5EAF3E080E101900D928150E1F7E9
:1024F00089819A81AB81BC818093C9069093CA0679
:10250000A093CB06B093CC0689899A89AB89BC8904
:102510008093B9069093BA06A093BB06B093BC060D
:1025200089A19AA1ABA1BCA18093D9069093DA06A8
:10253000A093DB06B093DC068D819E81AF81B885C8
:102540008093CD069093CE06A093CF06B093D0068D
:102550008D899E89AF89B88D8093BD069093BE0604
:10256000A093BF06B093C0068DA19EA1AFA1B8A550
:102570008093DD069093DE06A093DF06B093E0061D
:1025800089859A85AB85BC858093D1069093D206C8
:10259000A093D306B093D406898D9A8DAB8DBC8D54
:1025A0008093C1069093C206A093C306B093C4065D
:1025B00089A59AA5ABA5BCA58093E1069093E206F8
:1025C000A093E306B093E4068D859E85AF85B88918
:1025D0008093D5069093D606A093D706B093D806DD
:1025E0008D8D9E8DAF8DB8A18093C5069093C60644
:1025F000A093C706B093C8068DA59EA5AFA5B8A9A0
:102600008093E5069093E606A093E706B093E8066C
:102610000E94933B80E090E8ABE3B5E48093ED0645
:102620009093EE06A093EF06B093F0068093F10628
:102630009093F206A093F306B093F40620E030E006
:1026400040E050E02093E9063093EA064093EB0621
:102650005093EC0680E29EE4A0E0B0E08093B506E3
:102660009093B606A093B706B093B80620930107DF
:1026700030930207409303075093040780E090E0F3
:10268000A0EAB1E48093F5069093F606A093F706CE
:10269000B093F8068DEC9CECACECBEE38093F906AD
:1026A0009093FA06A093FB06B093FC0680E090E0BE
:1026B000A0EAB0E48093FD069093FE06A093FF0687
:1026C000B09300072093C7043093C8044093C90413
:1026D0005093CA042093C3043093C4044093C504A8
:1026E0005093C6042093BF043093C0044093C104A8
:1026F0005093C2048AE999E9A1EBB1E480938F0376
:1027000090939003A0939103B093920361E77DE3CC
:102710008AE89FE30E944757609393037093940362
:10272000809395039093960360E070E084EE92E4CA
:102730000E94535760939703709398038093990373
:1027400090939A030E94585680E090E0A0E8BFE37F
:1027500080939B0390939C03A0939D03B0939E034F
:10276000EFE2F1E0949108C08091C00085FFFCCFBA
:102770009093C600319694919923B1F7E5E3F1E087
:10278000949108C08091C00085FFFCCF9093C60053
:10279000319694919923B1F78091C00085FFFCCFC9
:1027A0008AE08093C600E0960FB6F894DEBF0FBEB5
:1027B000CDBFCF91DF910895CF93DF93CFE2D1E0EA
:1027C000FE01949108C08091C00085FFFCCF9093DA
:1027D000C600319694919923B1F7E9E2F3E0949120
:1027E00008C08091C00085FFFCCF9093C600319651
:1027F00094919923B1F78091C00085FFFCCF8AE0C6
:102800008093C600FE019491EFE2F1E008C0809150
:10281000C00085FFFCCF9093C60031969491992318
:10282000B1F74091C9065091CA066091CB067091EC
:10283000CC0681E293E00E940C204091CD0650919D
:10284000CE066091CF067091D0068EE193E00E9493
:102850000C204091D1065091D2066091D306709120
:10286000D4068BE193E00E940C204091D506509154
:10287000D6066091D7067091D80688E193E00E9451
:102880000C20E8E0F2E007C08091C00085FFFCCF9B
:1028900031969093C60090819923B1F78091C00042
:1028A00085FFFCCF8AE08093C600FE019491EFE2A1
:1028B000F1E008C08091C00085FFFCCF9093C60076
:1028C000319694919923B1F7EEEFF2E0949108C01C
:1028D0008091C00085FFFCCF9093C6003196949103
:1028E0009923B1F78091C00085FFFCCF8AE08093E7
:1028F000C600FE019491EFE2F1E008C08091C000B3
:1029000085FFFCCF9093C600319694919923B1F73F
:102910004091B9065091BA066091BB067091BC0611
:1029200085EF92E00E940C204091BD065091BE06BA
:102930006091BF067091C00682EF92E00E940C2069
:102940004091C1065091C2066091C3067091C406C1
:102950008FEE92E00E940C204091C5065091C60671
:102960006091C7067091C8068CEE92E00E940C2020
:10297000E8E0F2E007C08091C00085FFFCCF31960F
:102980009093C60090819923B1F78091C00085FF94
:10299000FCCF8AE08093C600FE019491EFE2F1E063
:1029A00008C08091C00085FFFCCF9093C60031968F
:1029B00094919923B1F7EEECF2E0949108C08091E4
:1029C000C00085FFFCCF9093C60031969491992367
:1029D000B1F78091C00085FFFCCF8AE08093C600EC
:1029E000FE019491EFE2F1E008C08091C00085FF04
:1029F000FCCF9093C600319694919923B1F7409102
:102A0000D9065091DA066091DB067091DC0685EC00
:102A100092E00E941E204091DD065091DE066091FA
:102A2000DF067091E00682EC92E00E941E20409149
:102A3000E1065091E2066091E3067091E4068FEBA7
:102A400092E00E941E204091E5065091E6066091BA
:102A5000E7067091E8068CEB92E00E941E20E8E009
:102A6000F2E007C08091C00085FFFCCF31969093C3
:102A7000C60090819923B1F78091C00085FFFCCFFB
:102A80008AE08093C600FE019491EFE2F1E008C075
:102A90008091C00085FFFCCF9093C6003196949141
:102AA0009923B1F7E7E8F2E0949108C08091C00063
:102AB00085FFFCCF9093C600319694919923B1F78E
:102AC0008091C00085FFFCCF8AE08093C600FE01A4
:102AD0009491EFE2F1E008C08091C00085FFFCCF47
:102AE0009093C600319694919923B1F74091ED06E9
:102AF0005091EE066091EF067091F0068EE792E03D
:102B00000E940C204091F1065091F2066091F3066C
:102B10007091F4068BE792E00E940C20E8E0F2E06E
:102B200007C08091C00085FFFCCF31969093C6000E
:102B300090819923B1F78091C00085FFFCCF8AE096
:102B40008093C600FE019491EFE2F1E008C080910D
:102B5000C00085FFFCCF9093C600319694919923D5
:102B6000B1F7E8ECF1E0949108C08091C00085FFD6
:102B7000FCCF9093C600319694919923B1F7809140
:102B8000C00085FFFCCF8AE08093C600FE019491CF
:102B9000EFE2F1E008C08091C00085FFFCCF909388
:102BA000C600319694919923B1F74091E90650916E
:102BB000EA066091EB067091EC068FEB91E00E94C3
:102BC0000C2040910107509102076091030770911A
:102BD00004078CEB91E00E940C204091B5065091C7
:102BE000B6066091B7067091B80689EB91E00E9435
:102BF0001E204091F5065091F6066091F7067091FF
:102C0000F80686EB91E00E940C204091F906509165
:102C1000FA066091FB067091FC0683EB91E00E943E
:102C20000C204091FD065091FE066091FF067091C8
:102C3000000780EB91E00E940C20E8E0F2E007C082
:102C40008091C00085FFFCCF31969093C6009081A3
:102C50009923B1F78091C00085FFFCCF8AE0809373
:102C6000C600FE019491EFE2F1E008C08091C0003F
:102C700085FFFCCF9093C600319694919923B1F7CC
:102C8000EEE9F1E0949108C08091C00085FFFCCF8F
:102C90009093C600319694919923B1F78091C0002A
:102CA00085FFFCCF8AE08093C600FE019491EFE29D
:102CB000F1E008C08091C00085FFFCCF9093C60072
:102CC000319694919923B1F74091BF045091C0047B
:102CD0006091C1047091C20485E991E00E940C20CA
:102CE0004091C3045091C4046091C5047091C6041E
:102CF00082E991E00E940C204091C7045091C804E1
:102D00006091C9047091CA048FE891E00E940C2080
:102D1000E8E0F2E007C08091C00085FFFCCF31966B
:102D20009093C60090819923B1F78091C00085FFF0
:102D3000FCCF8AE08093C600FE019491EFE2F1E0BF
:102D400008C08091C00085FFFCCF9093C6003196EB
:102D500094919923B1F7E1E8F1E0949108C0809152
:102D6000C00085FFFCCF9093C600319694919923C3
:102D7000B1F78091C00085FFFCCF8AE08093C60048
:102D8000FE019491EFE2F1E008C08091C00085FF60
:102D9000FCCF9093C600319694919923B1F740915E
:102DA0008F0350919003609191037091920387E794
:102DB00091E00E940C2060919303709194038091A4
:102DC0009503909196030E944D57AB01BC0184E797
:102DD00091E00E940C20609197037091980380917C
:102DE000990390919A030E945957AB01BC0181E766
:102DF00091E00E940C20E8E0F2E007C08091C00062
:102E000085FFFCCF31969093C60090819923B1F74E
:102E10008091C00085FFFCCF8AE08093C600DF91DF
:102E2000CF9108950F931F93DF93CF93CDB7DEB764
:102E300066970FB6F894DEBF0FBECDBF8091040237
:102E400090910502A0910602B09107028B8B9C8B9A
:102E5000AD8BBE8BFE013F9604E610E0F999FECFE4
:102E600012BD01BDF89A80B580830F5F1F4F0836F1
:102E7000110511F03196F2CFCE014396BE01615F8C
:102E80007F4F43E050E00E943C0D009709F096C14F
:102E9000E9ECF6E0F999FECF12BD01BDF89A80B5D4
:102EA00080830F5F1F4F0837110511F03196F2CF65
:102EB000E9EBF6E0F999FECF12BD01BDF89A80B5B5
:102EC00080830F5F1F4F0838110511F03196F2CF44
:102ED000E9EDF6E0F999FECF12BD01BDF89A80B593
:102EE00080830F5F1F4F0839110511F03196F2CF23
:102EF0000E94933BEDEEF6E0F999FECF12BD01BDC5
:102F0000F89A80B580830F5F1F4F0C39110511F0BF
:102F10003196F2CFE1EFF6E0F999FECF12BD01BD97
:102F2000F89A80B580830F5F1F4F003A110511F0AA
:102F30003196F2CFE9EEF6E0F999FECF12BD01BD70
:102F4000F89A80B580830F5F1F4F043A110511F086
:102F50003196F2CFE1E0F7E0F999FECF12BD01BD65
:102F6000F89A80B580830F5F1F4F083A110511F062
:102F70003196F2CFE5EBF6E0F999FECF12BD01BD37
:102F8000F89A80B580830F5F1F4F0C3A110511F03E
:102F90003196F2CFE5EFF6E0F999FECF12BD01BD13
:102FA000F89A80B580830F5F1F4F003B110511F029
:102FB0003196F2CFE9EFF6E0F999FECF12BD01BDEF
:102FC000F89A80B580830F5F1F4F043B110511F005
:102FD0003196F2CFEDEFF6E0F999FECF12BD01BDCB
:102FE000F89A80B580830F5F1F4F083B110511F0E1
:102FF0003196F2CFEFEBF4E0F999FECF12BD01BDAF
:10300000F89A80B580830F5F1F4F043C110511F0C3
:103010003196F2CFFE013196F999FECF12BD01BD76
:10302000F89A80B580830F5F1F4F063C110599F712
:10303000FE013396F999FECF12BD01BDF89A80B515
:1030400080830F5F1F4F083C110511F03196F2CFBE
:10305000FE013596F999FECF12BD01BDF89A80B5F3
:1030600080830F5F1F4F0A3C110511F03196F2CF9C
:10307000FE013796F999FECF12BD01BDF89A80B5D1
:1030800080830F5F1F4F0C3C110511F03196F2CF7A
:10309000FE013996F999FECF12BD01BDF89A80B5AF
:1030A00080830F5F1F4F0E3C110511F03196F2CF58
:1030B000FE013B96F999FECF12BD01BDF89A80B58D
:1030C00080830F5F1F4F003D110511F03196F2CF45
:1030D000EAEDF4E0F999FECF12BD01BDF89A80B592
:1030E00080830F5F1F4F043D110511F03196F2CF21
:1030F000EFE8F3E0F999FECF12BD01BDF89A80B573
:1031000080830F5F1F4F083D110511F03196F2CFFC
:10311000E3E9F3E0F999FECF12BD01BDF89A80B55D
:1031200080830F5F1F4F0C3D110511F03196F2CFD8
:10313000E7E9F3E0F999FECF12BD01BDF89A80B539
:1031400080830F5F1F4F003E110511F03196F2CFC3
:10315000FE013D96F999FECF12BD01BDF89A80B5EA
:103160008083013E110521F0319601EE10E0F2CF8F
:103170000E945856EFE2F1E0949108C08091C0009F
:1031800085FFFCCF9093C600319694919923B1F7B7
:10319000E7E5F1E0949108C08091C00085FFFCCF85
:1031A0009093C600319694919923B1F78091C00015
:1031B00085FFFCCF8AE08093C60001C074D9FCDA99
:1031C00066960FB6F894DEBF0FBECDBFCF91DF91EC
:1031D0001F910F9108951F920F920FB60F920BB689
:1031E0000F9211242F933F934F938F939F93EF93BD
:1031F000FF934091C600E091A404F091A50431969C
:103200009F012F77307031978091A6049091A70489
:103210002817390739F0EC5DFB4F40833093A50444
:103220002093A404FF91EF919F918F914F913F9133
:103230002F910F900BBE0F900FBE0F901F901895FF
:103240009A01AB01203081EE380780E0480780E02A
:10325000580749F182E08093C00060E079E08DE397
:1032600090E00E94EF6B2150304040405040CA0136
:10327000B90122E030E040E050E00E94EF6B309373
:10328000C5002093C4008091C10080618093C1007B
:103290008091C10088608093C1008091C1008068E6
:1032A0008093C10008951092C00020E130E0E7CF84
:1032B0002091A6043091A7048091A4049091A504C4
:1032C0008217930719F42FEF3FEF0EC0F901EC5D61
:1032D000FB4F80812F5F3F4F2F7730703093A704D3
:1032E0002093A604282F30E0C90108958091A604F8
:1032F0009091A7049093A5048093A4040895089541
:103300002F923F924F925F926F927F928F929F92F5
:10331000AF92BF92CF92DF92EF92FF920F931F93E3
:10332000DF93CF93CDB7DEB7A0970FB6F894DEBF8B
:103330000FBECDBF1C016A017B014115510561051E
:10334000710541F440E350E060E070E020E030E0DF
:103350008BD055C0882499245401422E55246624CC
:10336000772401E010E00C0F1D1F080D191DC70187
:10337000B601A30192010E94CD6BF801608308940D
:10338000811C911CA11CB11CC701B601A3019201B3
:103390000E94CD6BC901DA016C017D01C114D10419
:1033A000E104F104F1F681E0E82EF12CEC0EFD1EB3
:1033B000E80CF91C3E010894611C711CD501C40184
:1033C0000197A109B1096C01C818D90815C0F60107
:1033D000EE0DFF1D40814A3010F4405D01C0495C94
:1033E000552747FD5095652F752FC10120E030E02E
:1033F0003BD00894E108F1086E147F0441F7A096D1
:103400000FB6F894DEBF0FBECDBFCF91DF911F91F5
:103410000F91FF90EF90DF90CF90BF90AF909F9073
:103420008F907F906F905F904F903F902F90089576
:103430002115310539F48091C00085FFFCCF409300
:10344000C60008955DCFEF92FF920F931F939A01EC
:10345000E62EFF2400E010E0B801A701E9DF1F918C
:103460000F91FF90EF900895EF92FF920F931F93AB
:10347000CF93DF93EC017A018B012115310539F4EB
:103480008091C00085FFFCCFE092C60019C02A30B1
:103490003105A9F477FF0FC04DE250E060E070E025
:1034A00020E030E0E1DF10950095F094E094E11C1D
:1034B000F11C011D111DCE01B801A7012AE020DF7A
:1034C000DF91CF911F910F91FF90EF900895EF92B0
:1034D000FF920F931F937B019A010027F7FC009541
:1034E000102FB801A701C0DF1F910F91FF90EF903F
:1034F00008950F931F938C014DE050E060E070E061
:1035000020E030E0B1DFC8014AE050E060E070E068
:1035100020E030E0A9DF1F910F910895CF92DF9254
:10352000EF92FF920F931F938C019A016B01EE248F
:10353000FF24B701A6017CDFC801DBDF1F910F91DB
:10354000FF90EF90DF90CF9008959F92AF92BF923F
:10355000CF92DF92EF92FF920F931F93CF93DF935F
:10356000EC017A018B01922ECB01BA0120E030E010
:1035700040E050E00E94E967882364F4CE014DE208
:1035800050E060E070E020E030E06EDF17FB109567
:1035900017F9109520E030E040E05FE3AA240BC06B
:1035A000CA01B90120E030E040E251E40E94F06736
:1035B0009B01AC01A394A91498F3C801B7010E9420
:1035C00010677B018C010E945D685B016C010E94A9
:1035D00089689B01AC01C801B7010E940F677B019C
:1035E0008C01CE01B601A5012AE030E021DF99204F
:1035F00099F1E9E0F2E007C08091C00085FFFCCFBF
:1036000031969093C60090819923B1F725C0C801E7
:10361000B70120E030E040E251E40E94C96A7B013A
:103620008C010E9458685B016C01CC24B7FCC094EB
:10363000DC2CCE01B601A5012AE030E015DFC60181
:10364000B5010E948B689B01AC01C801B7010E94C3
:103650000F677B018C019A949920C9F6DF91CF9175
:103660001F910F91FF90EF90DF90CF90BF90AF90A0
:103670009F9008956ACF0895EF92FF920F931F9342
:10368000CF93DF93EC01E090CB04F090CC04009159
:10369000CD041091CE04688179818A819B81A80133
:1036A00097010E94E967882324F4E882F9820A835B
:1036B0001B83E090CF04F090D0040091D1041091CE
:1036C000D2046C817D818E819F81A80197010E9427
:1036D000E967882324F4EC82FD820E831F83E09047
:1036E000D304F090D4040091D5041091D6046885D9
:1036F00079858A859B85A80197010E94E9678823BF
:1037000024F4E886F9860A871B87E0906403F0902A
:1037100065030091660310916703688179818A814E
:103720009B81A80197010E94F769181624F4E8828A
:10373000F9820A831B83E0906803F090690300918B
:103740006A0310916B036C817D818E819F81A8013A
:1037500097010E94F769181624F4EC82FD820E830B
:103760001F83E0906C03F0906D0300916E03109145
:103770006F03688579858A859B85A80197010E94DA
:10378000F769181624F4E886F9860A871B87DF9103
:10379000CF911F910F91FF90EF9008958091E904D0
:1037A00008950E942B578091E904882309F036C0C0
:1037B00081E08093E9048091EC049091ED04A09164
:1037C000EE04B091EF048093F0049093F104A09381
:1037D000F204B093F304EFE4F3E0949108C0809115
:1037E000C00085FFFCCF9093C60031969491992339
:1037F000B1F7E6E5F3E0949108C08091C00085FF41
:10380000FCCF9093C600319694919923B1F78091A3
:10381000C00085FFFCCF8AE08093C6000895F8942D
:103820000E942B575F9A1092D7048A9A1092D8045C
:103830008FB7F894909108019160909308018FBF21
:103840001092D904129A8CE060E00E94ED65EFE4DA
:10385000F3E0949108C08091C00085FFFCCF909365
:10386000C600319694919923B1F7ECECF3E0949172
:1038700008C08091C00085FFFCCF9093C6003196B0
:1038800094919923B1F78091C00085FFFCCF8AE025
:103890008093C600FFCF0E9446646093F404709347
:1038A000F5048093F6049093F704EBEEF3E0949123
:1038B00008C08091C00085FFFCCF9093C600319670
:1038C00094919923B1F78091C00085FFFCCF8AE0E5
:1038D0008093C6000895EF92FF920F931F930E946A
:1038E0004664E090F804F090F9040091FA04109115
:1038F000FB042091F4043091F5044091F6045091BA
:10390000F704621B730B840B950BE616F70608078A
:10391000190730F4E114F1040105110509F07FDF06
:103920008091710390917203A0917303B09174031D
:103930000097A105B10591F10E9446642091F4041D
:103940003091F5044091F6045091F704621B730B1B
:10395000840B950B20917103309172034091730396
:10396000509174032617370748075907B8F4909108
:10397000F60B8091F70B981789F45F9A1092D70491
:103980008A9A1092D8049FB7F894809108018160B8
:10399000809308019FBF1092D904129A0E94003EA2
:1039A0001F910F91FF90EF9008956F927F928F92E9
:1039B0009F92AF92BF92CF92DF92EF92FF920F93BE
:1039C0001F93F82E6091FC047091FD048091FE0419
:1039D0009091FF042091000530910105409102056E
:1039E000509103050E94046A3B014C0100D000D0B5
:1039F0000DB71EB70F5F1F4F60915A0370915B03A5
:103A0000882777FD8095982F0E948B6820917503F9
:103A10003091760340917703509178030E94C96AF0
:103A200020E030E040E752E40E94F06720E030E020
:103A300048EC52E40E94F0675B016C01F80160827F
:103A4000718282829382F4828091DE0485838FEA80
:103A500094E068E075E04CEF54E020E001E032E0F3
:103A6000E32E0E94EF368091080590910905A09100
:103A70000A05B0910B058093AF049093B004A09316
:103A8000B104B093B20480910C0590910D05A09102
:103A90000E05B0910F058093B3049093B404A093E6
:103AA000B504B093B6048091100590911105A091D2
:103AB0001205B09113058093B7049093B804A093B6
:103AC000B904B093BA048091140590911505A091A2
:103AD0001605B09117058093BB049093BC04A09386
:103AE000BD04B093BE048DB79EB706960FB6F8948A
:103AF0009EBF0FBE8DBF0E9446646093F404709316
:103B0000F5048093F6049093F7041F910F91FF90B2
:103B1000EF90DF90CF90BF90AF909F908F907F906D
:103B20006F900895CF92DF92EF92FF920F931F93C1
:103B300088E095E0A1DD0E9446646093F4047093F0
:103B4000F5048093F6049093F7046091AF047091AC
:103B5000B0048091B1049091B20420910805309195
:103B6000090540910A0550910B050E94E9678823D9
:103B700009F07AC06091B3047091B4048091B504E7
:103B80009091B60420910C0530910D0540910E05E1
:103B900050910F050E94E967882309F065C0609184
:103BA000750370917603809177039091780320E0FC
:103BB00030E040E752E40E94F0677B018C0188E02E
:103BC00095E06CE075E040E155E024E135E0EEED94
:103BD000CE2EE4E0DE2E0E940741809108059091F0
:103BE0000905A0910A05B0910B058093AF0490934D
:103BF000B004A093B104B093B20480910C059091ED
:103C00000D05A0910E05B0910F058093B30490931C
:103C1000B404A093B504B093B604809110059091BC
:103C20001105A0911205B09113058093B7049093EC
:103C3000B804A093B904B093BA048091140590918C
:103C40001505A0911605B09117058093BB049093BC
:103C5000BC04A093BD04B093BE041F910F91FF90CC
:103C6000EF90DF90CF90089560915A0370915B03BD
:103C7000882777FD8095982F0E948B682091750387
:103C80003091760340917703509178030E94C96A7E
:103C900020E030E040E752E40E94F06720E030E0AE
:103CA00048EC52E488CF88EA94E020DBEEEEF3E0C3
:103CB000949108C08091C00085FFFCCF9093C6000E
:103CC000319694919923B1F74091EC045091ED0411
:103CD0006091EE047091EF044F5F5F4F6F4F7F4F25
:103CE00088EA94E02AE030E0BFDB8091C00085FFE5
:103CF000FCCF8AE08093C600CECD2F923F924F92A8
:103D00005F926F927F928F929F92AF92BF92CF926B
:103D1000DF92EF92FF920F931F93DF93CF93CDB774
:103D2000DEB728970FB6F894DEBF0FBECDBF9887D9
:103D30008F838330910508F056C1FC01EA55FA4F94
:103D4000D4903C01660C771C660C771C93012155BE
:103D50003B4F3A83298380E090E0A0E0B0E0F90196
:103D600080839183A283B3838FEA94E063EB74E052
:103D700047EB54E02BEB34E00E94DB3BF301E755CB
:103D8000FA4FE590F590059114916D2D772767FD19
:103D90007095882777FD8095982F0E948B681B016E
:103DA0002C019301285F3A4F3C832B83C801B70154
:103DB00020E030E040EC5FE30E94C96AA20191017B
:103DC0000E94C96AAB81BC816D937D938D939C9356
:103DD0001397F301E65BFC4FFE83ED8360817181F5
:103DE0008281938160937503709376038093770348
:103DF0009093780320E030E040E752E40E94F067BF
:103E00007B018C0188E095E06CE075E040E155E0D5
:103E100024E135E0AEEDCA2EA4E0DA2E0E9407417F
:103E20000E948F4E80E090E0A0E0B0E0E981FA814E
:103E300080839183A283B3838FEA94E063EB74E081
:103E400047EB54E02BEB34E00E94DB3BF301EB54F7
:103E5000FA4F85909590A590B490C501B401905803
:103E6000A20191010E94C96AAB81BC816D937D93CF
:103E70008D939C9313976091750370917603809155
:103E800077039091780320E030E040E752E40E940D
:103E9000F0677B018C0188E095E06CE075E040E123
:103EA00055E024E135E00E9407410E948F4EC50194
:103EB000B401A50194010E941067A20191010E9422
:103EC000C96AEB81FC816083718382839383AD81B6
:103ED000BE816D917D918D919C9120E030E040E01C
:103EE0005FE30E94C96A60937503709376038093C1
:103EF00077039093780320E030E040E752E40E949B
:103F0000F0677B018C0188E095E06CE075E040E1B2
:103F100055E024E135E00E9407410E948F4EF301F5
:103F2000EF53FA4F6591759185919491F301E154A6
:103F3000FB4FA080B180C280D380A60195010E9472
:103F400010677B018C01CB01D801E981FA81808364
:103F50009183A283B383F301E353FA4F6591759183
:103F600085919491FBEC8F2EF4E09F2E860C971C8C
:103F7000A60195010E941067D4016D937D938D93E6
:103F80009C931397F301E752FA4F659175918591D0
:103F90009491E4E6F3E06E0E7F1EA60195010E9467
:103FA0001067D3016D937D938D939C931397C701F5
:103FB000D801EB81FC8180839183A283B38380E06D
:103FC00090E0A0E0B0E08093750390937603A09317
:103FD0007703B09378030E948E4DAF81B885A952C4
:103FE000BB4F81E08C9328960FB6F894DEBF0FBECE
:103FF000CDBFCF91DF911F910F91FF90EF90DF9098
:10400000CF90BF90AF909F908F907F906F905F9078
:104010004F903F902F900895FC01949108C080919B
:10402000C00085FFFCCF9093C600319694919923F0
:10403000B1F788EA94E022E030E01CCBFC019491D7
:1040400008C08091C00085FFFCCF9093C6003196D8
:1040500094919923B1F788EA94E02AE030E0E8C926
:10406000409123055091240520E630E0B901469F98
:104070009001479F300D569F300D1124682F7727F0
:1040800067FD7095C9018B5D9A4F0E94310D9C01AF
:10409000909322058093210580E0232B09F081E095
:1040A00008958091210590912205019660E070E0CD
:1040B0004AE050E00C94D00B8091210590912205AC
:1040C000019660E070E00C94730ACF93DF93EC01EB
:1040D0008091DE048093EB0484E5C2DF882309F439
:1040E00080C0EADF0E945D68262F6093EB046623A0
:1040F00009F477C0E9E4F3E0949108C08091C0002E
:1041000085FFFCCF9093C600319694919923B1F727
:10411000CD36D105C1F0CE36D10544F4C836D1052F
:10412000C1F0C936D10509F04DC010C0CA3DD10556
:1041300039F0CD3DD10509F045C0EBE0F2E03FC0DC
:10414000E2E2F2E031C0E9E3F2E023C0E0E5F2E0D0
:1041500015C0E7E6F2E007C08091C00085FFFCCF04
:1041600031969093C60090819923B1F72BC080912E
:10417000C00085FFFCCF31969093C60090819923B3
:10418000B1F720C08091C00085FFFCCF319690939D
:10419000C60090819923B1F715C08091C00085FFBA
:1041A000FCCF31969093C60090819923B1F70AC055
:1041B0008091C00085FFFCCF31969093C60090811E
:1041C0009923B1F788EA94E0622F40E050E03BD9B0
:1041D0008091C00085FFFCCF8AE08093C60081E01B
:1041E00001C080E0DF91CF910895AF92BF92CF924E
:1041F000DF92EF92FF920F931F93CF93DF931FEA0B
:10420000E12E14E0F12EC8E0D5E000E010E0F80166
:10421000EB52FC4F808124DF882331F14DDF5B01BD
:104220006C01F801E755FB4F8081882311F061E0B4
:1042300002C06091180570E0882777FD8095982F5F
:104240000E948B68F70120813181428153810E9455
:10425000C96A9B01AC01C601B5010E941067688361
:1042600079838A839B8309C0F70180819181A28130
:10427000B38188839983AA83BB830F5F1F4F84E038
:1042800090E0E80EF91E24960430110509F0BFCF26
:1042900086E4E6DE8823D9F00FDF7B018C01609392
:1042A000190570931A0580931B0590931C0520E057
:1042B00030E040E050E00E94F769181644F4E092C4
:1042C0007503F09276030093770310937803DF91E0
:1042D000CF911F910F91FF90EF90DF90CF90BF9003
:1042E000AF90089582DF89E4BBDE882351F0E4DEDD
:1042F0006093FC047093FD048093FE049093FF048C
:104300000CC080E090E0A0E0B0E08093FC049093CB
:10431000FD04A093FE04B093FF048AE4A1DE882389
:1043200051F0CADE60930005709301058093020589
:1043300090930305089580E090E0A0E0B0E08093C2
:10434000000590930105A0930205B093030508951D
:104350002F923F924F925F926F927F928F929F9295
:10436000AF92BF92CF92DF92EF92FF920F931F9383
:10437000DF93CF93CDB7DEB76E970FB6F894DEBF5D
:104380000FBECDBF87E46CDE882309F402C294DE41
:104390000E9458686430710509F43CC065307105AD
:1043A00054F46230710531F16330710554F57723AF
:1043B000CCF40C9472326A35710509F499C16B35ED
:1043C000710534F46C31710511F00C9472325FC0D8
:1043D0006B35710509F490C16C35710511F00C94C1
:1043E00072328FC18091E904882321F4FEDE9ADBCA
:1043F0000C9493328091E904882319F473DF81E0EF
:1044000006C08091E904882329F46CDF80E0CDDACE
:104410000C94933280E524DE882321F4CC24DD241F
:10442000760105C049DE0E945D686B017C0183E571
:1044300017DE882359F040DE20E030E04AE754E4FC
:104440000E94C96A0E945D686B017C010E948F4EC8
:104450000E9446644B015C018C0C9D1CAE1CBF1C71
:104460000E9446646093F4047093F5048093F6040C
:104470009093F70403C00E946C5B2DDA0E9446649F
:10448000681579058A059B05B0F30C94723280910A
:10449000750390917603A0917703B0917803809390
:1044A0001D0590931E05A0931F05B09320058091D4
:1044B0005A0390915B039093AE048093AD0484E61D
:1044C00090E090935B0380935A030E94466460934C
:1044D000F4047093F5048093F6049093F70481E05C
:1044E0000E94954D8091AF049091B004A091B104C9
:1044F000B091B2048093080590930905A0930A0532
:10450000B0930B058091B3049091B404A091B504CD
:10451000B091B60480930C0590930D05A0930E0501
:10452000B0930F058091B7049091B804A091B9049D
:10453000B091BA048093100590931105A0931205D1
:10454000B09313058091BB049091BC04A091BD046D
:10455000B091BE048093140590931505A0931605A1
:10456000B093170580E090E0A0E0B0E08093750381
:1045700090937603A0937703B093780388E570DD7A
:10458000882351F489E56CDD882331F48AE568DD00
:10459000882311F481E001C080E0809379038823AF
:1045A00021F488E55DDD882319F080E090E0A5DB4B
:1045B00080917903882321F489E552DD882319F05D
:1045C00081E090E09ADB88E54BDD8823C9F069DD66
:1045D000611571058105910599F06EDD2091BF048B
:1045E0003091C0044091C1045091C2040E941067F0
:1045F0006093AF047093B0048093B1049093B204BD
:1046000089E52EDD8823C9F04CDD61157105810532
:10461000910599F051DD2091C3043091C40440917B
:10462000C5045091C6040E9410676093B304709350
:10463000B4048093B5049093B604809179038823E1
:1046400021F48AE50DDD882319F082E090E055DB46
:104650008AE506DD8823C9F024DD61157105810531
:10466000910599F029DD2091C7043091C80440914B
:10467000C9045091CA040E9410676093B7047093F4
:10468000B8048093B9049093BA048FEA94E063EB82
:1046900074E047EB54E02BEB34E00E94DB3B80E01E
:1046A0000E94954D80911D0590911E05A0911F05BA
:1046B000B09120058093750390937603A0937703C0
:1046C000B09378038091AD049091AE0490935B0316
:1046D00080935A030E9446646093F4047093F50437
:1046E0008093F6049093F7040E948E4D0C947232DE
:1046F000109218050C94723281E0809318050C9486
:10470000723285E4ADDC882311F40E948F4E5FEA9B
:10471000E52E54E0F52E4FEBC42E44E0D42E00E0FD
:1047200010E0F801EB52FC4F80819ADC882321F1E4
:10473000033059F4C1DCF701608371838283938372
:104740008BEB94E00E94BE3B17C0B6DCF6012081E3
:104750003181428153810E941067F7016083718328
:10476000828393838FEA94E063EB74E047EB54E039
:104770002BEB34E00E94DB3B0F5F1F4F24E030E067
:10478000E20EF31EC20ED31E0430110551F60C9436
:1047900072328DE465DC882311F40C949A318CDC40
:1047A0000E9458686937710511F40C94732C6A37AC
:1047B00071050CF07AC06C35710509F4FDC66D35D4
:1047C0007105CCF56035710509F466C66135710572
:1047D000BCF46231710509F481C66331710534F4AA
:1047E0006131710511F00C947232F8C06F317105AE
:1047F00009F401C16A32710511F00C947232A5C13D
:104800006335710509F465C66435710554F4613585
:10481000710509F445C66235710511F00C947232C8
:1048200054C66435710509F459C66535710511F032
:104830000C947232ABC66D36710509F41DC36E3629
:104840007105BCF46936710509F4F3C16A36710566
:1048500034F46836710511F00C947232BCC16A36BA
:10486000710509F4E2C56B36710511F00C947232D2
:104870000DC66537710509F433C76637710554F401
:104880006237710509F43CC76337710511F00C9468
:10489000723217C76737710509F49DC06837710513
:1048A00011F00C9472320C94712C623E710511F46B
:1048B0000C94002F633E71050CF041C06B3C7105F8
:1048C00011F40C94102E6C3C7105CCF46E3B710508
:1048D00009F4A9C46F3B710534F46C38710511F00B
:1048E0000C94723297C1683C710511F40C94742DCC
:1048F000693C710511F00C9472320C94EE2D6E3CF3
:10490000710511F40C94AC2E6F3C710564F46C3C91
:10491000710511F40C942E2E6D3C710511F00C9460
:1049200072320C944E2E6C3D710511F40C94CA2E0B
:104930006D3D710511F00C9472320C94D92E31E05A
:10494000643F730711F40C947D3081E0653F780774
:10495000F4F491E06E32790711F40C942B30E1E01D
:104960006F327E073CF46D52714011F00C9472323C
:104970000C94562F21E06F32720711F40C943A30E8
:104980006059714011F00C9472320C947A3081E0CD
:10499000673F780711F40C94863091E0683F7907FF
:1049A0006CF4E1E0653F7E0711F40C948030665FA3
:1049B000714011F00C9472320C94833023E0633513
:1049C000720711F40C948930675E734011F00C94F7
:1049D00072320C948531EEE7F2E090C75F988A98C6
:1049E0009FB7F894809108018E7F809308019FBF44
:1049F00012980C9472320E9446646093E50470939E
:104A0000E6048093E7049093E8042091E104309158
:104A1000E2044091E3045091E404621B730B840BA5
:104A2000950B28EE33E040E050E00E94CD6BF22E73
:104A3000E32ED42EC52E8DB79EB708970FB6F894E7
:104A40009EBF0FBE8DBF0DB71EB70F5F1F4FCE01AC
:104A50000196EDB7FEB79283818387E995E0F8016F
:104A600093838283622F732F842F952F2CE330E062
:104A700040E050E00E94CD6BF801358324836F2D18
:104A80007E2D8D2D9C2D2CE330E040E050E00E94E7
:104A9000CD6BF801778366830E944A0DE9E4F3E069
:104AA00094912DB73EB7285F3F4F0FB6F8943EBFA5
:104AB0000FBE2DBF08C08091C00085FFFCCF909332
:104AC000C600319694919923B1F7FE01319607C043
:104AD0008091C00085FFFCCF31969093C6009081F5
:104AE0009923B1F78091C00085FFFCCF8AE08093C5
:104AF000C60080912507882311F40C94723210921D
:104B000025078091DE04082F10E0000F111F055AC1
:104B1000134FF80160817181882777FD8095982F68
:104B20000E948B6820917E0330917F034091800327
:104B3000509181030E94F769181614F00C94723298
:104B4000F801118210820C94723283E589DA88238D
:104B500011F40C947232B0DA0E9458687B018C0117
:104B60006B0180E57DDA882361F0F7FC0AC0FFEF76
:104B7000EF16F10409F02CF49FDA0E9458688B01BB
:104B800002C00DE010E0E9EDF3E080819181801733
:104B9000910711F40C947232329624E0E934F20752
:104BA000A1F70930110529F4D092E004C092DF0486
:104BB00004C017FF02C00C947232802F61E00E9483
:104BC000ED65802F6C2D0E94A066802FB6010E949B
:104BD0000F650C94723288E690E077DA882311F042
:104BE0000C94723283E53CDA882381F065DA2091F7
:104BF000EB04E22EFF24EE0CFF1CEBE5FCE0EE0ED6
:104C0000FF1E0E945868F701718360830E942A5733
:104C10000C94723283E524DA882311F40C947232F6
:104C20004BDA0E94586870935E0C60935D0C0C9494
:104C3000723289E690E049DA882311F00C947232DE
:104C4000E1E9F5E0949108C08091C00085FFFCCFB8
:104C50009093C600319694919923B1F7E091EB04BB
:104C6000F0E0EE0FFF1FEE0FFF1FEF59F34F4081F3
:104C700051816281738188EA94E021E030E00E94F2
:104C80003A1BEEE8F5E0949108C08091C00085FFE2
:104C9000FCCF9093C600319694919923B1F7E0919F
:104CA000EB04F0E0EE0FFF1FE55AF34F60817181D6
:104CB000882777FD8095982F0E948B68AB01BC01F7
:104CC00088EA94E021E030E00E943A1BEAE8F5E04F
:104CD000949108C08091C00085FFFCCF9093C600DE
:104CE000319694919923B1F74091670C5091680CDB
:104CF0006091690C70916A0C88EA94E021E030E0E0
:104D00000E943A1BE7E8F5E0949108C08091C0004A
:104D100085FFFCCF9093C600319694919923B1F70B
:104D200060915D0C70915E0C882777FD8095982FBF
:104D30000E948B68AB01BC0188EA94E021E030E07E
:104D40000E943A1BE4E8F5E0949108C08091C0000D
:104D500085FFFCCF9093C600319694919923B1F7CB
:104D600088EA94E060E070E04AE050E00E94671A50
:104D7000E2E8F5E0949108C08091C00085FFFCCF87
:104D80009093C600319694919923B1F74091610CAC
:104D90005091620C6091630C7091640C88EA94E00D
:104DA00021E030E00E943A1BEFE7F5E0949108C063
:104DB0008091C00085FFFCCF9093C60031969491FE
:104DC0009923B1F760915B0C70915C0C882777FD9B
:104DD0008095982F0E948B68AB01BC0188EA94E013
:104DE00021E030E00E943A1BEBE7F5E0949108C027
:104DF0008091C00085FFFCCF9093C60031969491BE
:104E00009923B1F78091EB040E946F56BC0188EAA8
:104E100094E04AE050E00E94671AE6E7F5E09491DA
:104E200008C08091C00085FFFCCF9093C6003196EA
:104E300094919923B1F78FEF9FEF0E946F56BC01B9
:104E400088EA94E04AE050E00E94671AE7E9F2E05D
:104E500007C08091C00085FFFCCF31969093C600BB
:104E600090819923B1F78091C00085FFFCCF8AE043
:104E70008093C6000C9493328DE690E026D9882367
:104E800011F00C9472321092250783E5E9D888233B
:104E9000A1F012D92091EB04E22EFF24EE0CFF1CAE
:104EA0002BE53CE0E20EF31E0E945868F701718387
:104EB000608381E08093700316C082E5D1D8882397
:104EC00091F0FAD82091EB04E22EFF24EE0CFF1CA7
:104ED0002BE53CE0E20EF31E0E945868F701718357
:104EE00060831092700383E5BBD8882349F0E4D82F
:104EF00060937E0370937F0380938003909381037C
:104F000082E4AED8882349F0D7D860937A037093AF
:104F10007B0380937C0390937D0386E4A1D8882350
:104F200061F0CAD8609382037093830380938403F3
:104F30009093850381E0809325070E942A570E9461
:104F400046644B015C012091EB04E22EFF24109299
:104F5000EA04EE0CFF1CF701E55AF34F6081718102
:104F6000882777FD8095982F0E948B68EE0CFF1C98
:104F700021E63CE0E20EF31EF701208131814281FF
:104F800053810E94F76918161CF481E08093EA04AB
:104F9000CC24CA94DC2C7601E3E7F5E05490EFE6EC
:104FA000F5E06490EBE6F5E074906AE0462E2EC1E1
:104FB000952DE3E7F5E008C08091C00085FFFCCFA8
:104FC0009093C600319694919923B1F7E091EB0448
:104FD000F0E0EE0FFF1FEE0FFF1FEF59F34F408180
:104FE00051816281738188EA94E021E030E00E947F
:104FF0003A1B962DEFE6F5E008C08091C00085FFD2
:10500000FCCF9093C600319694919923B1F76091AB
:10501000EB0488EA94E070E04AE050E00E94671AEE
:10502000972DEBE6F5E008C08091C00085FFFCCF2E
:105030009093C600319694919923B1F7F7FE03C07F
:10504000E8E9F2E028C00E944664A7019601205FCB
:10505000384D4F4F5F4F261B370B480B590BCA017A
:10506000B90128EE33E040E050E00E94CD6B88EAC1
:1050700094E0BA01A9012AE030E00E94181A809158
:10508000C00085FFFCCF0EC08091C00085FFFCCF23
:1050900031969093C60090819923B1F78091C0001A
:1050A00085FFFCCF4092C6000E9446644B015C0124
:1050B0000E946C5B0E946B1CFFEFCF16FFEFDF06B8
:1050C000FFEFEF06FFEFFF0609F052C08091EA0400
:1050D000E091EB04882331F1F0E08F01000F111F04
:1050E000000F111F0F59134FEE0FFF1FE55AF34F1B
:1050F00060817181882777FD8095982F0E948B6849
:1051000020E030E040E85FE30E940F679B01AC01C4
:10511000F80160817181828193810E94F76987FF24
:1051200058C05EC0F0E08F01000F111F000F111F6B
:105130000F59134FEE0FFF1FE55AF34F6081718136
:10514000882777FD8095982F0E948B6820E030E0BB
:1051500040E85FE30E9410679B01AC01F8016081A9
:105160007181828193810E94E967181694F538C095
:10517000F7FC36C0E091EB04F0E08F01000F111F47
:10518000000F111F0F59134FEE0FFF1FE55AF34F7A
:1051900060817181882777FD8095982F0E948B68A8
:1051A0009B01AC01F80160817181828193810E9431
:1051B0000F670E94586897FF07C09095809570957B
:1051C00061957F4F8F4F9F4F643071058105910529
:1051D0003CF00E944664AC01CB01DA016C017D0118
:1051E000FFEFCF16FFEFDF06FFEFEF06FFEFFF0643
:1051F00069F0F7FE02C00C9475320E9446646C1987
:105200007D096051774210F00C9475320E9446641B
:10521000681979098A099B09695E7340804090404A
:1052200008F0C6CE45CF83E50E943020882361F088
:105230000E945C200E94586870935E0C60935D0C25
:1052400081E0809370030FC082E50E9430208823A4
:1052500051F00E945C200E94586870935E0C60932D
:105260005D0C109270030E9446647B018C011092C9
:10527000EA0460915D0C70915E0C882777FD809543
:10528000982F0E948B682091670C3091680C409198
:10529000690C50916A0C0E94F76918160CF080C0D6
:1052A00081E08093EA047CC00E9446646E197F0905
:1052B000800B910B695E73408040904008F46BC096
:1052C000E091DE04F0E0EE0FFF1FEE0FFF1FEF593D
:1052D000F34F40815181628173819B2DE8E6F5E0B7
:1052E00008C08091C00085FFFCCF9093C600319626
:1052F00094919923B1F788EA94E022E030E00E948B
:105300003A1B9C2DE4E6F5E008C08091C00085FFC3
:10531000FCCF9093C600319694919923B1F7609198
:10532000DE0488EA94E070E04AE050E00E94671AE8
:105330009D2DE0E6F5E008C08091C00085FFFCCF20
:105340009093C600319694919923B1F74091670CE0
:105350005091680C6091690C70916A0C88EA94E035
:1053600021E030E00E943A1BE7E9F2E007C08091BB
:10537000C00085FFFCCF31969093C60090819923A1
:10538000B1F78091C00085FFFCCFA092C6000E94BB
:1053900046647B018C010E946C5B0E946B1C0BC0FD
:1053A000E8E6F5E0B490E4E6F5E0C490E0E6F5E088
:1053B000D4907AE0A72E8091EA0420915D0C309180
:1053C0005E0C8823B1F0B901882777FD8095982F6E
:1053D0000E948B682091670C3091680C4091690C99
:1053E00050916A0C0E94F76918160CF45DCF0C946A
:1053F0007F32B901882777FD8095982F0E948B68AE
:105400002091670C3091680C4091690C50916A0CA6
:105410000E94E967882314F00C947F328091700316
:10542000882309F441CF0C947F3283E50E94302019
:10543000882321F10E945C2020E030E040E050E031
:105440000E94E96788231CF460E070E011C00E94AC
:105450005C2020E030E04FE753E40E94F769181623
:105460001CF46FEF70E004C00E945C200E9458683A
:105470007093E0046093DF040C9472328FEF90E03D
:105480009093E0048093DF040C9472321092E00455
:105490001092DF040C947232269A2E980C94723279
:1054A0000E942B570E948F4E129A0E949B4E109280
:1054B000E0041092DF0468EE73E080E090E00E9468
:1054C0005464269A2E9A0C9472321092AC040C9466
:1054D000723281E08093AC040C94723283E50E94B6
:1054E0003020882399F00E945C2020E030E04AE7D9
:1054F00054E40E94C96A0E945D68609371037093CE
:1055000072038093730390937403ECC788E50E9441
:105510003020882309F0FEC789E50E9430208823C7
:1055200009F0F8C78AE50E943020882309F0F2C705
:1055300085E40E943020882309F0ECC70E948F4E3A
:10554000129A0E949B4ECEC75F9A1092D70489E5AB
:105550000E943020882319F08A9A1092D8048AE594
:105560000E943020882351F09FB7F8948091080161
:105570008160809308019FBF1092D90485E40E9446
:105580003020882309F4AEC7129AACC783E50E9485
:1055900030200E945C2020E030E04AE754E40E9482
:1055A000C96A0E945D686093F8047093F90480935F
:1055B000FA049093FB0496C769EC662E66E0762E9B
:1055C00059EB252E56E0352E45E0442E47E0542E6B
:1055D00088249924F401EB52FC4F80810E943020F2
:1055E000882309F45DC0F3E08F1609F052C00E94D1
:1055F0005C205B016C0120E030E040EA51E40E9455
:10560000E96788230CF03FC0F301608171818281DA
:105610009381A60195010E94F0677B018C01609146
:10562000FD067091FE068091FF0690910007A8018B
:1056300097010E94C96A6093FD067093FE068093ED
:10564000FF0690930007F10160817181828193814F
:10565000A80197010E94C96AF10160837183828366
:105660009383F20160817181828193810E948968B4
:10567000A80197010E94C96A0E945D68F2016083D7
:10568000718382839383F301A082B182C282D38229
:1056900007C00E945C20F30160837183828393833F
:1056A0000894811C911C24E030E0620E731E220ECF
:1056B000331E420E531E34E08316910409F08ACF44
:1056C00011C7EFE8F4E0949108C08091C00085FF15
:1056D000FCCF9093C600319694919923B1F702C7FD
:1056E000809121059091220505966AE270E00E9462
:1056F000310DFC01009709F4F5C631971082F2C60E
:10570000ECE8F4E0949108C08091C00085FFFCCFE4
:105710009093C600319694919923B1F74091AF04CC
:105720005091B0046091B1047091B20488EA94E0A1
:1057300022E030E00E943A1BE8E8F4E0949108C0CF
:105740008091C00085FFFCCF9093C6003196949164
:105750009923B1F74091B3045091B4046091B5041A
:105760007091B60488EA94E022E030E00E943A1B8F
:10577000E4E8F4E0949108C08091C00085FFFCCF7C
:105780009093C600319694919923B1F74091B70454
:105790005091B8046091B9047091BA0488EA94E019
:1057A00022E030E00E943A1BE0E8F4E0949108C067
:1057B0008091C00085FFFCCF9093C60031969491F4
:1057C0009923B1F74091BB045091BC046091BD0492
:1057D0007091BE0488EA94E022E030E00E943A1B17
:1057E000E5E7F4E0949108C08091C00085FFFCCF0C
:1057F0009093C600319694919923B1F780E00E946E
:105800007D4E0E948B682091C9063091CA06409156
:10581000CB065091CC060E94F067AB01BC0188EA30
:1058200094E022E030E00E943A1BE1E7F4E094913A
:1058300008C08091C00085FFFCCF9093C6003196D0
:1058400094919923B1F781E00E947D4E0E948B686C
:105850002091CD063091CE064091CF065091D006D2
:105860000E94F067AB01BC0188EA94E022E030E0DE
:105870000E943A1BEDE6F4E0949108C08091C000CC
:1058800085FFFCCF9093C600319694919923B1F790
:1058900082E00E947D4E0E948B682091D10630915B
:1058A000D2064091D3065091D4060E94F067AB0116
:1058B000BC0188EA94E022E030E00E943A1BE7E96C
:1058C000F2E007C08091C00085FFFCCF3196909335
:1058D000C60090819923B1F78091C00085FFFCCF6D
:1058E000FEC580E001C081E00E94954DFBC580911E
:1058F000C00085FFFCCF31969093C600908199231C
:10590000B1F78091C00085FFFCCF8AE08093C6008C
:10591000E5E6F4E0949108C08091C00085FFFCCFDB
:105920009093C600319694919923B1F7659903C07D
:10593000EAE9F2E00AC0EFE9F2E007C08091C000B6
:1059400085FFFCCF31969093C60090819923B1F7E3
:105950008091C00085FFFCCF8AE08093C600EDE512
:10596000F4E0949108C08091C00085FFFCCF909333
:10597000C600319694919923B1F7649903C0EAE97E
:10598000F2E00AC0EFE9F2E007C08091C00085FFB5
:10599000FCCF31969093C60090819923B1F7809106
:1059A000C00085FFFCCF8AE08093C600E5E5F4E007
:1059B000949108C08091C00085FFFCCF9093C600F1
:1059C000319694919923B1F78091030181FD03C031
:1059D000EAE9F2E00AC0EFE9F2E007C08091C00016
:1059E00085FFFCCF31969093C60090819923B1F743
:1059F0008091C00085FFFCCF8AE08093C600EDE473
:105A0000F4E0949108C08091C00085FFFCCF909392
:105A1000C600319694919923B1F78091030180FDDE
:105A200003C0EAE9F2E00AC0EFE9F2E007C08091C2
:105A3000C00085FFFCCF31969093C60090819923DA
:105A4000B1F78091C00085FFFCCF8AE08093C6004B
:105A5000E5E4F4E0949108C08091C00085FFFCCF9C
:105A60009093C600319694919923B1F74B9903C056
:105A7000EAE9F2E00AC0EFE9F2E007C08091C00075
:105A800085FFFCCF31969093C60090819923B1F7A2
:105A90008091C00085FFFCCF8AE08093C600EDE3D3
:105AA000F4E0949108C08091C00085FFFCCF9093F2
:105AB000C600319694919923B1F74A9903C0EAE957
:105AC000F2E00AC0EFE9F2E007C08091C00085FF74
:105AD000FCCF31969093C60090819923B1F78091C5
