:100000000C94280A0C94550A0C94550A0C94550A21
:100010000C94550A0C94550A0C94550A0C94550AE4
:100020000C94550A0C94550A0C94550A0C94550AD4
:100030000C94550A0C94550A0C94550A0C94550AC4
:100040000C94550A0C94164B0C94550A0C94550AB2
:100050000C94550A0C94550A0C9452540C94D55D8A
:100060000C94550A0C9479180C94550A0C94550A62
:100070000C94550A0C94550A0C94550A0C94550A84
:100080000C94550A0C94550A0C94550A0C94550A74
:100090000C94550A0C94550A0C94550A0C94550A64
:1000A0000C94550A0C94550A0C94550A0C94550A54
:1000B0000C94550A0C94550A0C94550A0C94550A44
:1000C0000C94550A0C94550A0C94550A0C94550A34
:1000D0000C94550A0C94550A0C94550A0C94550A24
:1000E0000C94550A084AD73B3BCE016E84BCBFFD39
:1000F000C12F3D6C74319ABD56833DDA3D00C77FF8
:1001000011BED9E4BB4C3E916BAAAABE0000008090
:100110003F05A84CCDB2D44EB93836A9020C50B91F
:10012000918688083CA6AAAA2ABE000000803F65E6
:1001300063686F3A0053746F7265642073657474FA
:10014000696E6773207265747265697665643A00DA
:100150002044002049002020204D33303120500021
:100160005049442073657474696E67733A00205A6D
:100170000020590020204D323036205800486F6D45
:1001800065206F666673657420286D6D293A0020BE
:100190004500205A00205800204200205400202012
:1001A0004D323035205300416476616E63656420C2
:1001B0007661726961626C65733A20533D4D696E78
:1001C00020666565647261746520286D6D2F7329E2
:1001D0002C20543D4D696E2074726176656C2066EA
:1001E0006565647261746520286D6D2F73292C20FC
:1001F000423D6D696E696D756D207365676D656EE5
:10020000742074696D6520286D73292C20583D6D0C
:100210006178696D756D207859206A65726B202848
:100220006D6D2F73292C20205A3D6D6178696D7595
:100230006D205A206A65726B20286D6D2F7329001E
:1002400020540020204D3230342053004163636538
:100250006C65726174696F6E3A20533D61636365CA
:100260006C65726174696F6E2C20543D7265747296
:1002700061637420616363656C65726174696F6E3C
:1002800000204500205A0020590020204D323031F6
:100290002058004D6178696D756D20416363656C10
:1002A00065726174696F6E20286D6D2F7332293A03
:1002B00000204500205A0020590020204D323033C4
:1002C0002058004D6178696D756D206665656472B2
:1002D0006174657320286D6D2F73293A00204500E5
:1002E000205A0020590020204D39322058005374E4
:1002F0006570732070657220756E69743A0053657D
:100300007474696E67732053746F726564006563FB
:10031000686F3A004572726F723A005374616D7083
:10032000616E7465206665726D6174612061206321
:1003300061757361206469206572726F72692E2025
:100340005269736F6C7669206C276572726F726583
:10035000206520757361204D393939207065722010
:10036000726970617274697265212E2028526573FA
:1003700065742074656D70657261747572612E208C
:10038000496D706F7374616C61207072696D61206A
:1003900064692072697061727469726529005374AE
:1003A000616D70616E74652043616C64612E206BB9
:1003B000696C6C282920636869616D617461202112
:1003C00021006F6B005265696E766961746F3A0047
:1003D0002200436F6D616E646F2073636F6E6F7385
:1003E000636975746F3A2022007A5F6D61783A20F4
:1003F000007A5F6D696E3A2000795F6D61783A200E
:1004000000795F6D696E3A2000785F6D61783A20FF
:1004100000785F6D696E3A20005A3A00593A002020
:1004200043616C636F6C6120583A2000453A005A72
:100430003A00593A00583A004649524D5741524500
:100440005F4E414D453A4D61726C696E2056313BAD
:1004500020537072696E7465722F6772626C206DC2
:10046000617368757020666F722067656E3620460E
:1004700049524D574152455F55524C3A6874747019
:10048000733A2F2F7265707261702E6F72672050F1
:10049000524F544F434F4C5F56455253494F4E3A7B
:1004A000312E30204D414348494E455F5459504507
:1004B0003A52657052617020455854525544455225
:1004C0005F434F554E543A310A0020423A002045CE
:1004D0003A00543A0020573A0020453A00543A0076
:1004E0002042403A0020403A00202F0020423A00AB
:1004F000202F006F6B20543A002569206D696E2C07
:10050000202569207365630000007E4300007E4360
:100510000000B243000000000000000000000000E6
:10052000FFFFFF00000000000000000000000000CE
:10053000000000000000000000000000007E4300FA
:10054000007E430000B2435374616D70616E746548
:10055000206665726D6174612061206361757361ED
:10056000206469206572726F72692E205269736F00
:100570006C7669206C276572726F726520652075D4
:100580007361204D3939392070657220726970614C
:100590007274697265212E20285265736574207407
:1005A000656D70657261747572612E20496D706F32
:1005B0007374616C61207072696D6120646920726E
:1005C000697061727469726529006F6B004E6573A2
:1005D00073756E204E756D65726F206469204C696D
:1005E0006E656120636F6E20436865636B73756D24
:1005F0002C20556C74696D61204C696E65613A20E0
:10060000004E657373756E20436865636B73756D1B
:1006100020636F6E204E756D65726F206469204C8B
:10062000696E65612C20556C74696D61204C696E32
:1006300065613A2000636865636B73756D206E6F4A
:100640006E20636F72726973706F6E64656E74652D
:100650002C20556C74696D61204C696E65613A207F
:1006600000496C204E756D65726F2064656C6C611D
:10067000204C696E6561206E6F6E20636F727269C7
:1006800073706F6E646520616C204E756D65726F5E
:100690002064656C6C27556C74696D61204C696EC3
:1006A00065612B312C20556C74696D61204C696E2D
:1006B00065613A20004D313130002020506C616E70
:1006C0006E657242756666657242797465733A202A
:1006D00000204D656D6F726961204C6962657261C1
:1006E0003A20004D617920203920323031340043E6
:1006F0006F6D70696C65643A2000286E6F6E652CB2
:100700002064656661756C7420636F6E6669672925
:1007100000207C204175746F72653A20004D61792C
:1007200020203920323031342032313A34313A31DC
:10073000370020556C74696D6F20416767696F726F
:100740006E616D656E746F3A2000312E302E300070
:100750004D61726C696E200020536F667477617210
:100760006520526573657400205761746368646F17
:1007700067205265736574002042726F776E206F38
:10078000757420526573657400205265736574201A
:1007900045737465726E6F00416363656E73696F54
:1007A0006E65007374617274002200656E71756508
:1007B000696E672022002200656E717565696E673B
:1007C0002022006563686F3A002045766974617481
:1007D0006120657374727573696F6E652074726FD2
:1007E00070706F206C756E6761002045766974616A
:1007F000746120657374727573696F6E65206672BB
:10080000656464610045313A200045303A20005A61
:100810003A2000593A2000583A20004D53312C4DCF
:1008200053322050696E730A0024F404D9201BC48B
:100830000C5C0E9804C4095F0265077101F405F9A8
:1008400000FB04B30048048700C103690058035546
:100850000003034500BE023A008402310053022A1D
:10086000002902250004022000E4011C00C801192F
:1008700000AF0117009801140084011300710110EA
:10088000006101100051010E0043010D0036010B03
:10089000002B010B0020010B00150109000C0109C0
:1008A0000003010800FB000800F3000800EB00074C
:1008B00000E4000600DE000600D8000600D20006B4
:1008C00000CC000500C7000500C2000500BD000403
:1008D00000B9000400B5000400B1000400AD00043C
:1008E00000A9000400A5000300A20003009F00046B
:1008F000009B000300980003009500020093000392
:1009000000900003008D0002008B000300880002AD
:10091000008600020084000300810002007F0002C4
:10092000007D0002007B00020079000200770001D8
:1009300000760002007400020072000100710002E3
:10094000006F0002006D0001006C0002006A0001EF
:1009500000690002006700010066000100650001F7
:1009600000640002006200010061000100600001FB
:10097000005F0002005D0001005C0001005B0001FF
:10098000005A000100590001005800010057000101
:100990000056000100550001005400010053000002
:1009A00000530001005200010051000100500001FD
:1009B000004F0001004E0000004E0001004D0001FC
:1009C000004C0001004B0000004B0001004A0001F8
:1009D00000490001004800000048000100470001F4
:1009E00000460000004600010045000000450001EF
:1009F00000440001004300000043000100420000E9
:100A000000420001004100000041000100400001DF
:100A1000003F0000003F0001003E0000003E0001DA
:100A2000003D0000003D0001003C0000003C0000D3
:100A3000003C0001003B0000003B0001003A0000C8
:100A4000003A0001003900000039000100380000C0
:100A500000380000003800010037000000370001B6
:100A600000360000003600000036000100350000AE
:100A700000350000003500010034000000340000A3
:100A80000034000100330000003300000033000197
:100A9000003200000032000000320001003100008E
:100AA0000031000000310001003000000030000083
:100AB00000300001002F0000002F0000002F000078
:100AC000002F0001002E0000002E0000002E00016B
:100AD000002D0000002D0000002D0000002D000161
:100AE000002C0000002C0000002C0000002C000155
:100AF000002B0000002B0000002B0000002B000149
:100B0000002A0000002A0000002A0000002A00013C
:100B10000029000000290000002900000029000031
:100B20000029000100280000002800000028000023
:100B30000028000000280001002700000027000016
:100B40000027000000270000002700010026000009
:100B500000260000002600000026000000260001FC
:100B600000250000002500000025000000250000F1
:100B700000250000002500010024000000240000E2
:100B800000240000002400000024000100230000D5
:100B900000230000002300000023000000230000C9
:100BA00000230000002300010022000000220000BA
:100BB00000220000002200000022000000220001AC
:100BC00000210000002100000021000000210000A1
:100BD0000021000000210000002100010020000091
:100BE0000020000000200000002000000020000085
:100BF000002000000020000000200001001F000075
:100C0000001F0000001F0000001F0000001F000068
:100C1000001F0000001F0001001E0000001E000059
:100C2000001E0000001E00000024F4D43050C38ECB
:100C300020C2A24017828B7011127A910D816CD95B
:100C40000AA861E108C7586607615143061E4B5D5B
:100C500005C145A7041A411104093D9803713931B2
:100C6000034036DB0265339102D4305402802E1DDE
:100C700002632CEE01752AC501B028A0011027815E
:100C8000018F2564012B244B01E0223401AC211F8C
:100C9000018D200D01801FFC00841EED00971DDFDB
:100CA00000B81CD200E61BC600201BBC00641AB2B0
:100CB00000B219A8000A19A0006A189900D117916A
:100CC0000040178B00B516840031167E00B31579ED
:100CD000003A157300C7146F0058146A00EE1366CB
:100CE000008813630025135E00C7125B006C125767
:100CF0000015125400C111510070114F0021114B09
:100D000000D61049008D10470046104400021042E2
:100D100000C00F4000800F3E00420F3C00060F3B1A
:100D200000CB0E3800930E37005C0E3500270E34D2
:100D300000F30D3200C10D3100900D3000600D2E1A
:100D400000320D2D00050D2C00D90C2B00AE0C2906
:100D500000850C29005C0C2700350C27000E0C26A2
:100D600000E80B2400C40B2400A00B23007D0B2300
:100D7000005A0B2100390B2100180B2000F80A1F24
:100D800000D90A1E00BB0A1E009D0A1D00800A1D14
:100D900000630A1C00470A1B002C0A1B00110A1AD8
:100DA00000F7091A00DD091900C4091900AB091977
:100DB00000920917007B091800630917004C0916F7
:100DC0000036091600200916000A091500F5081555
:100DD00000E0081400CC081400B8081400A408149B
:100DE00000900813007D0812006B081300580812C9
:100DF00000460812003408110023081100120811DF
:100E00000001081100F0071000E0071000D00710E3
:100E100000C0071000B0070F00A107100091070ED7
:100E20000083070F0074070F0065070E0057070EB9
:100E30000049070E003B070D002E070E0020070D8E
:100E40000013070D0006070D00F9060C00ED060D56
:100E500000E0060C00D4060C00C8060C00BC060C12
:100E600000B0060C00A4060B0099060C008D060BC2
:100E70000082060B0077060B006C060B0061060A69
:100E80000057060B004C060A0042060A0038060A04
:100E9000002E060A0024060A001A060A0010060997
:100EA0000007060A00FD050900F4050900EB050925
:100EB00000E2050900D9050900D0050900C70509A8
:100EC00000BE050900B5050800AD050800A5050927
:100ED000009C050800940508008C0508008405089E
:100EE000007C050800740508006C0507006505080E
:100EF000005D050700560508004E05070047050779
:100F0000004005080038050700310507002A0507DD
:100F100000230507001C050600160507000F05073E
:100F2000000805060002050700FB040600F504079B
:100F300000EE040600E8040600E2040700DB0406F5
:100F400000D5040600CF040600C9040600C3040649
:100F500000BD040600B7040600B1040500AC040699
:100F600000A6040600A00405009B040600950405E5
:100F700000900406008A040500850405008004062C
:100F8000007A04050075040500700405006B040573
:100F90000066040500610405005C040500570405B3
:100FA00000520405004D04050048040500430405F3
:100FB000003E0404003A0405003504050030040432
:100FC000002C04050027040400230405001E04046B
:100FD000001A04040016040500110404000D0404A2
:100FE00000090405000404040000040400FC0304D8
:100FF00000F8030400F4030400F0030400EC03040D
:1010000000E8030400E4030400E0030400DC03043C
:1010100000D8030400D4030400D0030400CC03046C
:1010200000C8030300C50303006563686F3A00202E
:101030005A3A0020593A0020583A005261676769CD
:10104000756E746F20696C20666F6E646F206361CB
:101050007272656C6C6F3A20004572726F723A0062
:1010600054656D7065726174757265206865617430
:1010700065642062656420737769746368656420C1
:101080006F66662E204D415854454D50207472694C
:10109000676765726564202121003A204578747283
:1010A00075646572207377697463686564206F6620
:1010B000662E204D494E54454D5020747269676725
:1010C000657265642021003A204578747275646504
:1010D00072207377697463686564206F66662E207A
:1010E0004D415854454D502074726967676572656B
:1010F00064202100202D20496E76616C6964206592
:1011000078747275646572206E756D6265722021E7
:101110000070012C0190012701B0012201C0011DC6
:1011200001F00118011002130130020E01600209E2
:101130000190020401C002FF000003FA004003F521
:10114000008003F000D003EB002004E6007004E10F
:1011500000E004DC004005D700C005D2004006CD09
:1011600000D006C8008007C3003008BE00F008B9F0
:1011700000C009B400B00AAF00B00BAA00D00CA5A3
:1011800000000EA000500F9B00C01096005012915E
:101190000000148C00C0158700B0178200B0197DC4
:1011A00000D01B7800001E730040206E0090226962
:1011B00000F024640040275F0090295A00E02B557E
:1011C00000102E500020304B0010324600E033411A
:1011D0000090353C001037370070383200A0392DB0
:1011E00000B03A2800A03B2300603C1E00103D19CF
:1011F00000903D1400103E0F00703E0A00C03E05F6
:1012000000003F0000504944204175746F74756EB2
:10121000652066696E6973686564202120506C6181
:10122000636520746865204B702C204B6920616ECB
:1012300064204B6420636F6E7374616E74732069F5
:101240006E2074686520636F6E666967757261747D
:10125000696F6E2E6800504944204175746F747533
:101260006E65206661696C6564212074696D656FC7
:1012700075740020403A006F6B20543A006F6B2069
:10128000423A00504944204175746F74756E652070
:101290006661696C6564212054656D706572617466
:1012A00075726520746F206869676800204B643A26
:1012B0002000204B693A2000204B703A2000204348
:1012C0006C617369632050494420002054753A20B2
:1012D00000204B753A2000206D61783A2000206D87
:1012E000696E3A200020643A200020626961733AF6
:1012F000200000002100240027002A002D003000DB
:10130000330001010000040107010A01000022006E
:10131000250028002B002E003100340002010000BF
:10132000050108010B010000200023002600290010
:101330002C002F003200000100000301060109010A
:1013400005050505070508080808020202020A0A41
:10135000080804040404010101010101010103035F
:10136000030303030303040707070C0C0C0C0C0C0A
:101370000C0C0202020206060606060606060B0B07
:101380000B0B0B0B0B0B0102102020080810204048
:101390001020408002010201080402010102040839
:1013A00010204080804020100804020180040201C7
:1013B0008040201008040201080402010102040810
:1013C0001020408001020408102040800000090A1B
:1013D00002080B0C0D0706030401000000000000CA
:1013E00000000000000000000000000000000000FD
:1013F000000000000000000011100F0000000000BD
:1014000000000000000000000000000000000000DC
:101410000000494E46494E4954594E414ECDCCCC20
:101420003D0AD7233C17B7D13877CC2B329595E6B8
:10143000241FB14F0A000020410000C84200401C98
:101440004620BCBE4CCA1B0E5AAEC59D74000D1979
:1014500011241FBECFEFD1E2DEBFCDBF00E00CBF35
:1014600014E0A0E0B2E0E0E2FCEC00E00BBF02C060
:1014700007900D92A431B107D9F71BBE1CE0A4E17F
:10148000B4E001C01D92A53AB107E1F714E1C0E54F
:10149000D4E104C02297FE010E94C865CE34D10772
:1014A000C9F70E94A9600C940E660C940000A0E09D
:1014B000B0E0EDE5FAE00C94DD65EC015B0161154F
:1014C000710519F0FB0191838083F9908F2D90E0D5
:1014D0000E94CC65892BC9F7FDE2FF1621F4F99033
:1014E000EE24E39405C02BE2F21609F4F990EE2401
:1014F0008E0101501040C80162E174E143E050E008
:1015000062D2892BF9F48E010E5F1F4FC80165E18D
:1015100074E145E050E057D2892B19F48E01095F40
:101520001F4FA114B10419F0F50111830083E0FCF1
:1015300004C070E090E080E813C070E090E080E8C4
:101540006FEF07C1C8016AE174E143E050E03BD2AC
:10155000892B69F4A114B10429F470E090E080ECC7
:101560006FE7F7C02296F501D183C083F6CF8824B8
:10157000992440E050E060E070E0EF2DE053EA3065
:10158000A0F5F2E0EF2A8E2D90E09C0128703070DB
:10159000E2FE06C0232B79F50894811C911C2BC018
:1015A000232B19F0089481089108DB01CA0112E08D
:1015B000880F991FAA1FBB1F1A95D1F7480F591FF3
:1015C0006A1F7B1F440F551F661F771F4E0F511D4B
:1015D000611D711D483929E9520729E9620729E18E
:1015E000720748F084E0E82A06C0EE3F31F4E3FCDD
:1015F00039C098E0E92AF990C0CFE53311F0E53120
:1016000089F529912D3219F4E0E1EE2A05C02B323B
:1016100019F081E090E003C0299182E090E0E22F90
:10162000E053EA3018F0C81BD90B1CC020E030E0B2
:10163000FCE020383F075CF4C901880F991F880F30
:10164000991F280F391F220F331F2E0F311DE991CB
:10165000E053EA3068F3E4FE03C0309521953F4F34
:10166000820E931ECE2CDD24E1FE07C0A114B1042E
:1016700021F02197F501D183C083CB01BA010E94EB
:1016800031627B018C01F3E0CF22DD2423E0C2161E
:10169000D10421F417FB109517F910955701680133
:1016A000C801B70120E030E040E050E00E949161C5
:1016B000882309F44AC097FE0DC021E3E22E24E1FD
:1016C000F22E9094819491089394C0E2D0E000E0CF
:1016D00010E012C099E4E92E94E1F92EF6CFF7015B
:1016E0002591359145915491C601B5010E947164CF
:1016F0005B016C018C1A9D0A8C169D0684F7D595AA
:10170000C7950F5F1F4F0630110529F08CEF9FEF33
:10171000E80EF91EF1CFC501D6017C018D018C2D9B
:10172000880F8D2D881F8F3F51F0C601B50120E035
:1017300030E040E050E00E949161882331F482E281
:1017400090E09093A40C8093A30C7E2D9F2D802F6E
:10175000612F272F392F482F562FB901CA01CDB736
:10176000DEB7ECE00C94F9652F923F925F926F9296
:101770007F928F929F92AF92BF92CF92DF92EF9221
:10178000FF920F931F93CF93DF938C011B01EA010C
:101790006115710519F0FB0191838083209749F051
:1017A000CE010297839728F020E030E040E050E03F
:1017B000F6C0F801A1908F018A2D90E00E94CC65BF
:1017C000892BB9F7FDE2AF1631F4F801A1908F0132
:1017D0005524539407C0FBE2AF1619F4F801A19009
:1017E0008F015524209719F0C031D105C1F4F0E3E1
:1017F000AF1679F4F8018081883711F0883549F403
:10180000F801A1800E5F1F4FF2E05F2AC0E1D0E037
:1018100006C0209721F480E3A816E9F427C0C83059
:10182000D10531F1C930D10524F4C230D10531F5EB
:101830000CC0CA30D10589F0C031D105F9F4C12CF2
:10184000D12CE12CB8E0FB2E28C0C12CD12CE12CEE
:10185000A0E4FA2E22C0CAE0D0E0FCECCF2EFCECD3
:10186000DF2EFCECEF2EFCE0FF2E17C0C8E0D0E02E
:10187000C12CD12CE12CE0E1FE2E0FC09E014427AB
:1018800037FD4095542F60E070E080E090E80E94C2
:101890007565C901DA016C017D0120E030E040E0AE
:1018A00050E060E03E01882477FC8094982C70ED35
:1018B000B72EBA0CE9E0EB1570F48A2D81548A3109
:1018C00018F499ECB92E06C08A2D81568A3150F54C
:1018D00089EAB82EBA0C8B2D90E08C179D0714F571
:1018E0006F3FE1F0C216D306E406F506B0F0CA0178
:1018F000B901A40193010E9443659B01AC012B0D2A
:10190000311D411D511D2130F0E03F07F0E04F0730
:10191000F0E85F0710F461E001C06FEFF801A190FB
:101920008F01C5CF2114310481F0662331F00150BD
:101930001040F1011183008308C051FE1AC002500B
:101940001040F1011183008314C067FF12C050FCE6
:1019500005C02FEF3FEF4FEF5FE704C020E030E01E
:1019600040E050E882E290E09093A40C8093A30CB6
:1019700016C050FE08C050954095309521953F4FB8
:101980004F4F5F4F0CC057FF0AC082E290E0909328
:10199000A40C8093A30C2FEF3FEF4FEF5FE7B9014B
:1019A000CA01DF91CF911F910F91FF90EF90DF90CF
:1019B000CF90BF90AF909F908F907F906F905F90EF
:1019C0003F902F900895FB01DC014150504088F07A
:1019D0008D9181341CF08B350CF4805E65916134FF
:1019E0001CF06B350CF4605E861B611171F3990B72
:1019F0000895881BFCCFFB0155915523A9F0BF0129
:101A0000DC014D9145174111E1F759F4CD010590E5
:101A1000002049F04D9140154111C9F3FB014111DE
:101A2000EFCF81E090E001970895FC018191861746
:101A300021F08823D9F7992708953197CF01089588
:101A4000FB01DC014150504030F08D910190801934
:101A500019F40020B9F7881B990B0895AEE0B0E0A7
:101A6000E4E3FDE00C94E5650E891F898EE08C832C
:101A70001A8309838FEF9FE79E838D839E01265EE5
:101A80003F4FCE010196688D798DA9010AD02F8133
:101A90003885020F131FF80110822E96E4E00C9493
:101AA0000166ABE0B0E0E7E5FDE00C94D7653C01F2
:101AB0002B015A01FC0117821682838181FD03C02C
:101AC0006FEF7FEFB9C19AE0892E1E010894211CA7
:101AD000311CF3012381F20123FD859123FF8191C4
:101AE0002F01882309F4A5C1853239F423FD85919E
:101AF00023FF81912F01853221F490E0B301B7D10A
:101B0000E8CF982FFF24EE249924FFE1FF15D0F0B1
:101B10009B3269F09C3228F4903259F0933291F460
:101B20000EC09D3249F0903369F441E024C052E088
:101B3000F52A84E0F82A28C098E0F92A25C0E0E1D7
:101B4000FE2A22C0F7FC29C0892F80538A3070F406
:101B5000F6FE05C0989C902C1124980E15C0E89CA8
:101B6000E02C1124E80EF0E2FF2A0EC09E3229F488
:101B7000F6FC5FC140E4F42A07C09C3619F450E833
:101B8000F52A02C0983649F4F20123FD959123FF0E
:101B900091912F01992309F0B8CF892F8554833073
:101BA00018F08052833038F444E050E0A40EB51EA3
:101BB0005FE359830FC0933631F0933779F0933553
:101BC00009F052C01FC0F5018081898342E050E0D6
:101BD000A40EB51E610101E010E011C0F501C08046
:101BE000D180F6FC03C06FEF7FEF02C0692D70E07B
:101BF00042E050E0A40EB51EC6012ED18C015FE775
:101C0000F52213C0F501C080D180F6FC03C06FEF50
:101C10007FEF02C0692D70E042E050E0A40EB51ED7
:101C2000C6010FD18C0150E8F52AF3FE06C018C09A
:101C300080E290E0B3011BD1EA948E2D90E008176A
:101C40001907B0F30DC0F601F7FC8591F7FE8191FD
:101C50006F0190E0B3010BD1E110EA940150104004
:101C60000115110581F7E2C0943611F0993661F53E
:101C7000F7FE08C0F501208131814281538184E063
:101C800090E00AC0F501808191819C01442737FDD5
:101C90004095542F82E090E0A80EB91E9FE6F922ED
:101CA00057FF09C050954095309521953F4F4F4FB4
:101CB0005F4FE0E8FE2ACA01B901A1012AE030E045
:101CC00002D1D82ED2183FC0953729F41F2D1F7E80
:101CD0002AE030E01DC01F2D197F9F3661F090373C
:101CE00020F4983509F0A5C00FC0903739F0983727
:101CF00009F09FC004C028E030E00AC0106114FD64
:101D0000146020E130E004C014FD166020E132E0F0
:101D100017FF08C0F501608171818281938144E0E1
:101D200050E008C0F50180819181BC0180E090E025
:101D300042E050E0A40EB51EA101C5D0D82ED218A5
:101D40008FE7F82EF122F6FE0BC05EEFF522D914D4
:101D500038F4F4FE07C0F2FC05C08FEEF82202C092
:101D60001D2D01C0192DF4FE0DC0FE01ED0DF11D5C
:101D70008081803319F499EEF92208C01F5FF2FECA
:101D800005C003C08F2D867809F01F5F0F2DF3FC6F
:101D900013C0F0FE0EC01E1510F09D2C0AC09D2C25
:101DA0009E0C911A1E2D05C080E290E0B3015FD019
:101DB0001F5F1E15C8F304C01E1510F4E11A01C000
:101DC000EE2404FF0EC080E390E0B30150D002FF88
:101DD0001BC001FD03C088E790E00EC088E590E0DD
:101DE0000BC0802F867881F001FF02C08BE201C01A
:101DF00080E2F7FC8DE290E0B30139D005C080E3CA
:101E000090E0B30134D09A94D914C8F3DA94F10174
:101E1000ED0DF11D808190E0B30129D0DD20B1F7F7
:101E200005C080E290E0B30122D0EA94EE20C9F729
:101E300050CEF30166817781CB012B96E2E10C94C1
:101E4000F365FC010590615070400110D8F7809552
:101E500090958E0F9F1F0895FC0161507040019076
:101E60000110D8F7809590958E0F9F1F08950F93BE
:101E70001F93CF93DF938C01EB018B8181FF1BC0FC
:101E800082FF0DC02E813F818C819D8128173907EB
:101E900064F4E881F9810193F983E88306C0E88559
:101EA000F985802F1995892B31F48E819F810196B8
:101EB0009F838E8302C00FEF1FEFC801DF91CF9188
:101EC0001F910F910895FA01AA27283051F120316E
:101ED00081F1E8946F936E7F6E5F7F4F8F4F9F4FBE
:101EE000AF4FB1E03ED0B4E03CD0670F781F891F00
:101EF0009A1FA11D680F791F8A1F911DA11D6A0FCE
:101F0000711D811D911DA11D20D009F468943F9180
:101F10002AE0269F11243019305D3193DEF6CF017F
:101F20000895462F4770405D4193B3E00FD0C9F745
:101F3000F6CF462F4F70405D4A3318F0495D31FDB2
:101F40004052419302D0A9F7EACFB4E0A695979505
:101F5000879577956795BA95C9F7009761057105DB
:101F600008959B01AC010A2E069457954795379525
:101F70002795BA95C9F7620F731F841F951FA01D7F
:101F80000895DF93CF93CDB7DEB764970FB6F8947B
:101F9000DEBF0FBECDBF8091000290910102A091E3
:101FA0000202B09103028D879E87AF87B88BFE0136
:101FB0003D9644E650E08081F999FECF1FBA52BDAC
:101FC00041BD80BD0FB6F894FA9AF99A0FBE4F5FE3
:101FD0005F4F4836510511F03196EDCFE1EBF6E059
:101FE0008081F999FECF1FBA52BD41BD80BD0FB6A9
:101FF000F894FA9AF99A0FBE4F5F5F4F4837510530
:1020000011F03196EDCFE1EAF6E08081F999FECF4B
:102010001FBA52BD41BD80BD0FB6F894FA9AF99A25
:102020000FBE4F5F5F4F4838510511F03196EDCF2D
:10203000E1ECF6E08081F999FECF1FBA52BD41BDB7
:1020400080BD0FB6F894FA9AF99A0FBE4F5F5F4FB2
:102050004839510511F03196EDCFE5EDF6E080817C
:10206000F999FECF1FBA52BD41BD80BD0FB6F8949D
:10207000FA9AF99A0FBE4F5F5F4F4C39510511F034
:102080003196EDCFE9EDF6E08081F999FECF1FBAE8
:1020900052BD41BD80BD0FB6F894FA9AF99A0FBEB1
:1020A0004F5F5F4F403A510511F03196EDCFE1EDB2
:1020B000F6E08081F999FECF1FBA52BD41BD80BDC7
:1020C0000FB6F894FA9AF99A0FBE4F5F5F4F443AF1
:1020D000510511F03196EDCFE9EEF6E08081F999E6
:1020E000FECF1FBA52BD41BD80BD0FB6F894FA9A1B
:1020F000F99A0FBE4F5F5F4F483A510511F0319684
:10210000EDCFEDE9F6E08081F999FECF1FBA52BD1F
:1021100041BD80BD0FB6F894FA9AF99A0FBE4F5F91
:102120005F4F4C3A510511F03196EDCFEDEDF6E0F1
:102130008081F999FECF1FBA52BD41BD80BD0FB657
:10214000F894FA9AF99A0FBE4F5F5F4F403B5105E2
:1021500011F03196EDCFE1EEF6E08081F999FECFF6
:102160001FBA52BD41BD80BD0FB6F894FA9AF99AD4
:102170000FBE4F5F5F4F443B510511F03196EDCFDD
:10218000E5EEF6E08081F999FECF1FBA52BD41BD60
:1021900080BD0FB6F894FA9AF99A0FBE4F5F5F4F61
:1021A000483B510511F03196EDCFEFEAF4E0808124
:1021B000F999FECF1FBA52BD41BD80BD0FB6F8944C
:1021C000FA9AF99A0FBE4F5F5F4F443C510511F0E8
:1021D0003196EDCF84EB90E09A83898386E490E09A
:1021E0009C838B832FEF30E03E832D8380EF90E044
:1021F00098878F8384E690E09A8789873C872B872E
:10220000FE0131968081F999FECF1FBA52BD41BDC2
:1022100080BD0FB6F894FA9AF99A0FBE4F5F5F4FE0
:10222000463C510571F7FE0133968081F999FECF46
:102230001FBA52BD41BD80BD0FB6F894FA9AF99A03
:102240000FBE4F5F5F4F483C510511F03196EDCF07
:10225000FE0135968081F999FECF1FBA52BD41BD6E
:1022600080BD0FB6F894FA9AF99A0FBE4F5F5F4F90
:102270004A3C510511F03196EDCFFE013796808131
:10228000F999FECF1FBA52BD41BD80BD0FB6F8947B
:10229000FA9AF99A0FBE4F5F5F4F4C3C510511F00F
:1022A0003196EDCFFE0139968081F999FECF1FBAA4
:1022B00052BD41BD80BD0FB6F894FA9AF99A0FBE8F
:1022C0004F5F5F4F4E3C510511F03196EDCFFE014F
:1022D0003B968081F999FECF1FBA52BD41BD80BDAA
:1022E0000FB6F894FA9AF99A0FBE4F5F5F4F403DD0
:1022F000510511F03196EDCFE0E9F3E08081F999D5
:10230000FECF1FBA52BD41BD80BD0FB6F894FA9AF8
:10231000F99A0FBE4F5F5F4F443D510511F0319662
:10232000EDCFE4E9F3E08081F999FECF1FBA52BD09
:1023300041BD80BD0FB6F894FA9AF99A0FBE4F5F6F
:102340005F4F483D510511F03196EDCFE8E9F3E0DC
:102350008081F999FECF1FBA52BD41BD80BD0FB635
:10236000F894FA9AF99A0FBE4B3D510521F04F5F50
:102370005F4F3196EDCF8091040290910502A091BC
:102380000602B0910702898B9A8BAB8BBC8BFE0146
:10239000719684E690E02081F999FECF1FBA92BD34
:1023A00081BD20BD0FB6F894FA9AF99A0FBE873610
:1023B000910519F001963196EECFEFE2F1E094919C
:1023C00008C08091C00085FFFCCF9093C600319675
:1023D00094919923B1F7EEEFF2E0949108C08091C7
:1023E000C00085FFFCCF9093C6003196949199234D
:1023F000B1F78091C00085FFFCCF8AE08093C600D2
:1024000064960FB6F894DEBF0FBECDBFCF91DF91BB
:102410000895DF93CF93CDB7DEB7E0970FB6F8946A
:10242000DEBF0FBECDBFDE011196E5ECF3E080E12B
:1024300001900D928150E1F7DE015196E5EBF3E05A
:1024400080E101900D928150E1F7DE019196E5EA7D
:10245000F3E080E101900D928150E1F789819A814A
:10246000AB81BC818093B1069093B206A093B30672
:10247000B093B40689899A89AB89BC898093A106F7
:102480009093A206A093A306B093A40689A19AA153
:10249000ABA1BCA18093C1069093C206A093C306D2
:1024A000B093C4068D819E81AF81B8858093B506B7
:1024B0009093B606A093B706B093B8068D899E890F
:1024C000AF89B88D8093A5069093A606A093A70622
:1024D000B093A8068DA19EA1AFA1B8A58093C50613
:1024E0009093C606A093C706B093C80689859A85BF
:1024F000AB85BC858093B9069093BA06A093BB06C2
:10250000B093BC06898D9A8DAB8DBC8D8093A90646
:102510009093AA06A093AB06B093AC0689A59AA5A2
:10252000ABA5BCA58093C9069093CA06A093CB0621
:10253000B093CC068D859E85AF85B8898093BD0606
:102540009093BE06A093BF06B093C0068D8D9E8D5E
:10255000AF8DB8A18093AD069093AE06A093AF0661
:10256000B093B0068DA59EA5AFA5B8A98093CD0662
:102570009093CE06A093CF06B093D00680E090E86B
:10258000ABE3B5E48093D5069093D606A093D70627
:10259000B093D8068093D9069093DA06A093DB0611
:1025A000B093DC0620E030E040E050E02093D1061C
:1025B0003093D2064093D3065093D40680E29EE433
:1025C000A0E0B0E080939D0690939E06A0939F06A6
:1025D000B093A0062093E9063093EA064093EB06F9
:1025E0005093EC0680E090E0A0EAB1E48093DD0631
:1025F0009093DE06A093DF06B093E0068DEC9CEC92
:10260000ACECBEE38093E1069093E206A093E30670
:10261000B093E40680E090E0A0EAB0E48093E506A1
:102620009093E606A093E706B093E8062093B704DC
:102630003093B8044093B9045093BA042093B30480
:102640003093B4044093B5045093B6042093AF0480
:102650003093B0044093B1045093B2048AE999E9ED
:10266000A1EBB1E48093900390939103A093920324
:10267000B093930385E894EFA0E1BEE380939403C5
:1026800090939503A0939603B093970380E190E70E
:10269000A9E5B4E48093980390939903A0939A03D7
:1026A000B0939B0380E090E0A0E8BFE380939C039D
:1026B00090939D03A0939E03B0939F03E0960FB663
:1026C000F894DEBF0FBECDBFCF91DF910895CF93B9
:1026D000DF93CFE2D1E0FE01949108C08091C00069
:1026E00085FFFCCF9093C600319694919923B1F762
:1026F000EEEEF2E0949108C08091C00085FFFCCF1F
:102700009093C600319694919923B1F78091C000BF
:1027100085FFFCCF8AE08093C600FE019491EFE232
:10272000F1E008C08091C00085FFFCCF9093C60007
:10273000319694919923B1F74091B1065091B20628
:102740006091B3067091B40686EE92E00E94961FE7
:102750004091B5065091B6066091B7067091B806E3
:1027600083EE92E00E94961F4091B9065091BA06FE
:102770006091BB067091BC0680EE92E00E94961FAD
:102780004091BD065091BE066091BF067091C00693
:102790008DED92E00E94961FE8E0F2E007C0809184
:1027A000C00085FFFCCF31969093C600908199239D
:1027B000B1F78091C00085FFFCCF8AE08093C6000E
:1027C000FE019491EFE2F1E008C08091C00085FF26
:1027D000FCCF9093C600319694919923B1F7E3EC26
:1027E000F2E0949108C08091C00085FFFCCF9093E7
:1027F000C600319694919923B1F78091C00085FF6E
:10280000FCCF8AE08093C600FE019491EFE2F1E0F4
:1028100008C08091C00085FFFCCF9093C600319620
:1028200094919923B1F74091A1065091A20660912D
:10283000A3067091A4068AEB92E00E94961F409135
:10284000A5065091A6066091A7067091A80687EB91
:1028500092E00E94961F4091A9065091AA066091AD
:10286000AB067091AC0684EB92E00E94961F4091FB
:10287000AD065091AE066091AF067091B00681EB47
:1028800092E00E94961FE8E0F2E007C08091C0004D
:1028900085FFFCCF31969093C60090819923B1F7C4
:1028A0008091C00085FFFCCF8AE08093C600FE01C6
:1028B0009491EFE2F1E008C08091C00085FFFCCF69
:1028C0009093C600319694919923B1F7E3E9F2E031
:1028D000949108C08091C00085FFFCCF9093C60002
:1028E000319694919923B1F78091C00085FFFCCF78
:1028F0008AE08093C600FE019491EFE2F1E008C007
:102900008091C00085FFFCCF9093C60031969491D2
:102910009923B1F74091C1065091C2066091C30658
:102920007091C4068AE892E00E94A81F4091C506F3
:102930005091C6066091C7067091C80687E892E07C
:102940000E94A81F4091C9065091CA066091CB060B
:102950007091CC0684E892E00E94A81F4091CD06B9
:102960005091CE066091CF067091D00681E892E03A
:102970000E94A81FE8E0F2E007C08091C00085FF38
:10298000FCCF31969093C60090819923B1F7809146
:10299000C00085FFFCCF8AE08093C600FE019491C1
:1029A000EFE2F1E008C08091C00085FFFCCF90937A
:1029B000C600319694919923B1F7ECE4F2E094913A
:1029C00008C08091C00085FFFCCF9093C60031966F
:1029D00094919923B1F78091C00085FFFCCF8AE0E4
:1029E0008093C600FE019491EFE2F1E008C080916F
:1029F000C00085FFFCCF9093C60031969491992337
:102A0000B1F74091D5065091D6066091D7067091E6
:102A1000D80683E492E00E94961F4091D906509117
:102A2000DA066091DB067091DC0680E492E00E9499
:102A3000961FE8E0F2E007C08091C00085FFFCCF60
:102A400031969093C60090819923B1F78091C00090
:102A500085FFFCCF8AE08093C600FE019491EFE2EF
:102A6000F1E008C08091C00085FFFCCF9093C600C4
:102A7000319694919923B1F7E7EAF1E0949108C077
:102A80008091C00085FFFCCF9093C6003196949151
:102A90009923B1F78091C00085FFFCCF8AE0809335
:102AA000C600FE019491EFE2F1E008C08091C00001
:102AB00085FFFCCF9093C600319694919923B1F78E
:102AC0004091D1065091D2066091D3067091D40600
:102AD0008EE991E00E94961F4091E9065091EA0626
:102AE0006091EB067091EC068BE991E00E94961FD5
:102AF00040919D0650919E0660919F067091A006A0
:102B000088E991E00E94A81F4091DD065091DE0601
:102B10006091DF067091E00685E991E00E94961FC2
:102B20004091E1065091E2066091E3067091E4065F
:102B300082E991E00E94961F4091E5065091E606D9
:102B40006091E7067091E8068FE891E00E94961F79
:102B5000E8E0F2E007C08091C00085FFFCCF31962D
:102B60009093C60090819923B1F78091C00085FFB2
:102B7000FCCF8AE08093C600FE019491EFE2F1E081
:102B800008C08091C00085FFFCCF9093C6003196AD
:102B900094919923B1F7EDE7F1E0949108C0809109
:102BA000C00085FFFCCF9093C60031969491992385
:102BB000B1F78091C00085FFFCCF8AE08093C6000A
:102BC000FE019491EFE2F1E008C08091C00085FF22
:102BD000FCCF9093C600319694919923B1F7409120
:102BE000AF045091B0046091B1047091B20484E7D5
:102BF00091E00E94961F4091B3045091B4046091FB
:102C0000B5047091B60481E791E00E94961F40914F
:102C1000B7045091B8046091B9047091BA048EE67B
:102C200091E00E94961FE8E0F2E007C08091C000AA
:102C300085FFFCCF31969093C60090819923B1F720
:102C40008091C00085FFFCCF8AE08093C600FE0122
:102C50009491EFE2F1E008C08091C00085FFFCCFC5
:102C60009093C600319694919923B1F7E0E6F1E094
:102C7000949108C08091C00085FFFCCF9093C6005E
:102C8000319694919923B1F78091C00085FFFCCFD4
:102C90008AE08093C600FE019491EFE2F1E008C063
:102CA0008091C00085FFFCCF9093C600319694912F
:102CB0009923B1F740919003509191036091920351
:102CC0007091930386E591E00E94961F60919403B2
:102CD0007091950380919603909197032DEB37E3C4
:102CE00046E05EE30E949861AB01BC0183E591E0A0
:102CF0000E94841F609198037091990380919A03B8
:102D000090919B032DEB37E346E05EE30E947164F4
:102D1000AB01BC0180E591E00E94841FE8E0F2E095
:102D200007C08091C00085FFFCCF31969093C6000C
:102D300090819923B1F78091C00085FFFCCF8AE094
:102D40008093C600DF91CF9108950F931F93DF9377
:102D5000CF93CDB7DEB764970FB6F894DEBF0FBE42
:102D6000CDBF8091040290910502A0910602B0911E
:102D70000702898B9A8BAB8BBC8BFE013D9604E6D8
:102D800010E0F999FECF12BD01BDF89A80B580839D
:102D90000F5F1F4F0836110511F03196F2CFCE01AB
:102DA0004196BE01635F7F4F43E050E00E94200DDB
:102DB000009709F06FC1E1EBF6E0F999FECF12BD83
:102DC00001BDF89A80B580830F5F1F4F083711054A
:102DD00011F03196F2CFE1EAF6E0F999FECF12BD9B
:102DE00001BDF89A80B580830F5F1F4F0838110529
:102DF00011F03196F2CFE1ECF6E0F999FECF12BD79
:102E000001BDF89A80B580830F5F1F4F0839110507
:102E100011F03196F2CFE5EDF6E0F999FECF12BD53
:102E200001BDF89A80B580830F5F1F4F0C391105E3
:102E300011F03196F2CFE9EDF6E0F999FECF12BD2F
:102E400001BDF89A80B580830F5F1F4F003A1105CE
:102E500011F03196F2CFE1EDF6E0F999FECF12BD17
:102E600001BDF89A80B580830F5F1F4F043A1105AA
:102E700011F03196F2CFE9EEF6E0F999FECF12BDEE
:102E800001BDF89A80B580830F5F1F4F083A110586
:102E900011F03196F2CFEDE9F6E0F999FECF12BDCF
:102EA00001BDF89A80B580830F5F1F4F0C3A110562
:102EB00011F03196F2CFEDEDF6E0F999FECF12BDAB
:102EC00001BDF89A80B580830F5F1F4F003B11054D
:102ED00011F03196F2CFE1EEF6E0F999FECF12BD96
:102EE00001BDF89A80B580830F5F1F4F043B110529
:102EF00011F03196F2CFE5EEF6E0F999FECF12BD72
:102F000001BDF89A80B580830F5F1F4F083B110504
:102F100011F03196F2CFEFEAF4E0F999FECF12BD4D
:102F200001BDF89A80B580830F5F1F4F043C1105E7
:102F300011F03196F2CFFE013196F999FECF12BD14
:102F400001BDF89A80B580830F5F1F4F063C1105C5
:102F500099F7FE013396F999FECF12BD01BDF89A9B
:102F600080B580830F5F1F4F083C110511F031962B
:102F7000F2CFFE013596F999FECF12BD01BDF89A48
:102F800080B580830F5F1F4F0A3C110511F0319609
:102F9000F2CFFE013796F999FECF12BD01BDF89A26
:102FA00080B580830F5F1F4F0C3C110511F03196E7
:102FB000F2CFFE013996F999FECF12BD01BDF89A04
:102FC00080B580830F5F1F4F0E3C110511F03196C5
:102FD000F2CFFE013B96F999FECF12BD01BDF89AE2
:102FE00080B580830F5F1F4F003D110511F03196B2
:102FF000F2CFE0E9F3E0F999FECF12BD01BDF89AF6
:1030000080B580830F5F1F4F043D110511F031968D
:10301000F2CFE4E9F3E0F999FECF12BD01BDF89AD1
:1030200080B580830F5F1F4F083D110511F0319669
:10303000F2CFE8E9F3E0F999FECF12BD01BDF89AAD
:1030400080B580830B3D110521F00F5F1F4F319636
:10305000F2CFEFE2F1E0949108C08091C00085FFCB
:10306000FCCF9093C600319694919923B1F7E5E394
:10307000F1E0949108C08091C00085FFFCCF90934F
:10308000C600319694919923B1F78091C00085FFD5
:10309000FCCF20C0BED9EFE2F1E0949108C080914E
:1030A000C00085FFFCCF9093C60031969491992380
:1030B000B1F7E9E0F2E007C08091C00085FFFCCFE6
:1030C00031969093C60090819923B1F78091C0000A
:1030D00085FFFCCF8AE08093C600F9DA64960FB6CC
:1030E000F894DEBF0FBECDBFCF91DF911F910F913E
:1030F00008951F920F920FB60F920BB60F921124E4
:103100002F933F934F938F939F93EF93FF93409110
:10311000C600E0919404F091950431969F012F77B9
:103120003070319780919604909197042817390751
:1031300039F0EC5EFB4F4083309395042093940468
:10314000FF91EF919F918F914F913F912F910F9010
:103150000BBE0F900FBE0F901F9018959A01AB01F8
:10316000203081EE380780E0480780E0580749F1B9
:1031700082E08093C00060E079E08DE390E00E94FF
:1031800097652150304040405040CA01B90122E0CB
:1031900030E040E050E00E9497653093C5002093F6
:1031A000C4008091C10080618093C1008091C10002
:1031B00088608093C1008091C10080688093C100C5
:1031C00008951092C00020E130E0E7CF20919604EE
:1031D00030919704809194049091950482179307FD
:1031E00019F42FEF3FEF0EC0F901EC5EFB4F808129
:1031F0002F5F3F4F2F7730703093970420939604C2
:10320000282F30E0C9010895809196049091970489
:103210009093950480939404089508952F923F927B
:103220004F925F926F927F928F929F92AF92BF92D6
:10323000CF92DF92EF92FF920F931F93DF93CF9382
:10324000CDB7DEB7A0970FB6F894DEBF0FBECDBFE7
:103250001C016A017B01411551056105710541F4AD
:1032600040E350E060E070E020E030E08BD055C0FB
:10327000882499245401422E55246624772401E0A1
:1032800010E00C0F1D1F080D191DC701B601A30189
:1032900092010E947565F80160830894811C911C5D
:1032A000A11CB11CC701B601A30192010E94756562
:1032B000C901DA016C017D01C114D104E104F104FA
:1032C000F1F681E0E82EF12CEC0EFD1EE80CF91C65
:1032D0003E010894611C711CD501C4010197A1092C
:1032E000B1096C01C818D90815C0F601EE0DFF1D13
:1032F00040814A3010F4405D01C0495C552747FDCC
:103300005095652F752FC10120E030E03BD0089427
:10331000E108F1086E147F0441F7A0960FB6F89407
:10332000DEBF0FBECDBFCF91DF911F910F91FF90F8
:10333000EF90DF90CF90BF90AF909F908F907F9055
:103340006F905F904F903F902F9008952115310519
:1033500039F48091C00085FFFCCF4093C6000895EA
:103360005DCFEF92FF920F931F939A01E62EFF24F9
:1033700000E010E0B801A701E9DF1F910F91FF9075
:10338000EF900895EF92FF920F931F93CF93DF93E7
:10339000EC017A018B012115310539F48091C000CF
:1033A00085FFFCCFE092C60019C02A303105A9F490
:1033B00077FF0FC04DE250E060E070E020E030E0C9
:1033C000E1DF10950095F094E094E11CF11C011DE3
:1033D000111DCE01B801A7012AE020DFDF91CF91B6
:1033E0001F910F91FF90EF900895EF92FF920F932E
:1033F0001F937B019A010027F7FC0095102FB8015D
:10340000A701C0DF1F910F91FF90EF9008950F93D8
:103410001F938C014DE050E060E070E020E030E070
:10342000B1DFC8014AE050E060E070E020E030E049
:10343000A9DF1F910F910895CF92DF92EF92FF9233
:103440000F931F938C019A016B01EE24FF24B701A7
:10345000A6017CDFC801DBDF1F910F91FF90EF9089
:10346000DF90CF9008959F92AF92BF92CF92DF925C
:10347000EF92FF920F931F93CF93DF93EC017A01AA
:103480008B01922ECB01BA0120E030E040E050E009
:103490000E949161882364F4CE014DE250E060E027
:1034A00070E020E030E06EDF17FB109517F9109503
:1034B00020E030E040E05FE3AA240BC0CA01B9017C
:1034C00020E030E040E251E40E9498619B01AC01B1
:1034D000A394A91498F3C801B7010E94B8607B01B6
:1034E0008C010E9405625B016C010E9431629B01AC
:1034F000AC01C801B7010E94B7607B018C01CE010D
:10350000B601A5012AE030E021DF992099F1E1E23E
:10351000F2E007C08091C00085FFFCCF3196909308
:10352000C60090819923B1F725C0C801B70120E0FA
:1035300030E040E251E40E9471647B018C010E9402
:1035400000625B016C01CC24B7FCC094DC2CCE0182
:10355000B601A5012AE030E015DFC601B5010E94E1
:1035600033629B01AC01C801B7010E94B7607B01C7
:103570008C019A949920C9F6DF91CF911F910F91F8
:10358000FF90EF90DF90CF90BF90AF909F90089505
:103590006ACF0895EF92FF920F931F93CF93DF931B
:1035A000EC01E090BB04F090BC040091BD041091CC
:1035B000BE04688179818A819B81A80197010E945C
:1035C0009161882324F4E882F9820A831B83E090C6
:1035D000BF04F090C0040091C1041091C2046C813A
:1035E0007D818E819F81A80197010E94916188232E
:1035F00024F4EC82FD820E831F83E090C304F090DC
:10360000C4040091C5041091C604688579858A8533
:103610009B85A80197010E949161882324F4E88684
:10362000F9860A871B87E0906A03F0906B0300918C
:103630006C0310916D03688179818A819B81A80157
:1036400097010E949F63181624F4E882F9820A8386
:103650001B83E0906E03F0906F0300917003109154
:1036600071036C817D818E819F81A80197010E94E9
:103670009F63181624F4EC82FD820E831F83E09072
:103680007203F090730300917403109175036885C1
:1036900079858A859B85A80197010E949F631816EA
:1036A00024F4E886F9860A871B87DF91CF911F9162
:1036B0000F91FF90EF9008958091D20408950E9499
:1036C0008B538091D204882309F036C081E0809327
:1036D000D2048091D4049091D504A091D604B091E5
:1036E000D7048093D8049093D904A093DA04B093BC
:1036F000DB04E4E1F3E0949108C08091C00085FF11
:10370000FCCF9093C600319694919923B1F7EBE1E9
:10371000F3E0949108C08091C00085FFFCCF9093A6
:10372000C600319694919923B1F78091C00085FF2E
:10373000FCCF8AE08093C6000895F8940E948B53D2
:103740005F9A8A9A8FB7F89490910801916090934C
:1037500008018FBF129A8CE060E00E94C45FE4E130
:10376000F3E0949108C08091C00085FFFCCF909356
:10377000C600319694919923B1F7EEE9F3E0949164
:1037800008C08091C00085FFFCCF9093C6003196A1
:1037900094919923B1F78091C00085FFFCCF8AE016
:1037A0008093C600FFCF0E941D5E6093DC0470937F
:1037B000DD048093DE049093DF04E2ECF3E0949167
:1037C00008C08091C00085FFFCCF9093C600319661
:1037D00094919923B1F78091C00085FFFCCF8AE0D6
:1037E0008093C6000895EF92FF920F931F930E945B
:1037F0001D5EE090E004F090E1040091E20410917D
:10380000E3042091DC043091DD044091DE0450910A
:10381000DF04621B730B840B950BE616F706080793
:10382000190730F4E114F1040105110509F085DFF1
:103830008091760390917703A0917803B0917903FA
:103840000097A105B10561F10E941D5E2091DC0485
:103850003091DD044091DE045091DF04621B730B54
:10386000840B950B20917603309177034091780378
:1038700050917903261737074807590788F4909124
:10388000DE0B8091DF0B981759F45F9A8A9A9FB7E5
:10389000F894809108018160809308019FBF129A7B
:1038A0000E94A63A1F910F91FF90EF9008956F929A
:1038B0007F928F929F92AF92BF92CF92DF92EF92C0
:1038C000FF920F931F93F82E6091E4047091E5042A
:1038D0008091E6049091E7042091E8043091E90496
:1038E0004091EA045091EB040E94AC633B014C010F
:1038F00000D000D00DB71EB70F5F1F4F6091660359
:1039000070916703882777FD8095982F0E94336216
:1039100020917A0330917B0340917C0350917D0389
:103920000E94716420E030E040E752E40E94986118
:1039300020E030E048EC52E40E9498615B016C01A9
:10394000F8016082718282829382F4828091C7043E
:1039500085838FE994E060EF74E044EE54E020E06A
:1039600001E032E0E32E0E94C6338091F004909192
:10397000F104A091F204B091F30480939F0490931A
:10398000A004A093A104B093A2048091F4049091A8
:10399000F504A091F604B091F7048093A3049093EA
:1039A000A404A093A504B093A6048091F804909178
:1039B000F904A091FA04B091FB048093A7049093BA
:1039C000A804A093A904B093AA048091FC04909148
:1039D000FD04A091FE04B091FF048093AB0490938A
:1039E000AC04A093AD04B093AE048DB79EB7069619
:1039F0000FB6F8949EBF0FBE8DBF0E941D5E6093F0
:103A0000DC047093DD048093DE049093DF041F9147
:103A10000F91FF90EF90DF90CF90BF90AF909F906D
:103A20008F907F906F900895CF92DF92EF92FF92E8
:103A30000F931F9380EF94E0ADDD0E941D5E6093B5
:103A4000DC047093DD048093DE049093DF046091C6
:103A50009F047091A0048091A1049091A2042091F0
:103A6000F0043091F1044091F2045091F3040E946B
:103A70009161882309F07AC06091A3047091A40435
:103A80008091A5049091A6042091F4043091F5044E
:103A90004091F6045091F7040E949161882309F047
:103AA00065C060917A0370917B0380917C03909153
:103AB0007D0320E030E040E752E40E9498617B0102
:103AC0008C0180EF94E064EF74E048EF54E02CEF59
:103AD00034E0E7ECCE2EE4E0DE2E0E94B13D809192
:103AE000F0049091F104A091F204B091F30480935A
:103AF0009F049093A004A093A104B093A20480918A
:103B0000F4049091F504A091F604B091F704809329
:103B1000A3049093A404A093A504B093A604809159
:103B2000F8049091F904A091FA04B091FB048093F9
:103B3000A7049093A804A093A904B093AA04809129
:103B4000FC049091FD04A091FE04B091FF048093C9
:103B5000AB049093AC04A093AD04B093AE041F915A
:103B60000F91FF90EF90DF90CF90089560916603E2
:103B700070916703882777FD8095982F0E943362A4
:103B800020917A0330917B0340917C0350917D0317
:103B90000E94716420E030E040E752E40E949861A6
:103BA00020E030E048EC52E488CF88E994E02CDB58
:103BB000E5ECF3E0949108C08091C00085FFFCCF54
:103BC0009093C600319694919923B1F74091D40413
:103BD0005091D5046091D6047091D7044F5F5F4F28
:103BE0006F4F7F4F88E994E02AE030E0CBDB809193
:103BF000C00085FFFCCF8AE08093C600D4CD2F9211
:103C00003F924F925F926F927F928F929F92AF926C
:103C1000BF92CF92DF92EF92FF920F931F93DF93A9
:103C2000CF9300D000D0CDB7DEB78C0183309105A3
:103C300008F051C13C01660C771C660C771C93019F
:103C400021563B4F3A83298380E090E0A0E0B0E02A
:103C5000F90180839183A283B3838FE994E063EABF
:103C600074E047EA54E02BEA34E00E948138F30123
:103C7000E85FFA4F6591759185919491005E1A4FB6
:103C8000F801E490930120513B4F3E832D8320E0C7
:103C900030E040EC5FE30E9471645B016C01FF2443
:103CA000E7FCF0940F2D1F2DC801B7010E9433626D
:103CB0001B012C01C601B501A20191010E94716492
:103CC000AD81BE816D937D938D939C931397F3018A
:103CD000EA5AFC4FFC83EB8360817181828193817E
:103CE00060937A0370937B0380937C0390937D03AE
:103CF00020E030E040E752E40E9498617B018C01B3
:103D000080EF94E064EF74E048EF54E02CEF34E08F
:103D1000A7ECCA2EA4E0DA2E0E94B13D0E94FD4A13
:103D200080E090E0A0E0B0E0E981FA8180839183B7
:103D3000A283B3838FE994E063EA74E047EA54E036
:103D40002BEA34E00E948138F301EC5EFA4F859053
:103D50009590A590B490C501B4019058A20191012D
:103D60000E947164AD81BE816D937D938D939C9310
:103D7000139760917A0370917B0380917C039091FB
:103D80007D0320E030E040E752E40E9498617B012F
:103D90008C0180EF94E064EF74E048EF54E02CEF86
:103DA00034E00E94B13D0E94FD4AC501B401A50165
:103DB00094010E94B860A20191010E947164ED819A
:103DC000FE816083718382839383AB81BC816D911B
:103DD0007D918D919C9120E030E040E05FE30E9476
:103DE000716460937A0370937B0380937C03909358
:103DF0007D0320E030E040E752E40E9498617B01BF
:103E00008C0180EF94E064EF74E048EF54E02CEF15
:103E100034E00E94B13D0E94FD4AF301ED5DFA4F8E
:103E20006591759185919491F301E155FB4FA080C7
:103E3000B180C280D380A60195010E94B8607B0149
:103E40008C01CB01D801E981FA8180839183A2831F
:103E5000B383F301E15DFA4F65917591859194917A
:103E6000FBEB8F2EF4E09F2E860C971CA60195018C
:103E70000E94B860D4016D937D938D939C931397AA
:103E8000F301E55CFA4F6591759185919491EAE6AD
:103E9000F3E06E0E7F1EA60195010E94B860D3016B
:103EA0006D937D938D939C931397C701D801ED81FA
:103EB000FE8180839183A283B38380E090E0A0E0C1
:103EC000B0E080937A0390937B03A0937C03B0933C
:103ED0007D030E94024A26960FB6F894DEBF0FBEFD
:103EE000CDBFCF91DF911F910F91FF90EF90DF90A9
:103EF000CF90BF90AF909F908F907F906F905F908A
:103F00004F903F902F900895FC01949108C08091AC
:103F1000C00085FFFCCF9093C60031969491992301
:103F2000B1F788E994E022E030E032CBFC019491D3
:103F300008C08091C00085FFFCCF9093C6003196E9
:103F400094919923B1F788E994E022E030E020CB06
:103F5000FC01949108C08091C00085FFFCCF909334
:103F6000C600319694919923B1F788E994E02AE04C
:103F700030E0ECC940910B0550910C0520E630E093
:103F8000B901469F9001479F300D569F300D112477
:103F9000682F772767FD7095C901835F9A4F0E944C
:103FA000150D9C0190930A058093090580E0232B51
:103FB00009F081E008958091090590910A05019624
:103FC00060E070E04AE050E00C94B40B8091090589
:103FD00090910A05019660E070E00C94570ACF9327
:103FE000DF93EC018091C7048093D30484E5C2DFA2
:103FF000882309F46DC0EADF0E940562262F6093D2
:10400000D304662309F464C0EEE0F3E0949108C0A1
:104010008091C00085FFFCCF9093C60031969491AB
:104020009923B1F7C936D10599F0CA36D10524F4E0
:10403000C836D105F1F50FC0CD36D10531F0CA3DF6
:10404000D105B9F5E3E2F2E031C0EEE3F2E023C0DE
:10405000E9E5F2E015C0E4E7F2E007C08091C000B6
:1040600085FFFCCF31969093C60090819923B1F7DC
:1040700020C08091C00085FFFCCF31969093C60090
:1040800090819923B1F715C08091C00085FFFCCFC6
:1040900031969093C60090819923B1F70AC0809120
:1040A000C00085FFFCCF31969093C6009081992384
:1040B000B1F788E994E0622F40E050E052D9809156
:1040C000C00085FFFCCF8AE08093C60081E001C07C
:1040D00080E0DF91CF910895AF92BF92CF92DF92AF
:1040E000EF92FF920F931F93CF93DF931FE9E12E7F
:1040F00014E0F12EC0EFD4E000E010E0F801EB5244
:10410000FC4F808137DF882331F160DF5B016C0178
:10411000F801E756FB4F8081882311F061E002C06F
:104120006091000570E0882777FD8095982F0E94A8
:104130003362F70120813181428153810E94716491
:104140009B01AC01C601B5010E94B8606883798308
:104150008A839B8309C0F70180819181A281B38109
:1041600088839983AA83BB830F5F1F4F84E090E00D
:10417000E80EF91E24960430110509F0BFCF86E43D
:10418000F9DE8823D9F022DF7B018C0160930105E1
:1041900070930205809303059093040520E030E0BE
:1041A00040E050E00E949F63181644F4E0927A03C6
:1041B000F0927B0300937C0310937D03DF91CF91FA
:1041C0001F910F91FF90EF90DF90CF90BF90AF9035
:1041D000089582DF89E4CEDE882351F0F7DE609314
:1041E000E4047093E5048093E6049093E7040CC024
:1041F00080E090E0A0E0B0E08093E4049093E504D8
:10420000A093E604B093E7048AE4B4DE882351F077
:10421000DDDE6093E8047093E9048093EA049093F0
:10422000EB04089580E090E0A0E0B0E08093E80423
:104230009093E904A093EA04B093EB0408952F92BD
:104240003F924F925F926F927F928F929F92AF9226
:10425000BF92CF92DF92EF92FF920F931F93DF9363
:10426000CF93CDB7DEB76E970FB6F894DEBF0FBE13
:10427000CDBF87E47FDE882309F402C2A7DE0E9457
:1042800000626430710509F43CC06530710554F476
:104290006230710531F16330710554F57723CCF448
:1042A0000C94242F6A35710509F499C16B35710599
:1042B00034F46C31710511F00C94242F5FC06B3510
:1042C000710509F490C16C35710511F00C94242F1F
:1042D0008FC18091D204882321F4FEDEA5DB0C94EB
:1042E000452F8091D204882319F473DF81E006C042
:1042F0008091D204882329F46CDF80E0D8DA0C9412
:10430000452F80E537DE882321F4CC24DD24760197
:1043100005C05CDE0E9405626B017C0183E52ADE3C
:10432000882359F053DE20E030E04AE754E40E944D
:1043300071640E9405626B017C010E94FD4A0E942B
:104340001D5E4B015C018C0C9D1CAE1CBF1C0E94B1
:104350001D5E6093DC047093DD048093DE04909313
:10436000DF0403C00E94A2573EDA0E941D5E68155A
:1043700079058A059B05B0F30C94242F80917A036C
:1043800090917B03A0917C03B0917D038093050500
:1043900090930605A0930705B093080580916603E6
:1043A0009091670390939E0480939D0484E690E02F
:1043B00090936703809366030E941D5E6093DC0404
:1043C0007093DD048093DE049093DF0481E00E940B
:1043D000094A80919F049091A004A091A104B091FA
:1043E000A2048093F0049093F104A093F204B0939C
:1043F000F3048091A3049091A404A091A504B0912A
:10440000A6048093F4049093F504A093F604B0936B
:10441000F7048091A7049091A804A091A904B091F9
:10442000AA048093F8049093F904A093FA04B0933B
:10443000FB048091AB049091AC04A091AD04B091C9
:10444000AE048093FC049093FD04A093FE04B0930B
:10445000FF0480E090E0A0E0B0E080937A039093C6
:104460007B03A0937C03B0937D0388E583DD8823E1
:1044700051F489E57FDD882331F48AE57BDD8823EB
:1044800011F481E001C080E080937E03882321F451
:1044900088E570DD882319F080E090E0B0DB809142
:1044A0007E03882321F489E565DD882319F081E006
:1044B00090E0A5DB80917E03882321F48AE55ADD14
:1044C000882319F082E090E09ADB88E553DD8823A9
:1044D000C9F071DD611571058105910599F076DDF1
:1044E0002091AF043091B0044091B1045091B204D6
:1044F0000E94B86060939F047093A0048093A1040D
:104500009093A20489E536DD8823C9F054DD611556
:1045100071058105910599F059DD2091B304309121
:10452000B4044091B5045091B6040E94B860609301
:10453000A3047093A4048093A5049093A6048AE531
:1045400019DD8823C9F037DD6115710581059105F5
:1045500099F03CDD2091B7043091B8044091B90442
:104560005091BA040E94B8606093A7047093A804A5
:104570008093A9049093AA048FE994E063EA74E01D
:1045800047EA54E02BEA34E00E94813880E00E9440
:10459000094A8091050590910605A0910705B09103
:1045A000080580937A0390937B03A0937C03B093D8
:1045B0007D0380919D0490919E0490936703809366
:1045C00066030E941D5E6093DC047093DD0480939B
:1045D000DE049093DF040E94024A0C94242F109270
:1045E00000050C94242F81E0809300050C94242F67
:1045F00085E4C0DC882311F40E94FD4A2FE9E22EF5
:1046000024E0F22E9FEAC92E94E0D92E00E010E0BB
:10461000F801EB52FC4F8081ADDC882321F103309F
:1046200059F4D4DCF70160837183828393838BEA2E
:1046300094E00E94643817C0C9DCF6012081318102
:10464000428153810E94B860F70160837183828345
:1046500093838FE994E063EA74E047EA54E02BEA3D
:1046600034E00E9481380F5F1F4F24E030E0E20EFB
:10467000F31EC20ED31E0430110551F60C94242FE4
:104680008DE478DC882311F40C944C2E9FDC0E947E
:1046900000626737710509F4F9C0683771050CF0DD
:1046A0006CC06535710509F4E2C56635710584F5A0
:1046B0006035710509F47DC561357105BCF4623161
:1046C000710509F483C56331710534F461317105F5
:1046D00011F00C94242FDDC06F31710509F4E6C090
:1046E0006A32710511F00C94242F8CC1623571056A
:1046F00009F465C5623571050CF45EC56335710555
:1047000009F460C56435710511F00C94242F5EC561
:104710006B36710509F448C56C367105BCF4683612
:10472000710509F4ADC16936710534F46C35710554
:1047300011F00C94242FB1C56936710509F4CEC16E
:104740006A36710511F00C94242FFFC4623771058D
:1047500009F447C66337710534F46D36710511F0FD
:104760000C94242F8CC26337710509F41BC665377E
:10477000710511F00C94242F24C66C3D710511F4C1
:104780000C94D92C6D3D7105ACF5693C710511F4A3
:104790000C94E52B6A3C710594F46937710509F4B2
:1047A00013C7693771050CF40DC76C38710509F42E
:1047B00086C16E3B710511F00C94242F16C46C3C1D
:1047C000710511F40C943D2C6D3C71053CF46B3C6F
:1047D000710511F00C94242F0C941F2C6D3C710565
:1047E00011F40C945D2C6E3C710511F00C94242F87
:1047F0000C94BB2C31E06039730711F40C94282E13
:1048000081E061397807F4F491E06D32790711F4B1
:104810000C94F72CE1E06E327E073CF46D3D71059F
:1048200011F00C94242F0C94E82CF1E06E327F07E9
:1048300011F40C94E42D6F52714011F00C94242F5C
:104840000C94E82D31E0663F730711F40C94312E7F
:1048500081E0673F78076CF491E0643F790711F4D9
:104860000C942B2E655F714011F00C94242F0C9446
:104870002E2EF1E0673F7F0711F40C94342E675E13
:10488000734011F00C94242F0C94372EEFE8F2E0D3
:10489000A6C65F988A989FB7F894809108018E7F8A
:1048A000809308019FBF12980C94242F0E941D5ED4
:1048B0006093CE047093CF048093D0049093D1047E
:1048C0002091CA043091CB044091CC045091CD0486
:1048D000621B730B840B950B28EE33E040E050E035
:1048E0000E947565F22EE32ED42EC52E8DB79EB78D
:1048F00008970FB6F8949EBF0FBE8DBF0DB71EB7B9
:104900000F5F1F4FCE010196EDB7FEB792838183F3
:1049100089EF94E0F80193838283622F732F842FB1
:10492000952F2CE330E040E050E00E947565F801DF
:10493000358324836F2D7E2D8D2D9C2D2CE330E02F
:1049400040E050E00E947565F801778366830E941D
:104950002E0DEEE0F3E094912DB73EB7285F3F4F68
:104960000FB6F8943EBF0FBE2DBF08C08091C000A7
:1049700085FFFCCF9093C600319694919923B1F7AF
:10498000FE01319607C08091C00085FFFCCF3196B3
:104990009093C60090819923B1F78091C00085FF64
:1049A000FCCF8AE08093C60080910D07882311F424
:1049B0000C94242F10920D078091C704E82EFF2439
:1049C000EE0CFF1C84E49CE0E80EF91EF701608108
:1049D0007181882777FD8095982F0E9433622091FE
:1049E00083033091840340918503509186030E9494
:1049F0009F63181614F00C94242FF7011182108273
:104A00000C94242F83E5B6DA882311F40C94242F18
:104A1000DDDA0E9400626B017C015B0180E5AADAAD
:104A2000882361F0D7FC0AC0FFEFCF16D10409F04C
:104A30002CF4CCDA0E9400628B0102C00DE010E081
:104A4000E9EDF3E0808191818017910711F40C94D6
:104A5000242F329624E0E934F207A1F717FF02C0B1
:104A60000C94242F802F61E00E94C45F802F6A2D58
:104A70000E947760802FB5010E94E65E0C94242F7F
:104A800088E690E0ACDA882311F00C94242F83E5BB
:104A900071DA882381F09ADA2091D304E22EFF2480
:104AA000EE0CFF1CE4E4FCE0EE0EFF1E0E94006230
:104AB000F701718360830E948A530C94242F83E54D
:104AC00059DA882311F40C94242F80DA0E940062B2
:104AD0007093470C6093460C0C94242F89E690E069
:104AE0007EDA882311F00C94242FE3EFF4E0949104
:104AF00008C08091C00085FFFCCF9093C60031961E
:104B000094919923B1F7E091D304F0E0EE0FFF1FE9
:104B1000EE0FFF1FE65BF34F40815181628173818D
:104B200088E994E021E030E00E94C81AE0EFF4E068
:104B3000949108C08091C00085FFFCCF9093C6007F
:104B4000319694919923B1F7E091D304F0E0EE0F00
:104B5000FF1FEC5BF34F60817181882777FD8095A3
:104B6000982F0E943362AB01BC0188E994E021E0F8
:104B700030E00E94C81AECEEF4E0949108C08091F5
:104B8000C00085FFFCCF9093C60031969491992385
:104B9000B1F74091500C5091510C6091520C7091B2
:104BA000530C88E994E021E030E00E94C81AE9EE55
:104BB000F4E0949108C08091C00085FFFCCF9093F1
:104BC000C600319694919923B1F76091460C70918B
:104BD000470C882777FD8095982F0E943362AB01A0
:104BE000BC0188E994E021E030E00E94C81AE5EEBB
:104BF000F4E0949108C08091C00085FFFCCF9093B1
:104C0000C600319694919923B1F78091D3040E9404
:104C1000CF52BC0188E994E04AE050E00E94F519C7
:104C2000E0EEF4E0949108C08091C00085FFFCCFD5
:104C30009093C600319694919923B1F78FEF9FEF2F
:104C40000E94CF52BC0188E994E04AE050E00E9403
:104C5000F519E0EBF2E007C08091C00085FFFCCFC2
:104C600031969093C60090819923B1F78091C0004E
:104C700085FFFCCF8AE08093C6000C94452F8DE61B
:104C800090E0ADD9882311F00C94242F10920D07D9
:104C900083E570D9882381F099D92091D304E22E3D
:104CA000FF24EE0CFF1C24E43CE0E20EF31E0E9405
:104CB0000062F7017183608383E55CD9882349F042
:104CC00085D96093830370938403809385039093C5
:104CD000860382E44FD9882349F078D960937F0313
:104CE00070938003809381039093820386E442D97A
:104CF000882361F06BD96093870370938803809356
:104D0000890390938A0381E080930D070E948A5360
:104D10000E941D5E4B015C012091D304E22EFF2412
:104D20007724EE0CFF1CF701EC5BF34F608171817F
:104D3000882777FD8095982F0E943362EE0CFF1C28
:104D40002AE43CE0E20EF31EF7012081318142812A
:104D500053810E949F63181614F477247394CC2413
:104D6000CA94DC2C7601EDEDF4E04490E9EDF4E03A
:104D70005490E5EDF4E064905AE0352E29C1942D6D
:104D8000EDEDF4E008C08091C00085FFFCCF90936A
:104D9000C600319694919923B1F7E091D304F0E0E5
:104DA000EE0FFF1FEE0FFF1FE65BF34F40815181B7
:104DB0006281738188E994E021E030E00E94C81AA2
:104DC000952DE9EDF4E008C08091C00085FFFCCF8F
:104DD0009093C600319694919923B1F76091D304D2
:104DE00088E994E070E04AE050E00E94F519962DC1
:104DF000E5EDF4E008C08091C00085FFFCCF909302
:104E0000C600319694919923B1F7F7FE03C0E1EB08
:104E1000F2E028C00E941D5EA7019601205F384D78
:104E20004F4F5F4F261B370B480B590BCA01B90177
:104E300028EE33E040E050E00E94756588E994E098
:104E4000BA01A9012AE030E00E94A6198091C000B1
:104E500085FFFCCF0EC08091C00085FFFCCF31964E
:104E60009093C60090819923B1F78091C00085FF8F
:104E7000FCCF3092C6000E941D5E4B015C010E9477
:104E8000A2570E94F31BFFEFCF16FFEFDF06FFEFE5
:104E9000EF06FFEFFF0609F050C0E091D304772042
:104EA00031F1F0E08F01000F111F000F111F065BA1
:104EB000134FEE0FFF1FEC5BF34F6081718188276A
:104EC00077FD8095982F0E94336220E030E040E823
:104ED0005FE30E94B7609B01AC01F80160817181C2
:104EE000828193810E949F6387FF58C05EC0F0E07B
:104EF0008F01000F111F000F111F065B134FEE0FE4
:104F0000FF1FEC5BF34F60817181882777FD8095EF
:104F1000982F0E94336220E030E040E85FE30E9477
:104F2000B8609B01AC01F80160817181828193813D
:104F30000E949161181694F538C0F7FC36C0E091D4
:104F4000D304F0E08F01000F111F000F111F065B4B
:104F5000134FEE0FFF1FEC5BF34F608171818827C9
:104F600077FD8095982F0E9433629B01AC01F80178
:104F700060817181828193810E94B7600E9400628A
:104F800097FF07C090958095709561957F4F8F4FE3
:104F90009F4F64307105810591053CF00E941D5EB4
:104FA000AC01CB01DA016C017D01FFEFCF16FFEF01
:104FB000DF06FFEFEF06FFEFFF0651F0F7FC47C7F4
:104FC0000E941D5E6C197D096051774208F03FC751
:104FD0000E941D5E681979098A099B09695E734000
:104FE0008040904008F0CBCE4ACF83E50E94BA1FA4
:104FF000882341F00E94E61F0E9400627093470CD4
:105000006093460C0E941D5E7B018C01E2EDF4E092
:10501000B490EEECF4E0C490EAECF4E0D4907AE0E2
:10502000A72E7BC00E941D5E6E197F09800B910B1D
:10503000695E73408040904008F46BC0E091C70403
:10504000F0E0EE0FFF1FEE0FFF1FE65BF34F408116
:105050005181628173819B2DE2EDF4E008C0809163
:10506000C00085FFFCCF9093C600319694919923A0
:10507000B1F788E994E022E030E00E94C81A9C2D44
:10508000EEECF4E008C08091C00085FFFCCF909367
:10509000C600319694919923B1F76091C70488E9CD
:1050A00094E070E04AE050E00E94F5199D2DEAEC92
:1050B000F4E008C08091C00085FFFCCF9093C6004B
:1050C000319694919923B1F74091500C5091510C25
:1050D0006091520C7091530C88E994E021E030E02B
:1050E0000E94C81AE0EBF2E007C08091C00085FF83
:1050F000FCCF31969093C60090819923B1F78091AF
:10510000C00085FFFCCFA092C6000E941D5E7B01FF
:105110008C010E94A2570E94F31B6091460C709173
:10512000470C882777FD8095982F0E943362209145
:10513000500C3091510C4091520C5091530C0E94E4
:105140009F6318160CF46ECF8CC683E50E94BA1FBD
:10515000882319F10E94E61F20E030E040E050E093
:105160000E94916188231CF460E070E011C00E94ED
:10517000E61F20E030E04FE753E40E949F631816DB
:105180001CF46FEF70E004C00E94E61F0E940062F2
:105190007093C9046093C80457C68FEF90E0909352
:1051A000C9048093C80450C61092C9041092C80460
:1051B0004BC6269A2E9848C6269A2E9A45C6109215
:1051C0009C0442C681E080939C043EC683E50E9415
:1051D000BA1F882399F00E94E61F20E030E04AE7DA
:1051E00054E40E9471640E94056260937603709398
:1051F0007703809378039093790326C688E50E940D
:10520000BA1F882309F038C689E50E94BA1F88238F
:1052100009F032C68AE50E94BA1F882309F02CC61D
:1052200085E40E94BA1F882309F026C60E94FD4A21
:10523000129A0E94094B08C65F9A89E50E94BA1F1C
:1052400081118A9A8AE50E94BA1F882341F09FB78C
:10525000F894809108018160809308019FBF85E4E4
:105260000E94BA1F882309F4EFC5129AEDC583E5A1
:105270000E94BA1F0E94E61F20E030E04AE754E493
:105280000E9471640E9405626093E0047093E104DF
:105290008093E2049093E304D7C551EB652E56E06A
:1052A000752E41EA242E46E0342E3DEE432E36E0A4
:1052B000532E88249924F401EB52FC4F80810E94E4
:1052C000BA1F882309F45DC0F3E08F1609F052C0BD
:1052D0000E94E61F5B016C0120E030E040EA51E4EF
:1052E0000E94916188230CF03FC0F30160817181BD
:1052F00082819381A60195010E9498617B018C01B6
:105300006091E5067091E6068091E7069091E806C7
:10531000A80197010E9471646093E5067093E60608
:105320008093E7069093E806F101608171818281A4
:105330009381A80197010E947164F10160837183D8
:1053400082839383F20160817181828193810E94C3
:105350003162A80197010E9471640E940562F20106
:105360006083718382839383F301A082B182C282BE
:10537000D38207C00E94E61FF3016083718382839A
:1053800093830894811C911C24E030E0620E731E0C
:10539000220E331E420E531E34E08316910409F090
:1053A0008ACF52C5E8E3F4E0949108C08091C00030
:1053B00085FFFCCF9093C600319694919923B1F765
:1053C00043C58091090590910A0505966AE270E04F
:1053D0000E94150DFC01009709F436C53197108223
:1053E00033C5E5E3F4E0949108C08091C00085FFE7
:1053F000FCCF9093C600319694919923B1F74091D8
:105400009F045091A0046091A1047091A20488E9C6
:1054100094E022E030E00E94C81AE2E3F4E09491C4
:1054200008C08091C00085FFFCCF9093C6003196E4
:1054300094919923B1F74091A3045091A4046091F1
:10544000A5047091A60488E994E022E030E00E946F
:10545000C81AEFE2F4E0949108C08091C00085FF83
:10546000FCCF9093C600319694919923B1F7409167
:10547000A7045091A8046091A9047091AA0488E936
:1054800094E022E030E00E94C81AECE2F4E094914B
:1054900008C08091C00085FFFCCF9093C600319674
:1054A00094919923B1F74091AB045091AC04609171
:1054B000AD047091AE0488E994E022E030E00E94EF
:1054C000C81AEFE1F4E0949108C08091C00085FF14
:1054D000FCCF9093C600319694919923B1F780E068
:1054E0000E94EB4A0E9433622091B1063091B206CD
:1054F0004091B3065091B4060E949861AB01BC0183
:1055000088E994E022E030E00E94C81AECE1F4E07F
:10551000949108C08091C00085FFFCCF9093C60095
:10552000319694919923B1F781E00E94EB4A0E9451
:1055300033622091B5063091B6064091B70650917E
:10554000B8060E949861AB01BC0188E994E022E0B2
:1055500030E00E94C81AE9E1F4E0949108C080911B
:10556000C00085FFFCCF9093C6003196949199239B
:10557000B1F782E00E94EB4A0E9433622091B906A3
:105580003091BA064091BB065091BC060E949861CA
:10559000AB01BC0188E994E022E030E00E94C81A27
:1055A000E0EBF2E007C08091C00085FFFCCF3196B0
:1055B0009093C60090819923B1F78091C00085FF38
:1055C000FCCF3FC480E001C081E00E94094A3CC496
:1055D0008091C00085FFFCCF31969093C6009081EA
:1055E0009923B1F78091C00085FFFCCF8AE08093BA
:1055F000C600E1E1F4E0949108C08091C00085FF0D
:10560000FCCF9093C600319694919923B1F7659998
:1056100003C0E3EBF2E00AC0EAEBF2E007C08091DE
:10562000C00085FFFCCF31969093C60090819923EE
:10563000B1F78091C00085FFFCCF8AE08093C6005F
:10564000E9E0F4E0949108C08091C00085FFFCCFB0
:105650009093C600319694919923B1F7649903C051
:10566000E3EBF2E00AC0EAEBF2E007C08091C00091
:1056700085FFFCCF31969093C60090819923B1F7B6
:105680008091C00085FFFCCF8AE08093C600E1E0F6
:10569000F4E0949108C08091C00085FFFCCF909306
:1056A000C600319694919923B1F78091030181FD51
:1056B00003C0E3EBF2E00AC0EAEBF2E007C080913E
:1056C000C00085FFFCCF31969093C600908199234E
:1056D000B1F78091C00085FFFCCF8AE08093C600BF
:1056E000E9EFF3E0949108C08091C00085FFFCCF02
:1056F0009093C600319694919923B1F7809103015C
:1057000080FD03C0E3EBF2E00AC0EAEBF2E007C081
:105710008091C00085FFFCCF31969093C6009081A8
:105720009923B1F78091C00085FFFCCF8AE0809378
:10573000C600E1EFF3E0949108C08091C00085FFBE
:10574000FCCF9093C600319694919923B1F74B9971
:1057500003C0E3EBF2E00AC0EAEBF2E007C080919D
:10576000C00085FFFCCF31969093C60090819923AD
:10577000B1F78091C00085FFFCCF8AE08093C6001E
:10578000E9EEF3E0949108C08091C00085FFFCCF62
:105790009093C600319694919923B1F74A9903C02A
:1057A000E3EBF2E00AC0EAEBF2E007C08091C00050
:1057B00085FFFCCF31969093C60090819923B1F775
:1057C0008091C00085FFFCCF3CC325EDC22E23E0B5
:1057D000D22EEE24FF24F60180810E94BA1F882376
:1057E00009F10E94E61F87010F53194F0E940562BD
:1057F000F80160837183828393830E94E61F87018F
:105800000351194FF701EF54F94F20813181428143
:1058100053810E9471640E940562F8016083718364
:10582000828393830894C11CD11C24E030E0E20EF3
:10583000F31E39EDC31633E0D30669F605C305ED53
:1058400013E091EAE92E96E0F92EF80180810E949A
:10585000BA1F882339F00E94E61FF7016083718325
:10586000828393830F5F1F4F24E030E0E20EF31E2C
:1058700033E0093D130749F7E7C283E50E94BA1FE9
:10588000882351F00E94E61F6093D5067093D606D8
:105890008093D7069093D80684E50E94BA1F882388
:1058A00009F4D2C20E94E61F6093D9067093DA060B
:1058B0008093DB069093DC06C7C283E50E94BA1F83
:1058C000882351F00E94E61F6093D1067093D206A0
:1058D0008093D3069093D40684E50E94BA1F882350
:1058E00051F00E94E61F6093E9067093EA068093E8
:1058F000EB069093EC0682E40E94BA1F882361F0C5
:105900000E94E61F0E94056260939D0670939E06AA
:1059100080939F069093A00688E50E94BA1F882373
:1059200051F00E94E61F6093DD067093DE068093BF
:10593000DF069093E0068AE50E94BA1F882351F0A3
:105940000E94E61F6093E1067093E2068093E306EF
:105950009093E40685E40E94BA1F882309F474C278
:105960000E94E61F6093E5067093E6068093E706C3
:105970009093E80669C205ED13E08FEAE82E84E013
:10598000F82EF80180810E94BA1F882339F00E9406
:10599000E61FF70160837183828393830F5F1F4F3C
:1059A00024E030E0E20EF31E33E0083D130749F730
:1059B0004BC283E50E94BA1F882309F445C20E94A6
:1059C000E61F0E94006270936703609366033CC207
:1059D00083E50E94BA1F882309F436C20E94E61F9D
:1059E0000E94006270936903609368032DC280E592
:1059F0000E94BA1F882351F00E94E61F6093900313
:105A000070939103809392039093930389E40E948F
:105A1000BA1F882381F00E94E61F2DEB37E346E092
:105A20005EE30E9471646093940370939503809386
:105A300096039093970384E40E94BA1F882381F011
:105A40000E94E61F2DEB37E346E05EE30E9498617B
:105A5000609398037093990380939A0390939B03A8
:105A600083E40E94BA1F882351F00E94E61F6093CE
:105A70009C0370939D0380939E0390939F030E94C9
:105A8000B852E4ECF2E007C08091C00085FFFCCF83
:105A900031969093C60090819923B1F7E7ECF2E03C
:105AA00007C08091C00085FFFCCF31969093C6005F
:105AB00090819923B1F740919003509191036091A7
:105AC00092037091930388E994E022E030E00E9411
:105AD000C81AEBECF2E007C08091C00085FFFCCF54
