:100000000C94040E0C942F0E0C942F0E0C942F0EA7
:100010000C942F0E0C942F0E0C942F0E0C942F0E6C
:100020000C942F0E0C942F0E0C946DCA0C94E7C8F0
:100030000C942F0E0C942F0E0C942F0E0C942F0E4C
:100040000C942F0E0C9462740C942F0E0C942F0EA3
:100050000C942F0E0C942F0E0C942D7D0C94B0C785
:100060000C942F0E0C942F0E0C942F0E0C942F0E1C
:100070000C942F0E0C942F0E0C942F0E0C942F0E0C
:100080000C942F0E0C942F0E0C942F0E0C942F0EFC
:100090000C94B4C00C942F0E084AD73B3BCE016E93
:1000A00084BCBFFDC12F3D6C74319ABD56833DDACF
:1000B0003D00C77F11BED9E4BB4C3E916BAAAABEDE
:1000C000000000803F05A84CCDB2D44EB93836A907
:1000D000020C50B9918688083CA6AAAA2ABE000044
:1000E00000803F4D383420582059205A2045006563
:1000F00063686F3A0043616E6E6F7420656E74655D
:1001000072207375626469723A20004D3234004D7A
:100110003233202573006175746F25692E670045A1
:1001200072726F723A006572726F722077726974C0
:10013000696E6720746F2066696C65004E6F74206D
:100140005344207072696E74696E67002F005344C7
:10015000207072696E74696E672062797465200020
:100160002E0044656C6574696F6E206661696C650C
:10017000642C2046696C653A200046696C652064F1
:10018000656C657465643A002E006F70656E20665C
:1001900061696C65642C2046696C653A2000577271
:1001A0006974696E6720746F2066696C653A200017
:1001B0002E006F70656E206661696C65642C204648
:1001C000696C653A20002E006F70656E206661696B
:1001D0006C65642C2046696C653A200046696C6544
:1001E0002073656C6563746564002053697A653AB1
:1001F000200046696C65206F70656E65643A20006A
:100200002E006F70656E206661696C65642C2046F7
:10021000696C653A20004E6F7720667265736820BE
:1002200066696C653A20004E6F7720646F696E676F
:100230002066696C653A20002220706F73002220CE
:10024000706172656E743A2200535542524F555494
:10025000494E452043414C4C207461726765743AA5
:100260002200747279696E6720746F2063616C6C10
:10027000207375622D67636F64652066696C6573B2
:10028000207769746820746F6F206D616E79206CBF
:100290006576656C732E204D4158206C6576656CD3
:1002A0002069733A0053442063617264206F6B00CD
:1002B0006F70656E526F6F74206661696C65640063
:1002C000766F6C756D652E696E6974206661696CF8
:1002D000656400534420696E6974206661696C002E
:1002E0006563686F3A0048617264636F6465642097
:1002F00044656661756C742053657474696E6773C8
:10030000204C6F616465640053746F726564207380
:10031000657474696E677320726574726965766559
:1003200064002044002049002020204D333031203B
:1003300050005049442073657474696E67733A00C5
:10034000205A0020590020204D32303620580048D5
:100350006F6D65206F666673657420286D6D293A30
:1003600000204500205A0020580020420020540060
:1003700020204D323035205300416476616E636534
:1003800064207661726961626C65733A20533D4DF9
:10039000696E20666565647261746520286D6D2FD5
:1003A00073292C20543D4D696E2074726176656C02
:1003B00020666565647261746520286D6D2F7329F0
:1003C0002C20423D6D696E696D756D207365676D9A
:1003D000656E742074696D6520286D73292C205812
:1003E0003D6D6178696D756D205859206A65726B35
:1003F00020286D6D2F73292C20205A3D6D6178695E
:100400006D756D205A206A65726B20286D6D2F7393
:10041000292C2020453D6D6178696D756D20452042
:100420006A65726B20286D6D2F732900205400209F
:10043000204D323034205300416363656C65726136
:1004400074696F6E3A20533D616363656C657261D8
:1004500074696F6E2C20543D7265747261637420F0
:10046000616363656C65726174696F6E002045003D
:10047000205A0020590020204D3230312058004DA4
:100480006178696D756D20416363656C6572617437
:10049000696F6E20286D6D2F7332293A0020450058
:1004A000205A0020590020204D3230332058004D72
:1004B0006178696D756D20666565647261746573D8
:1004C00020286D6D2F73293A00204500205A002006
:1004D000590020204D393220580053746570732024
:1004E00070657220756E69743A0053657474696E34
:1004F00067732053746F726564006563686F3A00B8
:100500004572726F723A0053544F505045442E203A
:10051000005072696E7465722073746F70706564D8
:100520002064756520746F206572726F72732E205F
:1005300046697820746865206572726F7220616EFA
:100540006420757365204D39393920746F207265C8
:1005500073746172742E202854656D7065726174B5
:100560007572652069732072657365742E205365FA
:100570007420697420616674657220726573746199
:100580007274696E6729004B494C4C45442E20001B
:100590005072696E7465722068616C7465642E2097
:1005A0006B696C6C28292063616C6C656421006F39
:1005B0006B00526573656E643A20002200556E6BC5
:1005C0006E6F776E20636F6D6D616E643A202200EE
:1005D0004368616E67652066696C616D656E740065
:1005E0007A5F6D696E3A2000795F6D696E3A20001E
:1005F000785F6D696E3A2000205A3A0020593A001F
:1006000020436F756E7420583A200020453A002030
:100610005A3A0020593A00583A004649524D57413B
:1006200052455F4E414D453A4D61726C696E2056A0
:10063000313B20537072696E7465722F6772626C01
:10064000206D617368757020666F722067656E3605
:10065000204649524D574152455F55524C3A6874B5
:100660007470733A2F2F6769746875622E636F6DAB
:100670002F4572696B5A616C6D2F4D61726C696E9A
:100680002F2050524F544F434F4C5F5645525349C1
:100690004F4E3A312E30204D414348494E455F542C
:1006A0005950453A436F70706572686561642045C2
:1006B000585452554445525F434F554E543A312099
:1006C000555549443A30303030303030302D3030AC
:1006D00030302D303030302D303030302D30303023
:1006E0003030303030303030300A00436F70706559
:1006F0007268656164204F66662E004265642064FE
:100700006F6E652E0020423A0020453A00543A00B0
:100710004265642048656174696E672E00486561B2
:1007200074696E6720646F6E652E0020573A002052
:10073000453A00543A0048656174696E672E2E2E62
:10074000002042403A0020403A00202F003A00208A
:100750005400202F0020423A00202F006F6B2054BD
:100760003A002569206D696E2C2025692073656328
:1007700000456E642066696C65206C697374004284
:100780006567696E2066696C65206C697374004EDC
:100790006F206D6F76652E00526573756D696E679B
:1007A000207072696E74005761697420666F7220E0
:1007B000757365722E2E2E00536C6565702E2E2E6D
:1007C00000FFFFFF00007E4300007E430000B243B5
:1007D0000000A0400000A0400000803F000000009A
:1007E0000000000000000000000000000000000009
:1007F0000000000000007E4300007E430000B24382
:10080000256920686F757273202569206D696E7582
:1008100074657300446F6E65207072696E74696EE2
:10082000672066696C650053544F505045442E2034
:10083000005072696E7465722073746F70706564B5
:100840002064756520746F206572726F72732E203C
:1008500046697820746865206572726F7220616ED7
:100860006420757365204D39393920746F207265A5
:1008700073746172742E202854656D706572617492
:100880007572652069732072657365742E205365D7
:100890007420697420616674657220726573746176
:1008A0007274696E6729006F6B004E6F204C696E21
:1008B00065204E756D626572207769746820636883
:1008C00065636B73756D2C204C617374204C696E7D
:1008D000653A20004E6F20436865636B73756D2029
:1008E00077697468206C696E65206E756D626572DB
:1008F0002C204C617374204C696E653A200063684B
:1009000065636B73756D206D69736D617463682CBD
:10091000204C617374204C696E653A20004C696EFE
:1009200065204E756D626572206973206E6F74204C
:100930004C617374204C696E65204E756D626572F2
:100940002B312C204C617374204C696E653A200069
:100950004D31313000446F6E6520736176696E678A
:100960002066696C652E006F6B004D3239002020C7
:10097000506C616E6E65724275666665724279741E
:1009800065733A20002046726565204D656D6F7273
:10099000793A20004D617220203920323031340004
:1009A000436F6D70696C65643A2000286E6F6E65E8
:1009B0002C2064656661756C7420636F6E66696770
:1009C0002900207C20417574686F723A20004D61C7
:1009D0007220203920323031342032303A31383AE6
:1009E000323500204C617374205570646174656405
:1009F0003A2000312E302E30004D61726C696E004D
:100A000020536F6674776172652052657365740058
:100A1000205761746368646F672052657365740062
:100A20002042726F776E206F757420526573657403
:100A3000002045787465726E616C20526573657430
:100A400000506F7765725570007374617274002284
:100A500000656E717565696E672022002200656E03
:100A6000717565696E672022006563686F3A0020C2
:100A7000746F6F206C6F6E67206578747275736920
:100A80006F6E2070726576656E7465640020636FAA
:100A90006C6420657874727573696F6E207072650E
:100AA00076656E746564007C3C3E5E2B3D3F2F5B3B
:100AB0005D3B2C2A225C0045313A200045303A202B
:100AC000005A3A2000593A2000583A20004D53313C
:100AD0002C4D53322050696E730A0024F404D9203F
:100AE0001BC40C5C0E9804C4095F0265077101F415
:100AF00005F900FB04B30048048700C103690058EE
:100B000003550003034500BE023A0084023100533E
:100B1000022A002902250004022000E4011C00C86A
:100B2000011900AF0117009801140084011300712E
:100B30000110006101100051010E0043010D00364B
:100B4000010B002B010B0020010B00150109000C0B
:100B500001090003010800FB000800F3000800EB96
:100B6000000700E4000600DE000600D8000600D200
:100B7000000600CC000500C7000500C2000500BD4E
:100B8000000400B9000400B5000400B1000400AD89
:100B9000000400A9000400A5000300A20003009FB8
:100BA0000004009B000300980003009500020093DE
:100BB000000300900003008D0002008B00030088FA
:100BC0000002008600020084000300810002007F12
:100BD0000002007D0002007B000200790002007725
:100BE0000001007600020074000200720001007132
:100BF0000002006F0002006D0001006C0002006A3C
:100C00000001006900020067000100660001006544
:100C10000001006400020062000100610001006048
:100C20000001005F0002005D0001005C0001005B4C
:100C30000001005A0001005900010058000100574E
:100C4000000100560001005500010054000100534E
:100C5000000000530001005200010051000100504B
:100C60000001004F0001004E0000004E0001004D49
:100C70000001004C0001004B0000004B0001004A45
:100C80000001004900010048000000480001004741
:100C9000000100460000004600010045000000453C
:100CA0000001004400010043000000430001004235
:100CB000000000420001004100000041000100402E
:100CC0000001003F0000003F0001003E0000003E28
:100CD0000001003D0000003D0001003C0000003C20
:100CE0000000003C0001003B0000003B0001003A16
:100CF0000000003A0001003900000039000100380E
:100D00000000003800000038000100370000003704
:100D100000010036000000360000003600010035FA
:100D200000000035000000350001003400000034F0
:100D300000000034000100330000003300000033E5
:100D400000010032000000320000003200010031DA
:100D500000000031000000310001003000000030D0
:100D6000000000300001002F0000002F0000002FC5
:100D70000000002F0001002E0000002E0000002EB9
:100D80000001002D0000002D0000002D0000002DAE
:100D90000001002C0000002C0000002C0000002CA2
:100DA0000001002B0000002B0000002B0000002B96
:100DB0000001002A0000002A0000002A0000002A8A
:100DC000000100290000002900000029000000297E
:100DD0000000002900010028000000280000002871
:100DE0000000002800000028000100270000002764
:100DF0000000002700000027000000270001002657
:100E0000000000260000002600000026000000264A
:100E1000000100250000002500000025000000253D
:100E2000000000250000002500010024000000242F
:100E30000000002400000024000000240001002322
:100E40000000002300000023000000230000002316
:100E50000000002300000023000100220000002207
:100E600000000022000000220000002200000022FA
:100E700000010021000000210000002100000021ED
:100E800000000021000000210000002100010020DE
:100E900000000020000000200000002000000020D2
:100EA0000000002000000020000000200001001FC2
:100EB0000000001F0000001F0000001F0000001FB6
:100EC0000000001F0000001F0001001E0000001EA7
:100ED0000000001E0000001E00000024F4D430506A
:100EE000C38E20C2A24017828B7011127A910D819D
:100EF0006CD90AA861E108C7586607615143061E0C
:100F00004B5D05C145A7041A411104093D980371C1
:100F10003931034036DB0265339102D4305402800C
:100F20002E1D02632CEE01752AC501B028A0011008
:100F30002781018F2564012B244B01E0223401AC71
:100F4000211F018D200D01801FFC00841EED0097E4
:100F50001DDF00B81CD200E61BC600201BBC0064CD
:100F60001AB200B219A8000A19A0006A189900D193
:100F700017910040178B00B516840031167E00B320
:100F80001579003A157300C7146F0058146A00EE03
:100F90001366008813630025135E00C7125B006CA4
:100FA00012570015125400C111510070114F002149
:100FB000114B00D61049008D104700461044000226
:100FC000104200C00F4000800F3E00420F3C000660
:100FD0000F3B00CB0E3800930E37005C0E35002718
:100FE0000E3400F30D3200C10D3100900D30006061
:100FF0000D2E00320D2D00050D2C00D90C2B00AE4E
:101000000C2900850C29005C0C2700350C27000EEC
:101010000C2600E80B2400C40B2400A00B23007D49
:101020000B23005A0B2100390B2100180B2000F86C
:101030000A1F00D90A1E00BB0A1E009D0A1D00805F
:101040000A1D00630A1C00470A1B002C0A1B001122
:101050000A1A00F7091A00DD091900C4091900ABC2
:10106000091900920917007B091800630917004C41
:1010700009160036091600200916000A091500F5A0
:10108000081500E0081400CC081400B8081400A4E7
:10109000081400900813007D0812006B0813005814
:1010A000081200460812003408110023081100122B
:1010B00008110001081100F0071000E0071000D02F
:1010C000071000C0071000B0070F00A10710009123
:1010D000070E0083070F0074070F0065070E005707
:1010E000070E0049070E003B070D002E070E0020DB
:1010F000070D0013070D0006070D00F9060C00EDA3
:10110000060D00E0060C00D4060C00C8060C00BC5E
:10111000060C00B0060C00A4060B0099060C008D0E
:10112000060B0082060B0077060B006C060B0061B5
:10113000060A0057060B004C060A0042060A003851
:10114000060A002E060A0024060A001A060A0010E3
:1011500006090007060A00FD050900F4050900EB71
:10116000050900E2050900D9050900D0050900C7F5
:10117000050900BE050900B5050800AD050800A574
:101180000509009C050800940508008C05080084EA
:101190000508007C050800740508006C050700655B
:1011A0000508005D050700560508004E05070047C5
:1011B0000507004005080038050700310507002A2B
:1011C000050700230507001C050600160507000F8C
:1011D0000507000805060002050700FB040600F5E8
:1011E000040700EE040600E8040600E2040700DB42
:1011F000040600D5040600CF040600C9040600C397
:10120000040600BD040600B7040600B1040500ACE6
:10121000040600A6040600A00405009B0406009531
:10122000040500900406008A04050085040500807A
:101230000406007A04050075040500700405006BBF
:1012400004050066040500610405005C0405005700
:10125000040500520405004D040500480405004340
:101260000405003E0404003A04050035040500307E
:101270000404002C04050027040400230405001EB8
:101280000404001A04040016040500110404000DEF
:10129000040400090405000404040000040400FC24
:1012A000030400F8030400F4030400F0030400EC5A
:1012B000030400E8030400E4030400E0030400DC8A
:1012C000030400D8030400D4030400D0030400CCBA
:1012D000030400C8030300C50303006563686F3A95
:1012E00000656E6473746F7073206869743A205A75
:1012F00000205A3A00656E6473746F7073206869D9
:10130000743A20590020593A00656E6473746F7006
:1013100073206869743A20580020583A00656E645A
:1013200073746F7073206869743A20004572726F2D
:10133000723A004572723A204D415854454D502042
:101340004245440054656D70657261747572652024
:10135000686561746564206265642073776974638D
:10136000686564206F66662E204D415854454D5087
:101370002074726967676572656420212100457277
:10138000723A204D494E54454D50003A20457874EC
:101390007275646572207377697463686564206F21
:1013A00066662E204D494E54454D50207472696733
:1013B00067657265642021004572723A204D41587C
:1013C00054454D50003A204578747275646572201A
:1013D0007377697463686564206F66662E204D417B
:1013E0005854454D50207472696767657265642072
:1013F0002100202D20496E76616C69642065787427
:101400007275646572206E756D6265722021007060
:10141000012C0190012701B0012201C0011D01F042
:101420000118011002130130020E0160020901903F
:10143000020401C002FF000003FA004003F500802F
:1014400003F000D003EB002004E6007004E100E0AC
:1014500004DC004005D700C005D2004006CD00D016
:1014600006C8008007C3003008BE00F008B900C0FD
:1014700009B400B00AAF00B00BAA00D00CA5000060
:101480000EA000500F9B00C010960050129100005B
:10149000148C00C0158700B0178200B0197D00D0F1
:1014A0001B7800001E730040206E0090226900F03F
:1014B00024640040275F0090295A00E02B5500105B
:1014C0002E500020304B0010324600E03341009097
:1014D000353C001037370070383200A0392D00B08D
:1014E0003A2800A03B2300603C1E00103D190090EC
:1014F0003D1400103E0F00703E0A00C03E05000083
:101500003F0000504944204175746F74756E65202A
:1015100066696E697368656421205075742074680B
:1015200065206C617374204B702C204B6920616EB8
:1015300064204B6420636F6E7374616E74732066F5
:10154000726F6D2061626F766520696E746F2043E3
:101550006F6E66696775726174696F6E2E68005090
:101560004944204175746F74756E65206661696CBD
:101570006564212074696D656F75740020403A00C0
:101580006F6B20543A006F6B20423A005049442060
:101590004175746F74756E65206661696C65642150
:1015A0002054656D706572617475726520746F6F1B
:1015B000206869676800204B643A2000204B693A34
:1015C0002000204B703A200020436C6173736963E4
:1015D0002050494420002054753A2000204B753A91
:1015E0002000206D61783A2000206D696E3A20005D
:1015F00020643A200020626961733A20002D2D3A60
:101600002D2D002D2D2D00534400205900012000C8
:101610000120004D323100496E69742E2053442060
:1016200063617264004E6F205344206361726400F2
:101630004D3231004368616E676520534420636119
:101640007264005072696E742066726F6D2053442C
:101650000053746F70207072696E740052657375F8
:101660006D65207072696E740050617573652070CD
:1016700072696E7400436F6E74726F6C00507265A5
:10168000706172650054756E6500496E666F2073F7
:10169000637265656E00052E2E004D61696E004D0A
:1016A0003234004D3233202573004D383420582019
:1016B00059205A204500526573746F726520666127
:1016C000696C73616665004C6F6164206D656D6F58
:1016D00072790053746F7265206D656D6F72790059
:1016E0004D6F74696F6E0054656D706572617475CD
:1016F0007265004D61696E004573746570732F6D7E
:101700006D004573746570732F6D6D005A73746549
:1017100070732F6D6D005A73746570732F6D6D004B
:101720005973746570732F6D6D00597374657073A0
:101730002F6D6D005873746570732F6D6D00587345
:10174000746570732F6D6D00412D726574726163E5
:101750007400412D7265747261637400416D61782B
:10176000206500416D6178206500416D6178207AC7
:1017700000416D6178207A00416D617820790041E7
:101780006D6178207900416D6178207800416D614C
:10179000782078005654726176206D696E00565438
:1017A000726176206D696E00566D696E00566D69C6
:1017B0006E00566D6178206500566D617820650079
:1017C000566D6178207A00566D6178207A00566DEA
:1017D0006178207900566D6178207900566D6178C6
:1017E000207800566D617820780056652D6A657204
:1017F0006B0056652D6A65726B00567A2D6A6572AC
:101800006B00567A2D6A65726B005678792D6A6581
:10181000726B005678792D6A65726B00416363655F
:101820006C00416363656C00436F6E74726F6C0093
:10183000507265686561742041425320636F6E6623
:10184000005072656865617420504C4120636F6E72
:1018500066005049442D43005049442D43005049EF
:10186000442D44005049442D44005049442D490022
:101870005049442D49005049442D50005049442DB1
:1018800050002002204661637400200220466163FC
:1018900074002002204D6178002002204D61780004
:1018A0002002204D696E002002204D696E004F66B7
:1018B00066004F6E20004F6666004F6E2000417537
:1018C000746F74656D700046616E20737065656439
:1018D0000046616E20737065656400426564004275
:1018E0006564004E6F7A7A6C65004E6F7A7A6C652B
:1018F00000436F6E74726F6C0053746F7265206D6D
:10190000656D6F72790042656400426564004E6FD8
:101910007A7A6C65004E6F7A7A6C650046616E204B
:1019200073706565640046616E2073706565640060
:1019300054656D70657261747572650053746F7271
:1019400065206D656D6F7279004265640042656463
:10195000004E6F7A7A6C65004E6F7A7A6C6500463D
:10196000616E2073706565640046616E20737065FA
:1019700065640054656D7065726174757265004DC3
:101980006F7665206178697300436F6F6C646F7761
:101990006E00507265686561742041425300507258
:1019A000656865617420504C4100473238004175CC
:1019B000746F20686F6D65004D3834004469736141
:1019C000626C65207374657070657273004D616937
:1019D0006E004D6F766520302E316D6D004D6F7647
:1019E0006520316D6D004D6F76652031306D6D0075
:1019F00050726570617265004578747275646572C5
:101A0000004D6F7665205A004D6F76652059004D68
:101A10006F76652058004D6F766520617869730098
:101A20004578747275646572005A00590058004D0B
:101A3000363030004368616E67652066696C616DA1
:101A4000656E7400466C6F7700466C6F7700466178
:101A50006E2073706565640046616E207370656505
:101A6000640042656400426564004E6F7A7A6C657A
:101A7000004E6F7A7A6C6500537065656400537030
:101A8000656564004D61696E000129022904290819
:101A9000291029202940298029012C022C01260205
:101AA00026042608261026202640268026402C8044
:101AB0002C01230223042308231023202340238006
:101AC0002301200220042008201020202040208014
:101AD00020102C202C012F022F042F082F102F2034
:101AE0002F402F802F7EFE7EFD7EFB7EF77EEF7ED9
:101AF000DF7EBF7E7F00010000291B120002000074
:101B00003B1B43000300007E1B0401030904821BEE
:101B100018020309049C1B1603030904B41B0C00E0
:101B200001C102018036018136120100020200006B
:101B300020C01683040001010203010902430002D0
:101B40000100C03209040000010202010005240066
:101B500010010524010001042402060524060001E9
:101B60000705820308004009040100020A00000082
:101B7000070503024000000705840240000004033B
:101B8000090418035400650065006E0073007900B5
:101B90006400750069006E006F00000016035500B8
:101BA000530042002000530065007200690061008C
:101BB0006C0000000C0331003200330034003500AB
:101BC0000000494E46494E4954594E414ECDCCCC69
:101BD0003D0AD7233C17B7D13877CC2B329595E601
:101BE000241FB14F0A000020410000C84200401CE1
:101BF0004620BCBE4CCA1B0E5AAEC59D7400622A5C
:101C000037BBC2BFEECD5D2A11241FBECFEFD0E29D
:101C1000DEBFCDBF13E0A0E0B1E0E6EBF7EA01E004
:101C20000BBF02C007900D92A03AB107D9F71BBEB7
:101C300011E1A0EAB3E001C01D92A334B107E1F7BE
:101C40001BE1C6E0DCE104C02297FE010E9481D3C3
:101C5000CE3FD107C9F70E94EBCA0C94CFD30C94A6
:101C60000000A0E0B0E0E7E3FEE00C949ED3EC01BE
:101C70005B016115710519F0FB0191838083F99077
:101C80008F2D90E00E9485D3892BC9F7FDE2FF16C6
:101C900021F4F990EE24E39405C02BE2F21609F446
:101CA000F990EE248E0101501040C80162EC7BE1F6
:101CB00043E050E072D2892BF9F48E010E5F1F4F82
:101CC000C80165EC7BE145E050E067D2892B19F44F
:101CD0008E01095F1F4FA114B10419F0F5011183A2
:101CE0000083E0FC04C070E090E080E813C070E086
:101CF00090E080E86FEF07C1C8016AEC7BE143E048
:101D000050E04BD2892B69F4A114B10429F470E09E
:101D100090E080EC6FE7F7C02296F501D183C08395
:101D2000F6CF8824992440E050E060E070E0EF2D89
:101D3000E053EA30A0F5F2E0EF2A8E2D90E09C010E
:101D400028703070E2FE06C0232B79F50894811CC0
:101D5000911C2BC0232B19F0089481089108DB01FA
:101D6000CA0112E0880F991FAA1FBB1F1A95D1F74D
:101D7000480F591F6A1F7B1F440F551F661F771F8F
:101D80004E0F511D611D711D483929E9520729E97E
:101D9000620729E1720748F084E0E82A06C0EE3FB6
:101DA00031F4E3FC39C098E0E92AF990C0CFE5337B
:101DB00011F0E53189F529912D3219F4E0E1EE2A8F
:101DC00005C02B3219F081E090E003C0299182E038
:101DD00090E0E22FE053EA3018F0C81BD90B1CC08A
:101DE00020E030E0FCE020383F075CF4C901880FB8
:101DF000991F880F991F280F391F220F331F2E0F8D
:101E0000311DE991E053EA3068F3E4FE03C03095F8
:101E100021953F4F820E931ECE2CDD24E1FE07C09C
:101E2000A114B10421F02197F501D183C083CB0126
:101E3000BA010E94EACF7B018C01F3E0CF22DD24BE
:101E400023E0C216D10421F417FB109517F9109561
:101E500057016801C801B70120E030E040E050E0E0
:101E60000E944ACF882309F44AC097FE0DC021EE94
:101E7000E22E2BE1F22E9094819491089394C0E28B
:101E8000D0E000E010E012C099EFE92E9BE1F92EBE
:101E9000F6CFF7012591359145915491C601B501D1
:101EA0000E942AD25B016C018C1A9D0A8C169D0639
:101EB00084F7D595C7950F5F1F4F0630110529F0A0
:101EC0008CEF9FEFE80EF91EF1CFC501D6017C0122
:101ED0008D018C2D880F8D2D881F8F3F51F0C601ED
:101EE000B50120E030E040E050E00E944ACF882376
:101EF00031F482E290E090934211809341117E2D63
:101F00009F2D802F612F272F392F482F562FB90152
:101F1000CA01CDB7DEB7ECE00C94BAD32F923F9252
:101F20005F926F927F928F929F92AF92BF92CF9269
:101F3000DF92EF92FF920F931F93CF93DF938C0169
:101F40001B01EA016115710519F0FB019183808382
:101F5000209749F0CE010297839728F020E030E0E7
:101F600040E050E0F6C0F801A1908F018A2D90E08A
:101F70000E9485D3892BB9F7FDE2AF1631F4F80141
:101F8000A1908F015524539407C0FBE2AF1619F4BA
:101F9000F801A1908F015524209719F0C031D10587
:101FA000C1F4F0E3AF1679F4F8018081883711F0BD
:101FB000883549F4F801A1800E5F1F4FF2E05F2AD7
:101FC000C0E1D0E006C0209721F480E3A816E9F430
:101FD00027C0C830D10531F1C930D10524F4C23051
:101FE000D10531F50CC0CA30D10589F0C031D10519
:101FF000F9F4C12CD12CE12CB8E0FB2E28C0C12C67
:10200000D12CE12CA0E4FA2E22C0CAE0D0E0FCECF6
:10201000CF2EFCECDF2EFCECEF2EFCE0FF2E17C0E9
:10202000C8E0D0E0C12CD12CE12CE0E1FE2E0FC0A5
:102030009E01442737FD4095542F60E070E080E01A
:1020400090E80E9442D3C901DA016C017D0120E0D1
:1020500030E040E050E060E03E01882477FC80946E
:10206000982C70EDB72EBA0CE9E0EB1570F48A2DC0
:1020700081548A3118F499ECB92E06C08A2D815604
:102080008A3150F589EAB82EBA0C8B2D90E08C1766
:102090009D0714F56F3FE1F0C216D306E406F5067E
:1020A000B0F0CA01B901A40193010E94FCD29B01C6
:1020B000AC012B0D311D411D511D2130F0E03F07BA
:1020C000F0E04F07F0E85F0710F461E001C06FEF48
:1020D000F801A1908F01C5CF2114310481F066234E
:1020E00031F001501040F1011183008308C051FE0E
:1020F0001AC002501040F1011183008314C067FF21
:1021000012C050FC05C02FEF3FEF4FEF5FE704C058
:1021100020E030E040E050E882E290E0909342110D
:102120008093411116C050FE08C0509540953095DF
:1021300021953F4F4F4F5F4F0CC057FF0AC082E2BF
:1021400090E090934211809341112FEF3FEF4FEFBA
:102150005FE7B901CA01DF91CF911F910F91FF9005
:10216000EF90DF90CF90BF90AF909F908F907F9037
:102170006F905F903F902F900895FB01DC010590D8
:102180000D920020E1F70895FC0105900020E9F789
:10219000809590958E0F9F1F0895FB01DC014150A3
:1021A000504088F08D9181341CF08B350CF4805EAA
:1021B000659161341CF06B350CF4605E861B611117
:1021C00071F3990B0895881BFCCFFB01DC01415092
:1021D000504048F005900D920020C9F701C01D92B3
:1021E00041505040E0F70895FB0155915523A9F067
:1021F000BF01DC014D9145174111E1F759F4CD01C3
:102200000590002049F04D9140154111C9F3FB01A3
:102210004111EFCF81E090E001970895FB01DC01CF
:1022200004C08D910190801921F441505040C8F7AD
:10223000881B990B0895FB01DC0102C001900D92EF
:1022400041505040D8F70895FB01DC010D9000206B
:10225000E9F7119701900D920020E1F70895FC0134
:102260008191861721F08823D9F79927089531970E
:10227000CF010895FB01DC0101900D920020E1F7F0
:102280000895FB01DC014150504030F08D910190E8
:10229000801919F40020B9F7881B990B0895FB01E8
:1022A000DC014150504048F001900D920020C9F7E8
:1022B00001C01D9241505040E0F70895AEE0B0E0FB
:1022C000E4E6F1E10C94A6D30D891E898EE08C839F
:1022D0001A8309838FEF9FE79E838D839E01275E7C
:1022E0003F4FCE0101966F89788DA9010AD02F81C9
:1022F0003885020F131FF80110822E96E4E00C942B
:10230000C2D3ABE0B0E0E7E8F1E10C9498D33C0134
:102310002B015A01FC0117821682838181FD03C0C3
:102320006FEF7FEFB9C19AE0892E1E010894211C3E
:10233000311CF3012381F20123FD859123FF81915B
:102340002F01882309F4A5C1853239F423FD859135
:1023500023FF81912F01853221F490E0B301B7D1A1
:10236000E8CF982FFF24EE249924FFE1FF15D0F049
:102370009B3269F09C3228F4903259F0933291F4F8
:102380000EC09D3249F0903369F441E024C052E020
:10239000F52A84E0F82A28C098E0F92A25C0E0E16F
:1023A000FE2A22C0F7FC29C0892F80538A3070F49E
:1023B000F6FE05C0989C902C1124980E15C0E89C40
:1023C000E02C1124E80EF0E2FF2A0EC09E3229F420
:1023D000F6FC5FC140E4F42A07C09C3619F450E8CB
:1023E000F52A02C0983649F4F20123FD959123FFA6
:1023F00091912F01992309F0B8CF892F855483300B
:1024000018F08052833038F444E050E0A40EB51E3A
:102410005FE359830FC0933631F0933779F09335EA
:1024200009F052C01FC0F5018081898342E050E06D
:10243000A40EB51E610101E010E011C0F501C080DD
:10244000D180F6FC03C06FEF7FEF02C0692D70E012
:1024500042E050E0A40EB51EC6012ED18C015FE70C
:10246000F52213C0F501C080D180F6FC03C06FEFE8
:102470007FEF02C0692D70E042E050E0A40EB51E6F
:10248000C6010FD18C0150E8F52AF3FE06C018C032
:1024900080E290E0B3011BD1EA948E2D90E0081702
:1024A0001907B0F30DC0F601F7FC8591F7FE819195
:1024B0006F0190E0B3010BD1E110EA94015010409C
:1024C0000115110581F7E2C0943611F0993661F5D6
:1024D000F7FE08C0F501208131814281538184E0FB
:1024E00090E00AC0F501808191819C01442737FD6D
:1024F0004095542F82E090E0A80EB91E9FE6F92285
:1025000057FF09C050954095309521953F4F4F4F4B
:102510005F4FE0E8FE2ACA01B901A1012AE030E0DC
:1025200002D1D82ED2183FC0953729F41F2D1F7E17
:102530002AE030E01DC01F2D197F9F3661F09037D3
:1025400020F4983509F0A5C00FC0903739F09837BE
:1025500009F09FC004C028E030E00AC0106114FDFB
:10256000146020E130E004C014FD166020E132E088
:1025700017FF08C0F501608171818281938144E079
:1025800050E008C0F50180819181BC0180E090E0BD
:1025900042E050E0A40EB51EA101C5D0D82ED2183D
:1025A0008FE7F82EF122F6FE0BC05EEFF522D9146C
:1025B00038F4F4FE07C0F2FC05C08FEEF82202C02A
:1025C0001D2D01C0192DF4FE0DC0FE01ED0DF11DF4
:1025D0008081803319F499EEF92208C01F5FF2FE62
:1025E00005C003C08F2D867809F01F5F0F2DF3FC07
:1025F00013C0F0FE0EC01E1510F09D2C0AC09D2CBD
:102600009E0C911A1E2D05C080E290E0B3015FD0B0
:102610001F5F1E15C8F304C01E1510F4E11A01C097
:10262000EE2404FF0EC080E390E0B30150D002FF1F
:102630001BC001FD03C088E790E00EC088E590E074
:102640000BC0802F867881F001FF02C08BE201C0B1
:1026500080E2F7FC8DE290E0B30139D005C080E361
:1026600090E0B30134D09A94D914C8F3DA94F1010C
:10267000ED0DF11D808190E0B30129D0DD20B1F78F
:1026800005C080E290E0B30122D0EA94EE20C9F7C1
:1026900050CEF30166817781CB012B96E2E10C9459
:1026A000B4D3FC010590615070400110D8F78095BB
:1026B00090958E0F9F1F0895FC016150704001900E
:1026C0000110D8F7809590958E0F9F1F08950F9356
:1026D0001F93CF93DF938C01EB018B8181FF1BC094
:1026E00082FF0DC02E813F818C819D812817390783
:1026F00064F4E881F9810193F983E88306C0E885F1
:10270000F985802F0995892B31F48E819F8101965F
:102710009F838E8302C00FEF1FEFC801DF91CF911F
:102720001F910F910895FA01AA27283051F1203105
:1027300081F1E8946F936E7F6E5F7F4F8F4F9F4F55
:10274000AF4FB1E03ED0B4E03CD0670F781F891F97
:102750009A1FA11D680F791F8A1F911DA11D6A0F65
:10276000711D811D911DA11D20D009F468943F9118
:102770002AE0269F11243019305D3193DEF6CF0117
:102780000895462F4770405D4193B3E00FD0C9F7DD
:10279000F6CF462F4F70405D4A3318F0495D31FD4A
:1027A0004052419302D0A9F7EACFB4E0A69597959D
:1027B000879577956795BA95C9F700976105710573
:1027C00008959B01AC010A2E0694579547953795BD
:1027D0002795BA95C9F7620F731F841F951FA01D17
:1027E0000895DC01ED91FC910280F381E02D0995C3
:1027F0000895DF93CF930F92CDB7DEB7FC016983C5
:10280000A081B18114962D913C911597BE016F5F07
:102810007F4F41E050E0F90109950F90CF91DF9192
:102820000895FC01128213820895FC01838188239C
:1028300011F081E082830895FC018281811112826E
:102840000895CF93DF93FC01E357FE4F2081318140
:102850002115310549F12150304031832083DC01BD
:10286000A05BBF4FFC01E359FF4F2BE101900D929C
:102870002150E1F79C0126573F4F40E050E0EC012A
:10288000C357DE4F0CC04F5F5F4FD9015D97F90111
:102890008BE101900D928150E1F7235E3F4F8881DB
:1028A00099814817590778F3DF91CF910895FC017A
:1028B00082E393E0918380838581882321F0CF0197
:1028C00002960C94BD660895CF92DF92EF92FF922C
:1028D0000F931F93DF93CF93CDB7DEB76D970FB6EE
:1028E000F894DEBF0FBECDBF8C016B010D5A1F4F98
:1028F000F801808103551040882321F49FE2E92EDE
:10290000F12C03C08EE4E82EF12CE00EF11E82E3E0
:1029100093E09A8389831E821B82B7016E5F7F4F8B
:10292000CE010396A60121E00E94AA6D882329F515
:10293000EFEEF0E064918F0107C088E391E159DF89
:102940000F5F1F4FF80164916623B9F7E5EFF0E0E0
:1029500064918F0107C088E391E14BDF0F5F1F4F48
:10296000F80164916623B9F788E391E1B60139DF94
:1029700088E391E16AE03DDF3FC0F801E357FE4F95
:10298000608171816A30710568F59B012F5F3F4F4F
:10299000318320838DE190E0289FA001299F500D75
:1029A000389F500D112443595F4F400F511F0AC0EB
:1029B000DA01FA017D978BE101900D928150E1F7E8
:1029C0004D51504061507040FFEF6E3F7F0781F7DF
:1029D000D801A359BF4FF70132968BE101900D92B8
:1029E0008150E1F7D801A05BBF4FFE0133968BE128
:1029F00001900D928150E1F7CE01019658DF6D965E
:102A00000FB6F894DEBF0FBECDBFCF91DF911F91FF
:102A10000F91FF90EF90DF90CF900895EF92FF928B
:102A20000F931F938C0124EBE22E21E0F22EE80E8F
:102A3000F91EC7010E946E66C7010E94BD66F801BB
:102A4000108211821F910F91FF90EF900895CF9205
:102A5000DF92EF92FF920F931F93CF93DF937C014E
:102A60006B01DB010D900020E9F78D010150104052
:102A7000061B170BE4EBF1E0EE0EFF1ED7011C92D4
:102A8000ECE4FEEFEE0EFF1ECB016EE470E0E7DB40
:102A9000EC01009731F4F8013197EC0DFD1D860132
:102AA0000CC060E270E0DBDB8C010F5F1F4FCE01DA
:102AB0006AE270E0D4DBFC0131978DE081838AE02B
:102AC00082831382C7018E549E4FB8010E94A36E69
:102AD00084EB91E0E80EF91ED7018C918823F1F088
:102AE000EFE1F1E06491EF0106C088E391E181DE5E
:102AF0002196FE0164916623C1F7E6E2F1E064915C
:102B0000EF0106C088E391E174DE2196FE01649135
:102B10006623C1F788E391E16AE06BDEDF91CF9134
:102B20001F910F91FF90EF90DF90CF900895EF925B
:102B3000FF920F93CF93DF937C01FC018381882365
:102B400009F43DC0EEE4F1E06491EF0106C088E3D2
:102B500091E14FDE2196FE0164916623C1F789E67B
:102B600092E0E80EF91EF701408151816281738184
:102B700087E99DEFE80EF91E88E391E12AE000E085
:102B80000E942CCBECE4F1E06491EF0106C088E3F5
:102B900091E12FDE2196FE0164916623C1F781E663
:102BA00092E0E80EF91EF701408151816281738144
:102BB00088E391E12AE000E00E942CCB0DC0ECE319
:102BC000F1E06491EF0106C088E391E112DE219605
:102BD000FE0164916623C1F788E391E16AE009DEB2
:102BE000DF91CF910F91FF90EF9008952F923F9238
:102BF0004F925F926F927F928F929F92AF92BF920D
:102C0000CF92DF92EF92FF920F931F93DF93CF93B8
:102C1000CDB7DEB7AA970FB6F894DEBF0FBECDBF13
:102C20005C014B01FC018381882309F40AC1C501C1
:102C30008C549E4F0E94BD66F5011282188A1B8A31
:102C400082E393E09F878E874CE4C42ED12CCA0C7C
:102C5000DB1C2FE230E0A20EB31EF601B182A0828F
:102C600021ED3FEFA20EB31EF40180818F3209F0F7
:102C700079C0C4016FE270E0F2DA7C010894E11CD3
:102C8000F11C3E010894611C711C260130E1232EC9
:102C9000312C2C0E3D1E61C0C7016FE270E0DFDAFF
:102CA0006C01009709F46CC0E816F90608F068C0DA
:102CB0008C010E191F09C301B701A801F0DA060D36
:102CC000171DF801108288E391E1B3018ADD88E3E2
:102CD00091E16AE08EDDF20160817181611571051B
:102CE00019F460E070E002C06E5F7F4FC101A30184
:102CF00021E00E94AA6D882329F5EAE8F1E06491B9
:102D00007F0108C088E391E174DD0894E11CF11CA7
:102D1000F70164916623B1F788E391E1BE016F5F2B
:102D20007F4F5FDDE8E8F1E064917F0108C088E350
:102D300091E15FDD0894E11CF11CF70164916623C9
:102D4000B1F778C02EE030E02C0F3D1FF201318347
:102D5000208376010894E11CF11CE114F10409F0D0
:102D60009BCF0BC08EE490E0A80EB91EF601B18295
:102D7000A08222EB3FEFA20EB31ED82C092D02C079
:102D8000DE2C0F2D8CE490E0A80EB91EF501808199
:102D9000918124EB3FEFA20EB31E009719F480E05F
:102DA00090E001C002966D2D702F0E94766E8823F0
:102DB000F1F0EAE7F1E064917F0108C088E391E176
:102DC00018DD0894E11CF11CF70164916623B1F74A
:102DD00088E391E16D2D702F04DD29E632E0A20E2B
:102DE000B31EF501108211821282138227C0E2E61F
:102DF000F1E064917F0108C088E391E1FADC089476
:102E0000E11CF11CF70164916623B1F788E391E1BD
:102E10006D2D702FE6DCE0E6F1E064917F0108C0E3
:102E200088E391E1E6DC0894E11CF11CF701649170
:102E30006623B1F788E391E16AE0DBDCCE010E9610
:102E400036DDAA960FB6F894DEBF0FBECDBFCF9188
:102E5000DF911F910F91FF90EF90DF90CF90BF9087
:102E6000AF909F908F907F906F905F904F903F902A
:102E70002F900895BF92CF92DF92EF92FF920F931F
:102E80001F93CF93DF938C01EB018FE28993EE24A4
:102E9000E394FF246DE8C62E61E0D62EC00ED11E4D
:102EA0005DE1B52E14C0FB9CC001112483599F4FD6
:102EB000800F911FBE010E94CD6602C02196E3944F
:102EC0008881882319F08CE88E15C0F7F3942F2D94
:102ED00030E0F601808191812817390720F3E7FC63
:102EE00007C0C8018C549E4FBE010E94CD6601C030
:102EF0001882DF91CF911F910F91FF90EF90DF909B
:102F0000CF90BF9008952F923F924F925F926F9211
:102F10007F928F929F92AF92BF92CF92DF92EF9269
:102F2000FF920F931F93DF93CF93CDB7DEB7AB978D
:102F30000FB6F894DEBF0FBECDBF5C014B014BA7AF
:102F4000DC0113968C91882309F4DBC2E7EBF1E0F6
:102F5000AE0EBF1ED5018C91E9E4FEEFAE0EBF1E92
:102F6000882309F4F5C0222309F0C6C02FEC31E014
:102F7000A20EB31ED5018C91E1E3FEEFAE0EBF1E93
:102F8000882369F1EFE1F1E064917F0108C088E3F3
:102F900091E12FDC0894E11CF11CF7016491662398
:102FA000B1F7E2E6F2E064917F0108C088E391E1C5
:102FB00020DC0894E11CF11CF70164916623B1F751
:102FC00088E391E141E050E060E070E00E94B7CB1F
:102FD00088E391E16AE00DDC0E94AB2A92C2EFEE39
:102FE000F0E064917F0108C088E391E102DC08947D
:102FF000E11CF11CF70164916623B1F7E9E4F2E00A
:1030000064917F0108C088E391E1F3DB0894E11C3F
:10301000F11CF70164916623B1F788E391E1B401F3
:10302000E0DBEEE3F2E064917F0108C088E391E128
:10303000E0DB0894E11CF11CF70164916623B1F711
:10304000850101531E4FD8016C918DE8F82E6F9DBC
:10305000B00111246C527E4F6A0D7B1DC5010ADF41
:10306000F80160816F9DB00111246C527E4F6A0D92
:103070007B1D88E391E1B5DBE8E3F2E064917F0139
:1030800008C088E391E1B5DB0894E11CF11CF7016D
:1030900064916623B1F7B9E6EB2EB2E0FB2EEA0CA1
:1030A000FB1CD7014D915D916D917C9188E391E17D
:1030B0002AE000E00E942CCB88E391E16AE099DBF2
:1030C000A50141535E4FFA012081E22FF0E0EC5858
:1030D000FF4FEE0FFF1FEE0FFF1FEA0DFB1DD70185
:1030E000CD90DD90ED90FC90C082D182E282F3829F
:1030F0002F5FFA01208326C0EFEEF0E064917F019C
:1031000008C088E391E175DB0894E11CF11CF7012C
:1031100064916623B1F7E7E2F2E064917F0108C0B1
:1031200088E391E166DB0894E11CF11CF7016491EE
:103130006623B1F788E391E1B40153DB88E391E1C1
:103140006AE057DBC5018C549E4F0E94BD6630C0BB
:103150002FEC31E0A20EB31ED5011C92E1E3FEEF8D
:10316000AE0EBF1EEFEEF0E064917F0108C088E371
:1031700091E13FDB0894E11CF11CF70164916623A7
:10318000B1F7E6E1F2E064917F0108C088E391E1E4
:1031900030DB0894E11CF11CF70164916623B1F760
:1031A00088E391E1B4011DDB88E391E16AE021DB72
:1031B000D50112961C92188A1B8A82E393E09F879E
:1031C0008E87ECE4CE2ED12CCA0CDB1CEFE2F0E0B3
:1031D000AE0EBF1ED601AD92BC92E1EDFFEFAE0E7A
:1031E000BF1ED4018C918F3209F079C0C4016FE207
:1031F00070E035D87C010894E11CF11C3E01089474
:10320000611C711C260170E1272E312C2C0E3D1EF5
:1032100061C0C7016FE270E022D86C01009709F429
:103220006CC0E816F90608F068C08C010E191F0979
:10323000C301B701A80133D8060D171DF80110828C
:1032400088E391E1B301CDDA88E391E16AE0D1DA74
:10325000D2016D917C916115710519F460E070E007
:1032600002C06E5F7F4FC101A30121E00E94AA6DE1
:10327000882329F5E2E0F2E064917F0108C088E349
:1032800091E1B7DA0894E11CF11CF701649166231F
:10329000B1F788E391E1BE016F5F7F4FA2DAE0E012
:1032A000F2E064917F0108C088E391E1A2DA08941A
:1032B000E11CF11CF70164916623B1F7FCC0EEE05C
:1032C000F0E0EC0FFD1FD201ED93FC937601089422
:1032D000E11CF11CE114F10409F09BCF0BC02EE4BA
:1032E00030E0A20EB31ED601AD92BC92E2EBFFEF2E
:1032F000AE0EBF1ED82CC92C02C0DE2CCF2CF5017F
:10330000E45BFF4F2BA5222309F49EC060817181ED
:103310006115710519F460E070E002C06E5F7F4FC7
:10332000C5018C549E4F4D2D5C2D21E00E94AA6D4D
:10333000882309F465C0A5014F595D4F85EC91E0E4
:10334000A80EB91EF50180819181A281B3812BE382
:103350003EEFA20EB31EFA0180839183A283B38352
:10336000E2EFF1E064917F0108C088E391E141DA86
:103370000894E11CF11CF70164916623B1F788E31E
:1033800091E16D2D7C2D2DDAEAEEF1E064917F0163
:1033900008C088E391E12DDA0894E11CF11CF701E3
:1033A00064916623B1F721E632E0A20EB31ED50187
:1033B0004D915D916D917C9188E391E12AE000E06F
:1033C0000E942CCB88E391E16AE013DAE8E0F0E0B8
:1033D000AE0EBF1ED5011D921D921D921C92139719
:1033E000ECEDF1E064917F0108C088E391E101DA3E
:1033F0000894E11CF11CF70164916623B1F776C0D3
:10340000E8ECF1E064917F0108C088E391E1F1D933
:103410000894E11CF11CF70164916623B1F788E37D
:1034200091E16D2D7C2DDDD9E6ECF1E064917F0119
:1034300008C088E391E1DDD90894E11CF11CF70193
:1034400064916623B1F737C06081718161157105A0
:1034500019F460E070E002C06E5F7F4FC5018C54CC
:103460009E4F4D2D5C2D26E50E94AA6D882341F5C7
:10347000E2EBF1E064917F0108C088E391E1B9D902
:103480000894E11CF11CF70164916623B1F788E30D
:1034900091E16D2D7C2DA5D9E0EBF1E064917F01E8
:1034A00008C088E391E1A5D90894E11CF11CF7015B
:1034B00064916623B1F788E391E16AE09AD91EC06E
:1034C00081E0D5018C93EEE9F1E064917F0108C0C1
:1034D00088E391E18ED90894E11CF11CF701649115
:1034E0006623B1F788E391E1B4017BD988E391E1E8
:1034F0006AE07FD98D2D9C2D0E9498BBCE010E963F
:10350000D6D9AB960FB6F894DEBF0FBECDBFCF9124
:10351000DF911F910F91FF90EF90DF90CF90BF90C0
:10352000AF909F908F907F906F905F904F903F9063
:103530002F900895EF92FF920F931F93CF93DF93F5
:10354000EC010E9448748E0101531E4FD8018C91EA
:1035500034EBE32E31E0F32EEC0EFD1E882399F1BF
:10356000C7010E94BD66F8016081615060838DE8EB
:10357000689FB00111246C527E4F6C0F7D1FCE01ED
:1035800041E021E0C0DCD801EC91F0E0EC58FF4FC5
:10359000EE0FFF1FEE0FFF1FEC0FFD1F408151814B
:1035A00062817381C759DD4F488359836A837B8366
:1035B000C956D240C7010E94A4658B81882389F136
:1035C00081E08A832EC00E942574C7010E94BD66D7
:1035D0001A8283EE90E00E94274B80919108882305
:1035E00001F11092910880914906C82FD0E0CC0FCC
:1035F000DD1FCF52D04F68817981882777FD809574
:10360000982F0E94ECCF20917A0230917B0240915A
:103610007C0250917D020E9458D1181614F4198230
:103620001882DF91CF911F910F91FF90EF90089535
:10363000FC0181E08183CF0140E021E064CCEF9286
:10364000FF920F931F93CF93DF937C01FC011382B2
:1036500084A9882321F0C701C1960E94BD66870115
:1036600001571E4FC80160E04AE10E94656488234B
:10367000D9F4EFEEF0E06491EF0106C088E391E148
:10368000B8D82196FE0164916623C1F7E3EDF2E01C
:103690006491EF0106C088E391E1ABD82196FE0169
:1036A00064916623C1F76BC0E701CC56DE4FCE01B3
:1036B000B80141E00E94346F882311F5CE01B801B2
:1036C00040E00E94346F8823D9F4EFE1F1E0649187
:1036D000EF0106C088E391E18CD82196FE01649148
:1036E0006623C1F7E0ECF2E06491EF0106C088E3E5
:1036F00091E17FD82196FE0164916623C1F73FC016
:10370000C701C196BE010E94AF698823D9F4EFE1D9
:10371000F1E06491EF0106C088E391E16AD8219657
:10372000FE0164916623C1F7E0EBF2E06491EF01E2
:1037300006C088E391E15DD82196FE01649166237D
:10374000C1F71DC081E0F7018383EFEEF0E06491E3
:10375000EF0106C088E391E14CD82196FE01649107
:103760006623C1F7E5EAF2E06491EF0106C088E361
:1037700091E13FD82196FE0164916623C1F788E369
:1037800091E16AE036D8D701A05BBF4FF701F1960F
:103790008BE101900D928150E1F7C7018F962CE4E7
:1037A00030E0E20EF31EF70191838083DF91CF9129
:1037B0001F910F91FF90EF9008952F923F924F929B
:1037C0005F926F927F929F92AF92BF92CF92DF9261
:1037D000EF92FF920F931F93DF93CF93CDB7DEB796
:1037E000CC55D0400FB6F894DEBF0FBECDBF8C01D4
:1037F000662319F503591D4FD8018C910D561240BF
:10380000882309F4E6C00FB6F89420912F11309167
:10381000301140913111509132110FBE0B591D4F93
:10382000F80180819181A281B381055612408217EF
:103830009307A407B50708F4CCC003591D4FD8015E
:103840001C920D561240F8018381882341F4C8016F
:10385000F6DED80113968C91882309F4BAC000D003
:1038600000D000D0EDB7FEB731966E010894C11CB0
:10387000D11CADB7BEB71296DC92CE92119786E1FD
:1038800091E093838283D8019D968D919C919E9720
:10389000958384830E945E117601EDB7FEB736965C
:1038A0000FB6F894FEBF0FBEEDBF56010AC0D70198
:1038B0008C91992787FD90950E948DD3F701819374
:1038C0007F01F50101900020E9F73197EA19FB0922
:1038D0008E2D8C198E175CF371E3A72EB12CA00EE0
:1038E000B11EC50140E050E060E070E00E94A465B8
:1038F00099246DE3C62ED12CCC0EDD1E2E0108942A
:10390000411C511C5FE1652E712C6C0E7D1E4FE039
:10391000242E41E0342E43C0D7018C9190E00E94C8
:103920008DD3F70181937F01D6010D900020E9F737
:103930001197AC19BD098E2D8C198A176CF3279637
:103940008FAD27978E3759F1C601B20145E050E09F
:103950000E944111009719F500D000D000D0EDB7BA
:10396000FEB73196ADB7BEB712967C926E921197A4
:1039700033822282558244820E945E11EDB7FEB7E7
:1039800036960FB6F894FEBF0FBEEDBFC3010E947E
:103990009E4B8BE091E00E94274B99249394C501A4
:1039A000B60140E050E00E94CE68181614F476018B
:1039B000BBCF992041F48FEF9FEFD8019E969C9347
:1039C0008E939D9706C0F80185A596A5019696A7AA
:1039D00085A7C45ADF4F0FB6F894DEBF0FBECDBF28
:1039E000CF91DF911F910F91FF90EF90DF90CF90DB
:1039F000BF90AF909F907F906F905F904F903F905F
:103A00002F9008952F923F924F925F926F927F92E4
:103A10008F929F92AF92BF92CF92DF92EF92FF92DE
:103A20000F931F93DF93CF93CDB7DEB7CB58D04022
:103A30000FB6F894DEBF0FBECDBF7C012B015A013B
:103A400082E090E0A80EB91EF7017196CB57DF4FC8
:103A5000F983E883C558D040C7010496CE57DF4F9D
:103A600099838883C258D040CC57DF4F1882C458FE
:103A7000D040B2E6CB2ED12CCC0EDD1EF6013B960B
:103A8000C957DF4FF983E883C758D040AEE66A2EA6
:103A9000A2E07A2E6E0C7F1CF0E78F2EF2E09F2EB4
:103AA0008E0C9F1CEEE02E2E312C2C0E3D1E85E43C
:103AB00090E08C0F9D1F0296C757DF4F9983888334
:103AC000C958D040EFEEF0E09491C557DF4F98838E
:103AD000CB58D0402BC1F6018385482F50E0BA0166
:103AE000687170706031710509F02EC1F301208199
:103AF00031812130310509F427C12230310509F423
:103B000023C1F601DE0111969081903239F08E2F9B
:103B10008C19883011F48EE28D939D933196C9579C
:103B2000DF4F88819981C758D040E817F90761F7BE
:103B30001C921E86F2018081882329F4C10160E075
:103B400071E00E942411C101B2010E942411C1013F
:103B5000BE016F5F7F4F0E942411C10160E071E0E0
:103B60000E9424111AA61DA682E393E099A788A7B4
:103B7000CE018A96B501AE014F5F5F4F21E00E94F2
:103B8000AA6D882371F5F30180819181892B49F514
:103B9000C557DF4F6881CB58D0400FEE10E008C00A
:103BA00088E391E10E94F9130F5F1F4FF8016491C0
:103BB0006623B1F788E391E162E071E00E94F113BE
:103BC00088E391E16AE00E94F91388E391E1BE0184
:103BD0006F5F7F4F0E94F11388E391E16AE00E94DA
:103BE000F913C757DF4FA881B981C958D040FE01EA
:103BF000BA968BE101900D928150E1F782E393E058
:103C000027969FAF8EAF2797C701B101AE014B5BDF
:103C10005F4FF8DECE018B5B9F4F0E945714CE01A1
:103C200088960E94571482C0953E09F47FC09E3248
:103C300009F47CC09F3509F479C0F7019189992373
:103C400031F09E3209F472C09F3509F46FC043FD14
:103C50006DC080E06031710509F481E0F70184A74F
:103C6000882349F4F6018085873409F05FC0818597
:103C70008E3709F45BC0CE57DF4FA881B981C25897
:103C8000D040F6018081803241F08E2F8C1988302F
:103C900011F48EE28D9380818D933196C957DF4F59
:103CA00088819981C758D040E817F90759F71C92C5
:103CB000F301808191810097A9F488E391E1B20139
:103CC0000E94F11388E391E1CE57DF4F688179813B
:103CD000C258D0400E94F11388E391E16AE00E944B
:103CE000F91324C08130910539F4F4018081918168
:103CF0000196918380831AC00297C1F4CC57DF4F9D
:103D0000F881C458D0402F2F30E0F4018081918198
:103D100028173907F1F0CC57DF4FF881C458D0404D
:103D2000FF5FCC57DF4FF883C458D040C501B601C0
:103D3000CB57DF4F48815981C558D0400E94CE688B
:103D400018160CF4C8CE05C0F6019081992309F02D
:103D50006BCFC557DF4F0FB6F894DEBF0FBECDBF98
:103D6000CF91DF911F910F91FF90EF90DF90CF9057
:103D7000BF90AF909F908F907F906F905F904F908B
:103D80003F902F900895EF92FF920F931F93DF9330
:103D9000CF93CDB7DEB76D970FB6F894DEBF0FBEE9
:103DA000CDBF7C018C01045B1F4F825B9F4FD8010C
:103DB0008D939C93EEE6F2E0EE0EFF1E21E030E0E4
:103DC000D7012D933D937D011D921C92E0E9FDEFFB
:103DD000EE0EFF1E029640E050E060E070E00E94B0
:103DE000A465D801ED91FC91DE01139632968BE12A
:103DF00001900D928150E1F782E393E09A838983E9
:103E0000C70165E171E08E010F5F1F4FA801FADD68
:103E1000C8010E945714F701E059FD4F808191813C
:103E20006D960FB6F894DEBF0FBECDBFCF91DF9178
:103E30001F910F91FF90EF900895EF92FF920F93D3
:103E40001F93DF93CF93CDB7DEB76D970FB6F8947E
:103E5000DEBF0FBECDBF7C018C01045B1F4F825BB8
:103E60009F4FD8018D939C93EEE6F2E0EE0EFF1E7D
:103E700022E030E0D7012D933C93E2E9FDEFEE0E16
:103E8000FF1EF701E059FD4F60831182029640E06A
:103E900050E060E070E00E94A465D801ED91FC91D3
:103EA000DE01139632968BE101900D928150E1F77D
:103EB00082E393E09A838983C70165E171E08E0113
:103EC0000F5F1F4FA8019EDDC8010E9457146D9619
:103ED0000FB6F894DEBF0FBECDBFCF91DF911F911B
:103EE0000F91FF90EF900895EF92FF920F931F9321
:103EF000DF93CF93CDB7DEB76D970FB6F894DEBFE3
:103F00000FBECDBF7C018EE692E0E80EF91EF701F0
:103F10001182108282E99DEFE80EF91E87010F5C85
:103F20001F4FC80140E050E060E070E00E94A465CF
:103F3000DE011396F8018BE101900D928150E1F7BB
:103F400082E393E09A838983C70165E171E08E0182
:103F50000F5F1F4FA80156DDC8010E9457146D96D0
:103F60000FB6F894DEBF0FBECDBFCF91DF911F918A
:103F70000F91FF90EF900895CF93DF93FC0111AA6A
:103F800014AA82E393E090AB87A7E05BFF4F108217
:103F900033961082359791838083EE54F040EF0181
:103FA000C559DF4FDE0120E030E0482F12961C9209
:103FB000129715961C9215974C9311969C931197F6
:103FC000235E3F4F5D9681E02232380779F7E05754
:103FD000FE4F89E18083339610827896108239965D
:103FE000108233961082359740839183E155FF4FBD
:103FF00010821182128213823896108211821282EC
:104000001382E956F2401282138210821182E35722
:10401000FE4F11821082EE5BFF4F1082DE01C9015C
:104020001D920197E9F7E256FF4F81E08083ED563C
:10403000F24016A615A60FB6F89480912F11909114
:104040003011A0913111B09132110FBE88579C4EA2
:10405000AF4FBF4FEB59FD4F80839183A283B38352
:10406000DF91CF9108950F931F93DF93CF93CDB737
:10407000DEB72A970FB6F894DEBF0FBECDBF809192
:10408000160190911701A0911801B09119018B832D
:104090009C83AD83BE83FE01339624E630E08081AD
:1040A000F999FECF1FBA32BD21BD80BD0FB6F8947D
:1040B000FA9AF99A0FBE2F5F3F4F2836310511F05B
:1040C0003196EDCFE5E3F8E08081F999FECF1FBA94
:1040D00032BD21BD80BD0FB6F894FA9AF99A0FBE91
:1040E0002F5F3F4F2837310511F03196EDCFE5E2D4
:1040F000F8E08081F999FECF1FBA32BD21BD80BDA5
:104100000FB6F894FA9AF99A0FBE2F5F3F4F2838EE
:10411000310511F03196EDCFE5E4F8E08081F999B1
:10412000FECF1FBA32BD21BD80BD0FB6F894FA9AFA
:10413000F99A0FBE2F5F3F4F2839310511F03196A4
:10414000EDCFE9E5F8E08081F999FECF1FBA32BDE5
:1041500021BD80BD0FB6F894FA9AF99A0FBE2F5F71
:104160003F4F2C39310511F03196EDCFEDE5F8E0F8
:104170008081F999FECF1FBA32BD21BD80BD0FB637
:10418000F894FA9AF99A0FBE2F5F3F4F203A310503
:1041900011F03196EDCFE5E5F8E08081F999FECF99
:1041A0001FBA32BD21BD80BD0FB6F894FA9AF99AB4
:1041B0000FBE2F5F3F4F243A310511F03196EDCFFE
:1041C000EDE6F8E08081F999FECF1FBA32BD21BD3E
:1041D00080BD0FB6F894FA9AF99A0FBE2F5F3F4F41
:1041E000283A310511F03196EDCFE1E2F8E0808117
:1041F000F999FECF1FBA32BD21BD80BD0FB6F8942C
:10420000FA9AF99A0FBE2F5F3F4F2C3A310511F001
:104210003196EDCFE1E6F8E08081F999FECF1FBA43
:1042200032BD21BD80BD0FB6F894FA9AF99A0FBE3F
:104230002F5F3F4F203B310511F03196EDCFE5E682
:10424000F8E08081F999FECF1FBA32BD21BD80BD53
:104250000FB6F894FA9AF99A0FBE2F5F3F4F243B9E
:10426000310511F03196EDCFE9E6F8E08081F9995A
:10427000FECF1FBA32BD21BD80BD0FB6F894FA9AA9
:10428000F99A0FBE2F5F3F4F283B310511F0319651
:10429000EDCFEAE2F6E08081F999FECF1FBA32BD98
:1042A00021BD80BD0FB6F894FA9AF99A0FBE2F5F20
:1042B0003F4F243C310511F03196EDCFE3E2F0E1C0
:1042C0008081F999FECF1FBA32BD21BD80BD0FB6E6
:1042D000F894FA9AF99A0FBE2F5F3F4F263C3105AA
:1042E00011F03196EDCFE5E2F0E18081F999FECF52
:1042F0001FBA32BD21BD80BD0FB6F894FA9AF99A63
:104300000FBE2F5F3F4F283C310511F03196EDCFA6
:10431000E7E2F0E18081F999FECF1FBA32BD21BDFD
:1043200080BD0FB6F894FA9AF99A0FBE2F5F3F4FEF
:104330002A3C310511F03196EDCFE9E2F0E18081C0
:10434000F999FECF1FBA32BD21BD80BD0FB6F894DA
:10435000FA9AF99A0FBE2F5F3F4F2C3C310511F0AE
:104360003196EDCFEBE2F0E18081F999FECF1FBAF3
:1043700032BD21BD80BD0FB6F894FA9AF99A0FBEEE
:104380002F5F3F4F2E3C310511F03196EDCFEDE21E
:10439000F0E18081F999FECF1FBA32BD21BD80BD09
:1043A0000FB6F894FA9AF99A0FBE2F5F3F4F203D4F
:1043B000310511F03196EDCFE5E4F6E08081F99911
:1043C000FECF1FBA32BD21BD80BD0FB6F894FA9A58
:1043D000F99A0FBE2F5F3F4F243D310511F0319602
:1043E000EDCFEBE8F2E08081F999FECF1FBA32BD44
:1043F00021BD80BD0FB6F894FA9AF99A0FBE2F5FCF
:104400003F4F283D310511F03196EDCFEFE8F2E056
:104410008081F999FECF1FBA32BD21BD80BD0FB694
:10442000F894FA9AF99A0FBE2F5F3F4F2C3D310551
:1044300011F03196EDCFE3E9F2E08081F999FECFFA
:104440001FBA32BD21BD80BD0FB6F894FA9AF99A11
:104450000FBE2F5F3F4F203E310511F03196EDCF5B
:1044600080E290E09A838983FE0131968081F999F8
:10447000FECF1FBA32BD21BD80BD0FB6F894FA9AA7
:10448000F99A0FBE213E310521F0319621EE30E040
:10449000EDCF80911A0190911B01A0911C01B09168
:1044A0001D018F839887A987BA87FE01379684E616
:1044B00090E02081F999FECF1FBA92BD81BD20BD49
:1044C0000FB6F894FA9AF99A0FBE8736910519F04B
:1044D00001963196EECFE0EEF2E064918F0108C0D4
:1044E00088E391E10E94F9130F5F1F4FF801649177
:1044F0006623B1F7EAEEF4E064918F0108C088E327
:1045000091E10E94F9130F5F1F4FF8016491662338
:10451000B1F788E391E16AE00E94F9132A960FB699
:10452000F894DEBF0FBECDBFCF91DF911F910F91E9
:1045300008950F931F93DF93CF93CDB7DEB7E09726
:104540000FB6F894DEBF0FBECDBFDE011196E2EECE
:10455000F2E080E101900D928150E1F7DE01519689
:10456000E2EDF2E080E101900D928150E1F7DE0191
:104570009196E2ECF2E080E101900D928150E1F73A
:1045800089819A81AB81BC818093350890933608EC
:10459000A0933708B093380889899A89AB89BC8978
:1045A0008093250890932608A0932708B0932808A5
:1045B00089A19AA1ABA1BCA180934508909346081C
:1045C000A0934708B09348088D819E81AF81B8853C
:1045D0008093390890933A08A0933B08B0933C0825
:1045E0008D899E89AF89B88D8093290890932A0878
:1045F000A0932B08B0932C088DA19EA1AFA1B8A5C4
:104600008093490890934A08A0934B08B0934C08B4
:1046100089859A85AB85BC8580933D0890933E083B
:10462000A0933F08B0934008898D9A8DAB8DBC8DC7
:1046300080932D0890932E08A0932F08B0933008F4
:1046400089A59AA5ABA5BCA580934D0890934E086B
:10465000A0934F08B09350088D859E85AF85B8898B
:104660008093410890934208A0934308B093440874
:104670008D8D9E8DAF8DB8A18093310890933208B7
:10468000A0933308B09334088DA59EA5AFA5B8A913
:104690008093510890935208A0935308B093540804
:1046A0000E940A5180E090E8ABE3B5E4809359089A
:1046B00090935A08A0935B08B0935C0880935D08C0
:1046C00090935E08A0935F08B093600820E030E00C
:1046D00040E050E020935508309356084093570827
:1046E0005093580880E29EE4A0E0B0E08093210857
:1046F00090932208A0932308B093240820936D0878
:1047000030936E0840936F085093700880E090E0FB
:10471000A0EAB1E48093610890936208A0936308D3
:10472000B09364088DEC9CECACECBEE38093650820
:1047300090936608A0936708B093680880E090E0C3
:10474000A0EAB0E48093690890936A08A0936B088C
:10475000B0936C08209332063093330640933406AE
:104760005093350620932E0630932F064093300643
:104770005093310620932A0630932B0640932C0643
:1047800050932D0684EB90E0909324108093231097
:1047900086E490E090932610809325102FEF30E070
:1047A000309328102093271080EF90E090932A10E8
:1047B0008093291084E690E090932C1080932B1026
:1047C00030932E1020932D108AE999E9A1EBB1E4E2
:1047D00080938B0290938C02A0938D02B0938E02F3
:1047E00061E77DE38AE89FE30E945C7C60938F022F
:1047F00070939002809391029093920260E070E037
:1048000084EE92E40E94687C609393027093940219
:1048100080939502909396020E947A7B80E090E0CC
:10482000A0E8BFE38093970290939802A093990227
:10483000B0939A02E0EEF2E064918F0108C088E341
:1048400091E10E94F9130F5F1F4FF80164916623F5
:10485000B1F7E6EEF2E064918F0108C088E391E1E0
:104860000E94F9130F5F1F4FF80164916623B1F79F
:1048700088E391E16AE00E94F913E0960FB6F8949C
:10488000DEBF0FBECDBFCF91DF911F910F91089575
:104890000F931F93CF93DF9300EE12E0F801649122
:1048A000E80107C088E391E10E94F9132196FE0117
:1048B00064916623B9F7EAEDF4E06491EF0107C073
:1048C00088E391E10E94F9132196FE016491662329
:1048D000B9F788E391E16AE00E94F913F801649165
:1048E000C0EED2E007C088E391E10E94F91321965F
:1048F000FE0164916623B9F740913508509136085E
:10490000609137087091380882ED94E00E94E02EA3
:104910004091390850913A0860913B0870913C08E9
:104920008FEC94E00E94E02E40913D0850913E08AB
:1049300060913F08709140088CEC94E00E94E02E5A
:104940004091410850914208609143087091440899
:1049500089EC94E00E94E02EE0913811F091391139
:104960000280F381E02D88E391E16EE171E0099529
:1049700088E391E16AE00E94F913F8016491C0EEC6
:10498000D2E007C088E391E10E94F9132196FE016D
:1049900064916623B9F7EFEAF4E06491EF0107C090
:1049A00088E391E10E94F9132196FE016491662348
:1049B000B9F788E391E16AE00E94F913F801649184
:1049C000C0EED2E007C088E391E10E94F91321967E
:1049D000FE0164916623B9F740912508509126089D
:1049E000609127087091280886EA94E00E94E02EE2
:1049F0004091290850912A0860912B0870912C0849
:104A000083EA94E00E94E02E40912D0850912E08F8
:104A100060912F087091300880EA94E00E94E02EA7
:104A200040913108509132086091330870913408F8
:104A30008DE994E00E94E02EE0913811F091391157
:104A40000280F381E02D88E391E16EE171E0099548
:104A500088E391E16AE00E94F913F8016491C0EEE5
:104A6000D2E007C088E391E10E94F9132196FE018C
:104A700064916623B9F7EFE7F4E06491EF0107C0B2
:104A800088E391E10E94F9132196FE016491662367
:104A9000B9F788E391E16AE00E94F913F8016491A3
:104AA000C0EED2E007C088E391E10E94F91321969D
:104AB000FE0164916623B9F740914508509146087C
:104AC000609147087091480886E794E00E94BC2EE8
:104AD0004091490850914A0860914B0870914C08E8
:104AE00083E794E00E94BC2E40914D0850914E08FF
:104AF00060914F087091500880E794E00E94BC2EAE
:104B00004091510850915208609153087091540897
:104B10008DE694E00E94BC2EE0913811F09139119D
:104B20000280F381E02D88E391E16EE171E0099567
:104B300088E391E16AE00E94F913F8016491C0EE04
:104B4000D2E007C088E391E10E94F9132196FE01AB
:104B500064916623B9F7E8E3F4E06491EF0107C0DC
:104B600088E391E10E94F9132196FE016491662386
:104B7000B9F788E391E16AE00E94F913F8016491C2
:104B8000C0EED2E007C088E391E10E94F9132196BC
:104B9000FE0164916623B9F74091590850915A0873
:104BA00060915B0870915C088FE294E00E94E02EB7
:104BB00040915D0850915E0860915F0870916008B7
:104BC0008CE294E00E94E02EE0913811F0913911CE
:104BD0000280F381E02D88E391E16EE171E00995B7
:104BE00088E391E16AE00E94F913F8016491C0EE54
:104BF000D2E007C088E391E10E94F9132196FE01FB
:104C000064916623B9F7E9E7F3E06491EF0107C027
:104C100088E391E10E94F9132196FE0164916623D5
:104C2000B9F788E391E16AE00E94F913F801649111
:104C3000C0EED2E007C088E391E10E94F91321960B
:104C4000FE0164916623B9F74091550850915608CA
:104C5000609157087091580880E793E00E94E02E19
:104C600040916D0850916E0860916F0870917008C6
:104C70008DE693E00E94E02E409121085091220899
:104C800060912308709124088AE693E00E94BC2E6C
:104C900040916108509162086091630870916408C6
:104CA00087E693E00E94E02E4091650850916608E7
:104CB000609167087091680884E693E00E94E02E96
:104CC0004091690850916A0860916B0870916C0876
:104CD00081E693E00E94E02EE0913811F0913911C5
:104CE0000280F381E02D88E391E16EE171E00995A6
:104CF00088E391E16AE00E94F913F8016491C0EE43
:104D0000D2E007C088E391E10E94F9132196FE01E9
:104D100064916623B9F7EFE4F3E06491EF0107C013
:104D200088E391E10E94F9132196FE0164916623C4
:104D3000B9F788E391E16AE00E94F913F801649100
:104D4000C0EED2E007C088E391E10E94F9132196FA
:104D5000FE0164916623B9F740912A0650912B0613
:104D600060912C0670912D0686E493E00E94E02E5F
:104D700040912E0650912F066091300670913106B9
:104D800083E493E00E94E02E409132065091330676
:104D9000609134067091350680E493E00E94E02E25
:104DA000E0913811F09139110280F381E02D88E310
:104DB00091E16EE171E0099588E391E16AE00E947A
:104DC000F913F8016491C0EED2E007C088E391E1E5
:104DD0000E94F9132196FE0164916623B9F7E2E37C
:104DE000F3E06491EF0107C088E391E10E94F913B9
:104DF0002196FE0164916623B9F788E391E16AE0A8
:104E00000E94F913F8016491C0EED2E007C088E374
:104E100091E10E94F9132196FE0164916623B9F78E
:104E200040918B0250918C0260918D0270918E02A4
:104E300088E293E0C5D760918F02709190028091D3
:104E40009102909192020E94627CAB01BC0185E2CA
:104E500093E0B6D76091930270919402809195028D
:104E6000909196020E946E7CAB01BC0182E293E0BD
:104E7000A7D7E0913811F09139110280F381E02D2C
:104E800088E391E16EE171E0099588E391E16AE0E0
:104E90000E94F913DF91CF911F910F9108950F9305
:104EA0001F93DF93CF93CDB7DEB72A970FB6F89451
:104EB000DEBF0FBECDBF80911A0190911B01A09162
:104EC0001C01B0911D018F839887A987BA87FE01C5
:104ED000339604E610E0F999FECF12BD01BDF89AB1
:104EE00080B580830F5F1F4F0836110511F0319692
:104EF000F2CFCE010796BE016D5F7F4F43E050E0D9
:104F00000E944111009709F098C1E5E3F8E0F99992
:104F1000FECF12BD01BDF89A80B580830F5F1F4F91
:104F20000837110511F03196F2CFE5E2F8E0F99972
:104F3000FECF12BD01BDF89A80B580830F5F1F4F71
:104F40000838110511F03196F2CFE5E4F8E0F9994F
:104F5000FECF12BD01BDF89A80B580830F5F1F4F51
:104F60000839110511F03196F2CF0E940A51E9E596
:104F7000F8E0F999FECF12BD01BDF89A80B58083A3
:104F80000F5F1F4F0C39110511F03196F2CFEDE58F
:104F9000F8E0F999FECF12BD01BDF89A80B5808383
:104FA0000F5F1F4F003A110511F03196F2CFE5E582
:104FB000F8E0F999FECF12BD01BDF89A80B5808363
:104FC0000F5F1F4F043A110511F03196F2CFEDE655
:104FD000F8E0F999FECF12BD01BDF89A80B5808343
:104FE0000F5F1F4F083A110511F03196F2CFE1E241
:104FF000F8E0F999FECF12BD01BDF89A80B5808323
:105000000F5F1F4F0C3A110511F03196F2CFE1E618
:10501000F8E0F999FECF12BD01BDF89A80B5808302
:105020000F5F1F4F003B110511F03196F2CFE5E6FF
:10503000F8E0F999FECF12BD01BDF89A80B58083E2
:105040000F5F1F4F043B110511F03196F2CFE9E6D7
:10505000F8E0F999FECF12BD01BDF89A80B58083C2
:105060000F5F1F4F083B110511F03196F2CFEAE2B6
:10507000F6E0F999FECF12BD01BDF89A80B58083A4
:105080000F5F1F4F043C110511F03196F2CFE3E2A0
:10509000F0E1F999FECF12BD01BDF89A80B5808389
:1050A0000F5F1F4F063C110511F03196F2CFE5E27C
:1050B000F0E1F999FECF12BD01BDF89A80B5808369
:1050C0000F5F1F4F083C110511F03196F2CFE7E258
:1050D000F0E1F999FECF12BD01BDF89A80B5808349
:1050E0000F5F1F4F0A3C110511F03196F2CFE9E234
:1050F000F0E1F999FECF12BD01BDF89A80B5808329
:105100000F5F1F4F0C3C110511F03196F2CFEBE20F
:10511000F0E1F999FECF12BD01BDF89A80B5808308
:105120000F5F1F4F0E3C110511F03196F2CFEDE2EB
:10513000F0E1F999FECF12BD01BDF89A80B58083E8
:105140000F5F1F4F003D110511F03196F2CFE5E4DE
:10515000F6E0F999FECF12BD01BDF89A80B58083C3
:105160000F5F1F4F043D110511F03196F2CFEBE8B0
:10517000F2E0F999FECF12BD01BDF89A80B58083A7
:105180000F5F1F4F083D110511F03196F2CFEFE888
:10519000F2E0F999FECF12BD01BDF89A80B5808387
:1051A0000F5F1F4F0C3D110511F03196F2CFE3E96F
:1051B000F2E0F999FECF12BD01BDF89A80B5808367
:1051C0000F5F1F4F003E110511F03196F2CFFE0127
:1051D0003196F999FECF12BD01BDF89A80B5808352
:1051E000013E110521F0319601EE10E0F2CF0E9450
:1051F0007A7BE0EEF2E064918F0108C088E391E1F0
:105200000E94F9130F5F1F4FF80164916623B1F7F5
:10521000E8E0F3E064918F0108C088E391E10E9427
:10522000F9130F5F1F4FF80164916623B1F788E30C
:1052300091E16AE00E94F91301C07BD929DB2A962B
:105240000FB6F894DEBF0FBECDBFCF91DF911F9197
:105250000F9108950FB6F89480912F11909130110D
:10526000A0913111B09132110FBE80935F069093DF
:105270006006A0936106B09362060895CF93DF9312
:105280000FB6F89480912F1190913011A0913111A7
:10529000B09132110FBE80935F0690936006A09389
:1052A0006106B0936206E0918806F0918906E657A0
:1052B000F94F8081882399F4EFEAF5E06491EF01DA
:1052C00007C088E391E10E94F9132196FE016491E1
:1052D0006623B9F788E391E16AE00E94F913DF9150
:1052E000CF910895EF92FF920F931F93CF93DF9387
:1052F000EC01E0903606F0903706009138061091E8
:105300003906688179818A819B81A80197010E9471
:105310004ACF882324F4E882F9820A831B83E09031
:105320003A06F0903B0600913C0610913D066C81D8
:105330007D818E819F81A80197010E944ACF882399
:1053400024F4EC82FD820E831F83E0903E06F090F1
:105350003F060091400610914106688579858A854F
:105360009B85A80197010E944ACF882324F4E886F0
:10537000F9860A871B87E0905F02F0906002009137
:10538000610210916202688179818A819B81A80102
:1053900097010E9458D1181624F4E882F9820A83F2
:1053A0001B83E0906302F09064020091650210910B
:1053B00066026C817D818E819F81A80197010E9488
:1053C00058D1181624F4EC82FD820E831F83E090DE
:1053D0006702F09068020091690210916A02688584
:1053E00079858A859B85A80197010E9458D1181656
:1053F00024F4E886F9860A871B87DF91CF911F91F5
:105400000F91FF90EF9008958091540608950F93A7
:105410001F93CF93DF938130910549F46F5F7F4FE6
:1054200009F046C080EA93E00E94BC1F41C0892B6E
:1054300009F03EC06F5F7F4FD9F582E393E0909310
:1054400053058093520580915705882321F084E508
:1054500095E00E94BD66C0E1D5E002E313E005C01F
:105460006D9783E0CE3ED80751F0198308838D8174
:105470008823B1F3CE0102960E94BD66F1CF82E38C
:1054800093E0998388838D81882321F0CE01029651
:105490000E94BD6682E393E09093D0038093CF0394
:1054A0008091D403882321F081ED93E00E94BD66B2
:1054B000DF91CF911F910F91089580E090E06FEF01
:1054C0007FEFA5CF81E090E06FEF7FEFA0CFCF938C
:1054D000DF930E944D7C80915406882309F038C0E8
:1054E00081E0809354068091570690915806A091D0
:1054F0005906B0915A0680935B0690935C06A09380
:105500005D06B0935E06E0E0F5E06491EF0107C050
:1055100088E391E10E94F9132196FE0164916623CC
:10552000B9F7E1E1F5E06491EF0107C088E391E1AB
:105530000E94F9132196FE0164916623B9F788E36E
:1055400091E16AE00E94F91387E095E00E9476BB42
:10555000DF91CF910895CF93DF93F8940E944D7C13
:10556000779A10924206769A10924306479A1092C2
:105570004406439AE0E0F5E06491EF0107C088E358
:1055800091E10E94F9132196FE0164916623B9F717
:10559000E0E9F5E06491EF0107C088E391E10E9442
:1055A000F9132196FE0164916623B9F788E391E12E
:1055B0006AE00E94F91387E895E00E9485BBFFCF5F
:1055C000EF92FF920F931F930FB6F89480912F11D3
:1055D00090913011A0913111B09132110FBEE09035
:1055E0006306F090640600916506109166062091AE
:1055F0005F06309160064091610650916206821B01
:10560000930BA40BB50BE816F9060A071B0730F439
:10561000E114F1040105110509F09DDFE0906D0230
:10562000F0906E0200916F0210917002E114F1048B
:105630000105110561F10FB6F89480912F11909139
:105640003011A0913111B09132110FBE20915F063F
:10565000309160064091610650916206821B930B67
:10566000A40BB50BE816F9060A071B0780F4909106
:10567000620D8091630D981751F4779A109242064B
:10568000769A10924306479A10924406439A0E94D3
:10569000B0501F910F91FF90EF9008956F927F92FD
:1056A0008F929F92AF92BF92CF92DF92EF92FF9232
:1056B0000F931F93F82E6091670670916806809192
:1056C000690690916A0620916B0630916C064091B4
:1056D0006D0650916E060E9465D13B014C0100D0D1
:1056E00000D000D00DB71EB70F5F1F4F609157025B
:1056F00070915802882777FD8095982F0E94ECCFF3
:1057000020917102309172024091730250917402A3
:105710000E942AD220E030E040E752E40E9451CFBC
:1057200020E030E048EC52E40E9451CF5B016C0174
:10573000F8016082718282829382F48280914906AC
:1057400085838AE196E063E776E047E656E020E06D
:1057500001E032E0E32E0E94154C80917306909197
:105760007406A0917506B091760680931A06909300
:105770001B06A0931C06B0931D068091770690919E
:105780007806A0917906B0917A0680931E069093D0
:105790001F06A0932006B093210680917B0690916E
:1057A0007C06A0917D06B0917E06809322069093A0
:1057B0002306A0932406B093250680917F0690913E
:1057C0008006A0918106B091820680932606909370
:1057D0002706A0932806B09329060FB6F894809167
:1057E0002F1190913011A0913111B09132110FBE53
:1057F00080935F0690936006A0936106B093620663
:105800008DB79EB706960FB6F8949EBF0FBE8DBF9C
:105810001F910F91FF90EF90DF90CF90BF90AF90CE
:105820009F908F907F906F900895CF92DF92EF922C
:10583000FF920F931F9383E796E054DD0FB6F89421
:1058400080912F1190913011A0913111B0913211AE
:105850000FBE80935F0690936006A0936106B0939D
:10586000620660911A0670911B0680911C06909149
:105870001D06209173063091740640917506509173
:1058800076060E944ACF882309F07AC060911E06EE
:1058900070911F0680912006909121062091770635
:1058A000309178064091790650917A060E944ACF4D
:1058B000882309F065C06091710270917202809135
:1058C00073029091740220E030E040E752E40E94BD
:1058D00051CF7B018C0183E796E067E776E04BE7E9
:1058E00056E02FE736E0E9E4CE2EE6E0DE2E0E9419
:1058F00033568091730690917406A0917506B0910D
:10590000760680931A0690931B06A0931C06B0930C
:105910001D068091770690917806A0917906B09146
:105920007A0680931E0690931F06A0932006B093DC
:10593000210680917B0690917C06A0917D06B09116
:105940007E068093220690932306A0932406B093AC
:10595000250680917F0690918006A0918106B091E6
:1059600082068093260690932706A0932806B0937C
:1059700029061F910F91FF90EF90DF90CF9008952F
:105980006091570270915802882777FD8095982F73
:105990000E94ECCF2091710230917202409173020B
:1059A000509174020E942AD220E030E040E752E495
:1059B0000E9451CF20E030E048EC52E488CFCF93F2
:1059C000DF9388E391E10E94F2CCE2EBF5E0649191
:1059D000EF0107C088E391E10E94F9132196FE01CF
:1059E00064916623B9F7409157065091580660912B
:1059F000590670915A064F5F5F4F6F4F7F4F88E394
:105A000091E10E94B7CB88E391E16AE00E94F9132B
:105A100035DCDF91CF9108952F923F924F925F92A4
:105A20006F927F928F929F92AF92BF92CF92DF92AE
:105A3000EF92FF920F931F93DF93CF93CDB7DEB713
:105A400028970FB6F894DEBF0FBECDBF98878F831F
:105A50008330910508F056C1FC01EF53F84FD49004
:105A60003C01660C771C660C771C9301265E394F4F
:105A70003A83298380E090E0A0E0B0E0F9018083E0
:105A80009183A283B3838AE196E06EE176E042E2FD
:105A900056E026E236E00E945251F301EC53F84FF3
:105AA000E590F590059114916D2D772767FD709520
:105AB000882777FD8095982F0E94ECCF1B012C0141
:105AC00093012D58394F3C832B83C801B70120E047
:105AD00030E040EC5FE30E942AD2A20191010E94D3
